{
  "_format": "hh-sol-artifact-1",
  "contractName": "ArchiveCoin",
  "sourceName": "contracts/ArchiveCoin.sol",
  "abi": [
    {
      "inputs": [],
      "stateMutability": "nonpayable",
      "type": "constructor"
    },
    {
      "anonymous": false,
      "inputs": [
        {
          "indexed": true,
          "internalType": "address",
          "name": "owner",
          "type": "address"
        },
        {
          "indexed": true,
          "internalType": "address",
          "name": "spender",
          "type": "address"
        },
        {
          "indexed": false,
          "internalType": "uint256",
          "name": "value",
          "type": "uint256"
        }
      ],
      "name": "Approval",
      "type": "event"
    },
    {
      "anonymous": false,
      "inputs": [
        {
          "indexed": true,
          "internalType": "address",
          "name": "delegator",
          "type": "address"
        },
        {
          "indexed": true,
          "internalType": "address",
          "name": "fromDelegate",
          "type": "address"
        },
        {
          "indexed": true,
          "internalType": "address",
          "name": "toDelegate",
          "type": "address"
        }
      ],
      "name": "DelegateChanged",
      "type": "event"
    },
    {
      "anonymous": false,
      "inputs": [
        {
          "indexed": true,
          "internalType": "address",
          "name": "delegate",
          "type": "address"
        },
        {
          "indexed": false,
          "internalType": "uint256",
          "name": "previousBalance",
          "type": "uint256"
        },
        {
          "indexed": false,
          "internalType": "uint256",
          "name": "newBalance",
          "type": "uint256"
        }
      ],
      "name": "DelegateVotesChanged",
      "type": "event"
    },
    {
      "anonymous": false,
      "inputs": [
        {
          "indexed": true,
          "internalType": "address",
          "name": "previousOwner",
          "type": "address"
        },
        {
          "indexed": true,
          "internalType": "address",
          "name": "newOwner",
          "type": "address"
        }
      ],
      "name": "OwnershipTransferred",
      "type": "event"
    },
    {
      "anonymous": false,
      "inputs": [
        {
          "indexed": false,
          "internalType": "uint256",
          "name": "id",
          "type": "uint256"
        }
      ],
      "name": "Snapshot",
      "type": "event"
    },
    {
      "anonymous": false,
      "inputs": [
        {
          "indexed": true,
          "internalType": "address",
          "name": "from",
          "type": "address"
        },
        {
          "indexed": true,
          "internalType": "address",
          "name": "to",
          "type": "address"
        },
        {
          "indexed": false,
          "internalType": "uint256",
          "name": "value",
          "type": "uint256"
        }
      ],
      "name": "Transfer",
      "type": "event"
    },
    {
      "inputs": [],
      "name": "DOMAIN_SEPARATOR",
      "outputs": [
        {
          "internalType": "bytes32",
          "name": "",
          "type": "bytes32"
        }
      ],
      "stateMutability": "view",
      "type": "function"
    },
    {
      "inputs": [
        {
          "internalType": "address",
          "name": "owner",
          "type": "address"
        },
        {
          "internalType": "address",
          "name": "spender",
          "type": "address"
        }
      ],
      "name": "allowance",
      "outputs": [
        {
          "internalType": "uint256",
          "name": "",
          "type": "uint256"
        }
      ],
      "stateMutability": "view",
      "type": "function"
    },
    {
      "inputs": [
        {
          "internalType": "address",
          "name": "spender",
          "type": "address"
        },
        {
          "internalType": "uint256",
          "name": "amount",
          "type": "uint256"
        }
      ],
      "name": "approve",
      "outputs": [
        {
          "internalType": "bool",
          "name": "",
          "type": "bool"
        }
      ],
      "stateMutability": "nonpayable",
      "type": "function"
    },
    {
      "inputs": [
        {
          "internalType": "address",
          "name": "account",
          "type": "address"
        }
      ],
      "name": "balanceOf",
      "outputs": [
        {
          "internalType": "uint256",
          "name": "",
          "type": "uint256"
        }
      ],
      "stateMutability": "view",
      "type": "function"
    },
    {
      "inputs": [
        {
          "internalType": "address",
          "name": "account",
          "type": "address"
        },
        {
          "internalType": "uint256",
          "name": "snapshotId",
          "type": "uint256"
        }
      ],
      "name": "balanceOfAt",
      "outputs": [
        {
          "internalType": "uint256",
          "name": "",
          "type": "uint256"
        }
      ],
      "stateMutability": "view",
      "type": "function"
    },
    {
      "inputs": [
        {
          "internalType": "uint256",
          "name": "amount",
          "type": "uint256"
        }
      ],
      "name": "burn",
      "outputs": [],
      "stateMutability": "nonpayable",
      "type": "function"
    },
    {
      "inputs": [
        {
          "internalType": "address",
          "name": "account",
          "type": "address"
        },
        {
          "internalType": "uint256",
          "name": "amount",
          "type": "uint256"
        }
      ],
      "name": "burnFrom",
      "outputs": [],
      "stateMutability": "nonpayable",
      "type": "function"
    },
    {
      "inputs": [
        {
          "internalType": "address",
          "name": "account",
          "type": "address"
        },
        {
          "internalType": "uint32",
          "name": "pos",
          "type": "uint32"
        }
      ],
      "name": "checkpoints",
      "outputs": [
        {
          "components": [
            {
              "internalType": "uint32",
              "name": "fromBlock",
              "type": "uint32"
            },
            {
              "internalType": "uint224",
              "name": "votes",
              "type": "uint224"
            }
          ],
          "internalType": "struct ERC20Votes.Checkpoint",
          "name": "",
          "type": "tuple"
        }
      ],
      "stateMutability": "view",
      "type": "function"
    },
    {
      "inputs": [],
      "name": "createNftContract",
      "outputs": [
        {
          "internalType": "contract MyToken",
          "name": "",
          "type": "address"
        }
      ],
      "stateMutability": "nonpayable",
      "type": "function"
    },
    {
      "inputs": [],
      "name": "decimals",
      "outputs": [
        {
          "internalType": "uint8",
          "name": "",
          "type": "uint8"
        }
      ],
      "stateMutability": "view",
      "type": "function"
    },
    {
      "inputs": [
        {
          "internalType": "address",
          "name": "spender",
          "type": "address"
        },
        {
          "internalType": "uint256",
          "name": "subtractedValue",
          "type": "uint256"
        }
      ],
      "name": "decreaseAllowance",
      "outputs": [
        {
          "internalType": "bool",
          "name": "",
          "type": "bool"
        }
      ],
      "stateMutability": "nonpayable",
      "type": "function"
    },
    {
      "inputs": [
        {
          "internalType": "address",
          "name": "delegatee",
          "type": "address"
        }
      ],
      "name": "delegate",
      "outputs": [],
      "stateMutability": "nonpayable",
      "type": "function"
    },
    {
      "inputs": [
        {
          "internalType": "address",
          "name": "delegatee",
          "type": "address"
        },
        {
          "internalType": "uint256",
          "name": "nonce",
          "type": "uint256"
        },
        {
          "internalType": "uint256",
          "name": "expiry",
          "type": "uint256"
        },
        {
          "internalType": "uint8",
          "name": "v",
          "type": "uint8"
        },
        {
          "internalType": "bytes32",
          "name": "r",
          "type": "bytes32"
        },
        {
          "internalType": "bytes32",
          "name": "s",
          "type": "bytes32"
        }
      ],
      "name": "delegateBySig",
      "outputs": [],
      "stateMutability": "nonpayable",
      "type": "function"
    },
    {
      "inputs": [
        {
          "internalType": "address",
          "name": "account",
          "type": "address"
        }
      ],
      "name": "delegates",
      "outputs": [
        {
          "internalType": "address",
          "name": "",
          "type": "address"
        }
      ],
      "stateMutability": "view",
      "type": "function"
    },
    {
      "inputs": [],
      "name": "getAllComments",
      "outputs": [
        {
          "components": [
            {
              "internalType": "address",
              "name": "sender",
              "type": "address"
            },
            {
              "internalType": "string",
              "name": "text",
              "type": "string"
            },
            {
              "internalType": "uint256",
              "name": "replyTo",
              "type": "uint256"
            },
            {
              "internalType": "uint256",
              "name": "timestamp",
              "type": "uint256"
            }
          ],
          "internalType": "struct ArchiveCoin.Comment[]",
          "name": "",
          "type": "tuple[]"
        }
      ],
      "stateMutability": "view",
      "type": "function"
    },
    {
      "inputs": [],
      "name": "getAllPosts",
      "outputs": [
        {
          "components": [
            {
              "internalType": "address",
              "name": "sender",
              "type": "address"
            },
            {
              "internalType": "string",
              "name": "title",
              "type": "string"
            },
            {
              "internalType": "string",
              "name": "text",
              "type": "string"
            },
            {
              "internalType": "uint256",
              "name": "replyTo",
              "type": "uint256"
            },
            {
              "internalType": "uint256",
              "name": "timestamp",
              "type": "uint256"
            }
          ],
          "internalType": "struct ArchiveCoin.Post[]",
          "name": "",
          "type": "tuple[]"
        }
      ],
      "stateMutability": "view",
      "type": "function"
    },
    {
      "inputs": [],
      "name": "getAmount",
      "outputs": [
        {
          "internalType": "uint256",
          "name": "",
          "type": "uint256"
        }
      ],
      "stateMutability": "view",
      "type": "function"
    },
    {
      "inputs": [
        {
          "internalType": "uint256",
          "name": "cId",
          "type": "uint256"
        }
      ],
      "name": "getCommentForCId",
      "outputs": [
        {
          "components": [
            {
              "internalType": "address",
              "name": "sender",
              "type": "address"
            },
            {
              "internalType": "string",
              "name": "text",
              "type": "string"
            },
            {
              "internalType": "uint256",
              "name": "replyTo",
              "type": "uint256"
            },
            {
              "internalType": "uint256",
              "name": "timestamp",
              "type": "uint256"
            }
          ],
          "internalType": "struct ArchiveCoin.Comment",
          "name": "",
          "type": "tuple"
        }
      ],
      "stateMutability": "view",
      "type": "function"
    },
    {
      "inputs": [
        {
          "internalType": "uint256",
          "name": "blockNumber",
          "type": "uint256"
        }
      ],
      "name": "getPastTotalSupply",
      "outputs": [
        {
          "internalType": "uint256",
          "name": "",
          "type": "uint256"
        }
      ],
      "stateMutability": "view",
      "type": "function"
    },
    {
      "inputs": [
        {
          "internalType": "address",
          "name": "account",
          "type": "address"
        },
        {
          "internalType": "uint256",
          "name": "blockNumber",
          "type": "uint256"
        }
      ],
      "name": "getPastVotes",
      "outputs": [
        {
          "internalType": "uint256",
          "name": "",
          "type": "uint256"
        }
      ],
      "stateMutability": "view",
      "type": "function"
    },
    {
      "inputs": [
        {
          "internalType": "uint256",
          "name": "pId",
          "type": "uint256"
        }
      ],
      "name": "getPostForPId",
      "outputs": [
        {
          "components": [
            {
              "internalType": "address",
              "name": "sender",
              "type": "address"
            },
            {
              "internalType": "string",
              "name": "title",
              "type": "string"
            },
            {
              "internalType": "string",
              "name": "text",
              "type": "string"
            },
            {
              "internalType": "uint256",
              "name": "replyTo",
              "type": "uint256"
            },
            {
              "internalType": "uint256",
              "name": "timestamp",
              "type": "uint256"
            }
          ],
          "internalType": "struct ArchiveCoin.Post",
          "name": "",
          "type": "tuple"
        }
      ],
      "stateMutability": "view",
      "type": "function"
    },
    {
      "inputs": [],
      "name": "getRange",
      "outputs": [
        {
          "internalType": "uint256",
          "name": "",
          "type": "uint256"
        }
      ],
      "stateMutability": "view",
      "type": "function"
    },
    {
      "inputs": [
        {
          "internalType": "address",
          "name": "account",
          "type": "address"
        }
      ],
      "name": "getVotes",
      "outputs": [
        {
          "internalType": "uint256",
          "name": "",
          "type": "uint256"
        }
      ],
      "stateMutability": "view",
      "type": "function"
    },
    {
      "inputs": [
        {
          "internalType": "address",
          "name": "spender",
          "type": "address"
        },
        {
          "internalType": "uint256",
          "name": "addedValue",
          "type": "uint256"
        }
      ],
      "name": "increaseAllowance",
      "outputs": [
        {
          "internalType": "bool",
          "name": "",
          "type": "bool"
        }
      ],
      "stateMutability": "nonpayable",
      "type": "function"
    },
    {
      "inputs": [],
      "name": "name",
      "outputs": [
        {
          "internalType": "string",
          "name": "",
          "type": "string"
        }
      ],
      "stateMutability": "view",
      "type": "function"
    },
    {
      "inputs": [
        {
          "internalType": "address",
          "name": "owner",
          "type": "address"
        }
      ],
      "name": "nonces",
      "outputs": [
        {
          "internalType": "uint256",
          "name": "",
          "type": "uint256"
        }
      ],
      "stateMutability": "view",
      "type": "function"
    },
    {
      "inputs": [
        {
          "internalType": "address",
          "name": "account",
          "type": "address"
        }
      ],
      "name": "numCheckpoints",
      "outputs": [
        {
          "internalType": "uint32",
          "name": "",
          "type": "uint32"
        }
      ],
      "stateMutability": "view",
      "type": "function"
    },
    {
      "inputs": [],
      "name": "owner",
      "outputs": [
        {
          "internalType": "address",
          "name": "",
          "type": "address"
        }
      ],
      "stateMutability": "view",
      "type": "function"
    },
    {
      "inputs": [
        {
          "internalType": "address",
          "name": "owner",
          "type": "address"
        },
        {
          "internalType": "address",
          "name": "spender",
          "type": "address"
        },
        {
          "internalType": "uint256",
          "name": "value",
          "type": "uint256"
        },
        {
          "internalType": "uint256",
          "name": "deadline",
          "type": "uint256"
        },
        {
          "internalType": "uint8",
          "name": "v",
          "type": "uint8"
        },
        {
          "internalType": "bytes32",
          "name": "r",
          "type": "bytes32"
        },
        {
          "internalType": "bytes32",
          "name": "s",
          "type": "bytes32"
        }
      ],
      "name": "permit",
      "outputs": [],
      "stateMutability": "nonpayable",
      "type": "function"
    },
    {
      "inputs": [],
      "name": "renounceOwnership",
      "outputs": [],
      "stateMutability": "nonpayable",
      "type": "function"
    },
    {
      "inputs": [
        {
          "internalType": "uint256",
          "name": "num",
          "type": "uint256"
        }
      ],
      "name": "setAmount",
      "outputs": [],
      "stateMutability": "nonpayable",
      "type": "function"
    },
    {
      "inputs": [
        {
          "internalType": "string",
          "name": "text",
          "type": "string"
        },
        {
          "internalType": "uint256",
          "name": "replyTo",
          "type": "uint256"
        }
      ],
      "name": "setComment",
      "outputs": [],
      "stateMutability": "nonpayable",
      "type": "function"
    },
    {
      "inputs": [
        {
          "internalType": "string",
          "name": "title",
          "type": "string"
        },
        {
          "internalType": "string",
          "name": "text",
          "type": "string"
        },
        {
          "internalType": "uint256",
          "name": "replyTo",
          "type": "uint256"
        }
      ],
      "name": "setPost",
      "outputs": [],
      "stateMutability": "nonpayable",
      "type": "function"
    },
    {
      "inputs": [
        {
          "internalType": "uint256",
          "name": "num",
          "type": "uint256"
        }
      ],
      "name": "setRange",
      "outputs": [],
      "stateMutability": "nonpayable",
      "type": "function"
    },
    {
      "inputs": [],
      "name": "snapshot",
      "outputs": [],
      "stateMutability": "nonpayable",
      "type": "function"
    },
    {
      "inputs": [],
      "name": "symbol",
      "outputs": [
        {
          "internalType": "string",
          "name": "",
          "type": "string"
        }
      ],
      "stateMutability": "view",
      "type": "function"
    },
    {
      "inputs": [],
      "name": "totalSupply",
      "outputs": [
        {
          "internalType": "uint256",
          "name": "",
          "type": "uint256"
        }
      ],
      "stateMutability": "view",
      "type": "function"
    },
    {
      "inputs": [
        {
          "internalType": "uint256",
          "name": "snapshotId",
          "type": "uint256"
        }
      ],
      "name": "totalSupplyAt",
      "outputs": [
        {
          "internalType": "uint256",
          "name": "",
          "type": "uint256"
        }
      ],
      "stateMutability": "view",
      "type": "function"
    },
    {
      "inputs": [
        {
          "internalType": "address",
          "name": "to",
          "type": "address"
        },
        {
          "internalType": "uint256",
          "name": "amount",
          "type": "uint256"
        }
      ],
      "name": "transfer",
      "outputs": [
        {
          "internalType": "bool",
          "name": "",
          "type": "bool"
        }
      ],
      "stateMutability": "nonpayable",
      "type": "function"
    },
    {
      "inputs": [
        {
          "internalType": "address",
          "name": "from",
          "type": "address"
        },
        {
          "internalType": "address",
          "name": "to",
          "type": "address"
        },
        {
          "internalType": "uint256",
          "name": "amount",
          "type": "uint256"
        }
      ],
      "name": "transferFrom",
      "outputs": [
        {
          "internalType": "bool",
          "name": "",
          "type": "bool"
        }
      ],
      "stateMutability": "nonpayable",
      "type": "function"
    },
    {
      "inputs": [
        {
          "internalType": "address",
          "name": "newOwner",
          "type": "address"
        }
      ],
      "name": "transferOwnership",
      "outputs": [],
      "stateMutability": "nonpayable",
      "type": "function"
    }
  ],
  "bytecode": "0x6101406040523480156200001257600080fd5b506040518060400160405280600c81526020016b20b931b434bb329021b7b4b760a11b81525080604051806040016040528060018152602001603160f81b8152506040518060400160405280600c81526020016b20b931b434bb329021b7b4b760a11b81525060405180604001604052806005815260200164020a921ab160dd1b8152508160039081620000a7919062000275565b506004620000b6828262000275565b505050620000d3620000cd6200017a60201b60201c565b6200017e565b815160208084019190912082518383012060e08290526101008190524660a0818152604080517f8b73c3c69bb8fe3d512ecc4cf759cc79239f7b179b0ffacaa9a75d522b39400f81880181905281830187905260608201869052608082019490945230818401528151808203909301835260c00190528051940193909320919290916080523060c05261012052505060026011555050600160125550601e60135562000341565b3390565b600980546001600160a01b038381166001600160a01b0319831681179093556040519116919082907f8be0079c531659141344cd1fd0a4f28419497f9722a3daafe3b4186f6b6457e090600090a35050565b634e487b7160e01b600052604160045260246000fd5b600181811c90821680620001fb57607f821691505b6020821081036200021c57634e487b7160e01b600052602260045260246000fd5b50919050565b601f8211156200027057600081815260208120601f850160051c810160208610156200024b5750805b601f850160051c820191505b818110156200026c5782815560010162000257565b5050505b505050565b81516001600160401b03811115620002915762000291620001d0565b620002a981620002a28454620001e6565b8462000222565b602080601f831160018114620002e15760008415620002c85750858301515b600019600386901b1c1916600185901b1785556200026c565b600085815260208120601f198616915b828110156200031257888601518255948401946001909101908401620002f1565b5085821015620003315787850151600019600388901b60f8161c191681555b5050505050600190811b01905550565b60805160a05160c05160e0516101005161012051614ed6620003916000396000611bc201526000611c1101526000611bec01526000611b4301526000611b6e01526000611b990152614ed66000f3fe60806040523480156200001157600080fd5b5060043610620002855760003560e01c8063715018a611620001615780639ac9798e11620000d3578063d321fe291162000092578063d321fe2914620005ec578063d505accf14620005f5578063dd62ed3e146200060c578063e6a90da51462000623578063f1127ed8146200063a578063f2fde38b146200067c57600080fd5b80639ac9798e14620005785780639b85961f146200059e578063a457c2d714620005a7578063a9059cbb14620005be578063c3cda52014620005d557600080fd5b806395d89b41116200012057806395d89b4114620005105780639711715a146200051a5780639770de271462000524578063981b24d0146200054a5780639ab24eb0146200056157600080fd5b8063715018a614620004af57806379cc679014620004b95780637ecebe0014620004d05780638da5cb5b14620004e75780638e539e8c14620004f957600080fd5b80633950935111620001fb5780635c19a95c11620001ba5780635c19a95c14620004115780636a91991b14620004285780636fcfff45146200043f57806370625cfd146200046c57806370a08231146200048357600080fd5b80633950935114620003865780633a46b1a8146200039d57806342966c6814620003b45780634ee2cd7e14620003cb578063587cde1e14620003e257600080fd5b806323b872dd116200024857806323b872dd1462000323578063271f88b4146200033a578063305611001462000353578063313ce567146200036c5780633644e515146200037c57600080fd5b806306fdde03146200028a578063095ea7b314620002ac578063099d79f814620002d45780631044090414620002f757806318160ddd1462000310575b600080fd5b6200029462000693565b604051620002a3919062002d5a565b60405180910390f35b620002c3620002bd36600462002d87565b6200072d565b6040519015158152602001620002a3565b620002de62000749565b6040516001600160a01b039091168152602001620002a3565b620003016200077c565b604051620002a3919062002dfd565b6002545b604051908152602001620002a3565b620002c36200033436600462002e63565b6200095d565b620003516200034b36600462002ea4565b62000985565b005b6200035d62000994565b604051620002a3919062002f23565b60405160128152602001620002a3565b6200031462000bdc565b620002c36200039736600462002d87565b62000bed565b62000314620003ae36600462002d87565b62000c15565b62000351620003c536600462002ea4565b62000c97565b62000314620003dc36600462002d87565b62000ca6565b620002de620003f336600462002f7c565b6001600160a01b039081166000908152600c60205260409020541690565b620003516200042236600462002f7c565b62000d03565b620003516200043936600462002ea4565b62000d0f565b620004566200045036600462002f7c565b62000d1e565b60405163ffffffff9091168152602001620002a3565b620003516200047d36600462003045565b62000d42565b620003146200049436600462002f7c565b6001600160a01b031660009081526020819052604090205490565b6200035162000e08565b62000351620004ca36600462002d87565b62000e20565b62000314620004e136600462002f7c565b62000e3d565b6009546001600160a01b0316620002de565b620003146200050a36600462002ea4565b62000e5c565b6200029462000ebc565b6200035162000ecd565b6200053b6200053536600462002ea4565b62000ee1565b604051620002a39190620030b9565b620003146200055b36600462002ea4565b62001066565b620003146200057236600462002f7c565b62001095565b6200058f6200058936600462002ea4565b62001123565b604051620002a39190620030ce565b60115462000314565b620002c3620005b836600462002d87565b62001239565b620002c3620005cf36600462002d87565b620012ba565b62000351620005e6366004620030f5565b620012ca565b60125462000314565b620003516200060636600462003152565b6200140c565b620003146200061d366004620031c3565b6200157c565b6200035162000634366004620031fb565b620015a7565b620006516200064b36600462003244565b62001642565b60408051825163ffffffff1681526020928301516001600160e01b03169281019290925201620002a3565b620003516200068d36600462002f7c565b620016c9565b606060038054620006a49062003288565b80601f0160208091040260200160405190810160405280929190818152602001828054620006d29062003288565b8015620007235780601f10620006f75761010080835404028352916020019162000723565b820191906000526020600020905b8154815290600101906020018083116200070557829003601f168201915b5050505050905090565b6000336200073d81858562001745565b60019150505b92915050565b6000604051620007599062002ccc565b604051809103906000f08015801562000776573d6000803e3d6000fd5b50905090565b606060006200078a60105490565b90506000808267ffffffffffffffff811115620007ab57620007ab62002f9a565b6040519080825280602002602001820160405280156200081357816020015b620007ff604051806080016040528060006001600160a01b031681526020016060815260200160008152602001600081525090565b815260200190600190039081620007ca5790505b50905060005b8381101562000955576015600062000833836001620032d4565b8152602080820192909252604090810160002081516080810190925280546001600160a01b031682526001810180549293919291840191620008759062003288565b80601f0160208091040260200160405190810160405280929190818152602001828054620008a39062003288565b8015620008f45780601f10620008c857610100808354040283529160200191620008f4565b820191906000526020600020905b815481529060010190602001808311620008d657829003601f168201915b5050505050815260200160028201548152602001600382015481525050828481518110620009265762000926620032ea565b60209081029190910101526200093e600184620032d4565b9250806200094c8162003300565b91505062000819565b509392505050565b6000336200096d8582856200186d565b6200097a858585620018ee565b506001949350505050565b6200098f62001ada565b601255565b60606000620009a2600f5490565b90506000808267ffffffffffffffff811115620009c357620009c362002f9a565b60405190808252806020026020018201604052801562000a0057816020015b620009ec62002cda565b815260200190600190039081620009e25790505b50905060005b8381101562000955576014600062000a20836001620032d4565b81526020808201929092526040908101600020815160a0810190925280546001600160a01b03168252600181018054929391929184019162000a629062003288565b80601f016020809104026020016040519081016040528092919081815260200182805462000a909062003288565b801562000ae15780601f1062000ab55761010080835404028352916020019162000ae1565b820191906000526020600020905b81548152906001019060200180831162000ac357829003601f168201915b5050505050815260200160028201805462000afc9062003288565b80601f016020809104026020016040519081016040528092919081815260200182805462000b2a9062003288565b801562000b7b5780601f1062000b4f5761010080835404028352916020019162000b7b565b820191906000526020600020905b81548152906001019060200180831162000b5d57829003601f168201915b505050505081526020016003820154815260200160048201548152505082848151811062000bad5762000bad620032ea565b602090810291909101015262000bc5600184620032d4565b92508062000bd38162003300565b91505062000a06565b600062000be862001b36565b905090565b6000336200073d81858562000c0383836200157c565b62000c0f9190620032d4565b62001745565b600043821062000c6c5760405162461bcd60e51b815260206004820152601f60248201527f4552433230566f7465733a20626c6f636b206e6f7420796574206d696e65640060448201526064015b60405180910390fd5b6001600160a01b0383166000908152600d6020526040902062000c90908362001c5f565b9392505050565b62000ca3338262001d2e565b50565b6001600160a01b03821660009081526005602052604081208190819062000ccf90859062001d3a565b915091508162000cf8576001600160a01b03851660009081526020819052604090205462000cfa565b805b95945050505050565b62000ca3338262001e3d565b62000d1962001ada565b601155565b6001600160a01b0381166000908152600d6020526040812054620007439062001eb8565b62000d51600f80546001019055565b600062000d5d600f5490565b6040805160a08101825233815260208082018881528284018890526060830187905242608084015260008581526014909252929020815181546001600160a01b0319166001600160a01b03909116178155915192935091829190600182019062000dc890826200336e565b506040820151600282019062000ddf90826200336e565b506060820151600382015560809091015160049091015562000e013362001f23565b5050505050565b62000e1262001ada565b62000e1e600062001f43565b565b62000e2d8233836200186d565b62000e39828262001d2e565b5050565b6001600160a01b0381166000908152600a602052604081205462000743565b600043821062000eaf5760405162461bcd60e51b815260206004820152601f60248201527f4552433230566f7465733a20626c6f636b206e6f7420796574206d696e656400604482015260640162000c63565b62000743600e8362001c5f565b606060048054620006a49062003288565b62000ed762001ada565b62000ca362001f95565b62000eeb62002cda565b600082815260146020908152604091829020825160a0810190935280546001600160a01b03168352600181018054919284019162000f299062003288565b80601f016020809104026020016040519081016040528092919081815260200182805462000f579062003288565b801562000fa85780601f1062000f7c5761010080835404028352916020019162000fa8565b820191906000526020600020905b81548152906001019060200180831162000f8a57829003601f168201915b5050505050815260200160028201805462000fc39062003288565b80601f016020809104026020016040519081016040528092919081815260200182805462000ff19062003288565b8015620010425780601f10620010165761010080835404028352916020019162001042565b820191906000526020600020905b8154815290600101906020018083116200102457829003601f168201915b50505050508152602001600382015481526020016004820154815250509050919050565b60008060006200107884600662001d3a565b91509150816200108b576002546200108d565b805b949350505050565b6001600160a01b0381166000908152600d6020526040812054801562001110576001600160a01b0383166000908152600d60205260409020620010da6001836200343b565b81548110620010ed57620010ed620032ea565b60009182526020909120015464010000000090046001600160e01b031662001113565b60005b6001600160e01b03169392505050565b62001158604051806080016040528060006001600160a01b031681526020016060815260200160008152602001600081525090565b60008281526015602090815260409182902082516080810190935280546001600160a01b031683526001810180549192840191620011969062003288565b80601f0160208091040260200160405190810160405280929190818152602001828054620011c49062003288565b8015620012155780601f10620011e95761010080835404028352916020019162001215565b820191906000526020600020905b815481529060010190602001808311620011f757829003601f168201915b50505050508152602001600282015481526020016003820154815250509050919050565b600033816200124982866200157c565b905083811015620012ab5760405162461bcd60e51b815260206004820152602560248201527f45524332303a2064656372656173656420616c6c6f77616e63652062656c6f77604482015264207a65726f60d81b606482015260840162000c63565b6200097a828686840362001745565b6000336200073d818585620018ee565b834211156200131c5760405162461bcd60e51b815260206004820152601d60248201527f4552433230566f7465733a207369676e61747572652065787069726564000000604482015260640162000c63565b604080517fe48329057bfd03d55e49b547132e39cffd9c1820ad7b9d4c5307691425d15adf60208201526001600160a01b0388169181019190915260608101869052608081018590526000906200139a90620013919060a0016040516020818303038152906040528051906020012062001ff3565b85858562002044565b9050620013a78162002070565b8614620013f75760405162461bcd60e51b815260206004820152601960248201527f4552433230566f7465733a20696e76616c6964206e6f6e636500000000000000604482015260640162000c63565b62001403818862001e3d565b50505050505050565b834211156200145e5760405162461bcd60e51b815260206004820152601d60248201527f45524332305065726d69743a206578706972656420646561646c696e65000000604482015260640162000c63565b60007f6e71edae12b1b97f4d1f60370fef10105fa2faae0126114a169c64845d6126c98888886200148f8c62002070565b6040805160208101969096526001600160a01b0394851690860152929091166060840152608083015260a082015260c0810186905260e0016040516020818303038152906040528051906020012090506000620014ec8262001ff3565b90506000620014fe8287878762002044565b9050896001600160a01b0316816001600160a01b031614620015635760405162461bcd60e51b815260206004820152601e60248201527f45524332305065726d69743a20696e76616c6964207369676e61747572650000604482015260640162000c63565b620015708a8a8a62001745565b50505050505050505050565b6001600160a01b03918216600090815260016020908152604080832093909416825291909152205490565b6000620015b360105490565b9050620015c4601080546001019055565b60408051608081018252338152602080820186815282840186905242606084015260008581526015909252929020815181546001600160a01b0319166001600160a01b0390911617815591519091829160018201906200162590826200336e565b506040820151600282015560609091015160039091015550505050565b60408051808201909152600080825260208201526001600160a01b0383166000908152600d60205260409020805463ffffffff8416908110620016895762001689620032ea565b60009182526020918290206040805180820190915291015463ffffffff8116825264010000000090046001600160e01b0316918101919091529392505050565b620016d362001ada565b6001600160a01b0381166200173a5760405162461bcd60e51b815260206004820152602660248201527f4f776e61626c653a206e6577206f776e657220697320746865207a65726f206160448201526564647265737360d01b606482015260840162000c63565b62000ca38162001f43565b6001600160a01b038316620017a95760405162461bcd60e51b8152602060048201526024808201527f45524332303a20617070726f76652066726f6d20746865207a65726f206164646044820152637265737360e01b606482015260840162000c63565b6001600160a01b0382166200180c5760405162461bcd60e51b815260206004820152602260248201527f45524332303a20617070726f766520746f20746865207a65726f206164647265604482015261737360f01b606482015260840162000c63565b6001600160a01b0383811660008181526001602090815260408083209487168084529482529182902085905590518481527f8c5be1e5ebec7d5bd14f71427d1e84f3dd0314c0f7b2291e5b200ac8c7c3b925910160405180910390a3505050565b60006200187b84846200157c565b90506000198114620018e85781811015620018d95760405162461bcd60e51b815260206004820152601d60248201527f45524332303a20696e73756666696369656e7420616c6c6f77616e6365000000604482015260640162000c63565b620018e8848484840362001745565b50505050565b6001600160a01b038316620019545760405162461bcd60e51b815260206004820152602560248201527f45524332303a207472616e736665722066726f6d20746865207a65726f206164604482015264647265737360d81b606482015260840162000c63565b6001600160a01b038216620019b85760405162461bcd60e51b815260206004820152602360248201527f45524332303a207472616e7366657220746f20746865207a65726f206164647260448201526265737360e81b606482015260840162000c63565b620019c583838362002098565b6001600160a01b0383166000908152602081905260409020548181101562001a3f5760405162461bcd60e51b815260206004820152602660248201527f45524332303a207472616e7366657220616d6f756e7420657863656564732062604482015265616c616e636560d01b606482015260840162000c63565b6001600160a01b0380851660009081526020819052604080822085850390559185168152908120805484929062001a78908490620032d4565b92505081905550826001600160a01b0316846001600160a01b03167fddf252ad1be2c89b69c2b068fc378daa952ba7f163c4a11628f55a4df523b3ef8460405162001ac591815260200190565b60405180910390a3620018e8848484620020aa565b6009546001600160a01b0316331462000e1e5760405162461bcd60e51b815260206004820181905260248201527f4f776e61626c653a2063616c6c6572206973206e6f7420746865206f776e6572604482015260640162000c63565b6000306001600160a01b037f00000000000000000000000000000000000000000000000000000000000000001614801562001b9057507f000000000000000000000000000000000000000000000000000000000000000046145b1562001bbb57507f000000000000000000000000000000000000000000000000000000000000000090565b50604080517f00000000000000000000000000000000000000000000000000000000000000006020808301919091527f0000000000000000000000000000000000000000000000000000000000000000828401527f000000000000000000000000000000000000000000000000000000000000000060608301524660808301523060a0808401919091528351808403909101815260c0909201909252805191012090565b8154600090815b8181101562001cce57600062001c7d8284620020b7565b90508486828154811062001c955762001c95620032ea565b60009182526020909120015463ffffffff16111562001cb75780925062001cc7565b62001cc4816001620032d4565b91505b5062001c66565b811562001d19578462001ce36001846200343b565b8154811062001cf65762001cf6620032ea565b60009182526020909120015464010000000090046001600160e01b031662001d1c565b60005b6001600160e01b031695945050505050565b62000e398282620020d6565b6000806000841162001d885760405162461bcd60e51b815260206004820152601660248201527504552433230536e617073686f743a20696420697320360541b604482015260640162000c63565b62001d92620020f3565b84111562001de35760405162461bcd60e51b815260206004820152601d60248201527f4552433230536e617073686f743a206e6f6e6578697374656e74206964000000604482015260640162000c63565b600062001df18486620020ff565b8454909150810362001e0b57600080925092505062001e36565b600184600101828154811062001e255762001e25620032ea565b906000526020600020015492509250505b9250929050565b6001600160a01b038281166000818152600c60208181526040808420805485845282862054949093528787166001600160a01b03198416811790915590519190951694919391928592917f3134e8a2e6d97e929a7e54011ea5485d7d196dd5f0ba4d4ef95803e8e3fc257f9190a4620018e8828483620021dc565b600063ffffffff82111562001f1f5760405162461bcd60e51b815260206004820152602660248201527f53616665436173743a2076616c756520646f65736e27742066697420696e203360448201526532206269747360d01b606482015260840162000c63565b5090565b62001f2d62002325565b60010362000ca35762000ca3816012546200237d565b600980546001600160a01b038381166001600160a01b0319831681179093556040519116919082907f8be0079c531659141344cd1fd0a4f28419497f9722a3daafe3b4186f6b6457e090600090a35050565b600062001fa6600880546001019055565b600062001fb2620020f3565b90507f8030e83b04d87bef53480e26263266d6ca66863aa8506aca6f2559d18aa1cb678160405162001fe691815260200190565b60405180910390a1919050565b6000620007436200200362001b36565b8360405161190160f01b6020820152602281018390526042810182905260009060620160405160208183030381529060405280519060200120905092915050565b6000806000620020578787878762002389565b9150915062002066816200247e565b5095945050505050565b6001600160a01b0381166000908152600a602052604090208054600181018255905b50919050565b620020a58383836200264c565b505050565b620020a5838383620026a0565b6000620020c8600284841862003467565b62000c9090848416620032d4565b620020e28282620026d4565b620018e8600e6200283f836200284d565b600062000be860085490565b81546000908103620021145750600062000743565b82546000905b808210156200217b576000620021318383620020b7565b905084868281548110620021495762002149620032ea565b90600052602060002001541115620021645780915062002174565b62002171816001620032d4565b92505b506200211a565b600082118015620021b657508385620021966001856200343b565b81548110620021a957620021a9620032ea565b9060005260206000200154145b15620021d357620021c96001836200343b565b9250505062000743565b50905062000743565b816001600160a01b0316836001600160a01b031614158015620021ff5750600081115b15620020a5576001600160a01b0383161562002293576001600160a01b0383166000908152600d6020526040812081906200223f906200283f856200284d565b91509150846001600160a01b03167fdec2bacdd2f05b59de34da9b523dff8be42e5e38e818c82fdb0bae774387a724838360405162002288929190918252602082015260400190565b60405180910390a250505b6001600160a01b03821615620020a5576001600160a01b0382166000908152600d602052604081208190620022cd90620029e1856200284d565b91509150836001600160a01b03167fdec2bacdd2f05b59de34da9b523dff8be42e5e38e818c82fdb0bae774387a724838360405162002316929190918252602082015260400190565b60405180910390a25050505050565b6000601154444262002336600f5490565b6010546040805160208101959095528401929092526060830152608082015260a0016040516020818303038152906040528051906020012060001c62000be891906200347e565b62000e398282620029ef565b6000807f7fffffffffffffffffffffffffffffff5d576e7357a4501ddfe92f46681b20a0831115620023c2575060009050600362002475565b8460ff16601b14158015620023db57508460ff16601c14155b15620023ee575060009050600462002475565b6040805160008082526020820180845289905260ff881692820192909252606081018690526080810185905260019060a0016020604051602081039080840390855afa15801562002443573d6000803e3d6000fd5b5050604051601f1901519150506001600160a01b0381166200246e5760006001925092505062002475565b9150600090505b94509492505050565b600081600481111562002495576200249562003495565b036200249e5750565b6001816004811115620024b557620024b562003495565b03620025045760405162461bcd60e51b815260206004820152601860248201527f45434453413a20696e76616c6964207369676e61747572650000000000000000604482015260640162000c63565b60028160048111156200251b576200251b62003495565b036200256a5760405162461bcd60e51b815260206004820152601f60248201527f45434453413a20696e76616c6964207369676e6174757265206c656e67746800604482015260640162000c63565b600381600481111562002581576200258162003495565b03620025db5760405162461bcd60e51b815260206004820152602260248201527f45434453413a20696e76616c6964207369676e6174757265202773272076616c604482015261756560f01b606482015260840162000c63565b6004816004811115620025f257620025f262003495565b0362000ca35760405162461bcd60e51b815260206004820152602260248201527f45434453413a20696e76616c6964207369676e6174757265202776272076616c604482015261756560f01b606482015260840162000c63565b6001600160a01b0383166200267057620026668262002a80565b620020a562002ab5565b6001600160a01b0382166200268a57620026668362002a80565b620026958362002a80565b620020a58262002a80565b6001600160a01b038381166000908152600c6020526040808220548584168352912054620020a592918216911683620021dc565b6001600160a01b038216620027365760405162461bcd60e51b815260206004820152602160248201527f45524332303a206275726e2066726f6d20746865207a65726f206164647265736044820152607360f81b606482015260840162000c63565b620027448260008362002098565b6001600160a01b03821660009081526020819052604090205481811015620027ba5760405162461bcd60e51b815260206004820152602260248201527f45524332303a206275726e20616d6f756e7420657863656564732062616c616e604482015261636560f01b606482015260840162000c63565b6001600160a01b0383166000908152602081905260408120838303905560028054849290620027eb9084906200343b565b90915550506040518281526000906001600160a01b038516907fddf252ad1be2c89b69c2b068fc378daa952ba7f163c4a11628f55a4df523b3ef9060200160405180910390a3620020a583600084620020aa565b600062000c9082846200343b565b8254600090819080156200289f5785620028696001836200343b565b815481106200287c576200287c620032ea565b60009182526020909120015464010000000090046001600160e01b0316620028a2565b60005b6001600160e01b03169250620028bc83858763ffffffff16565b91506000811180156200290057504386620028d96001846200343b565b81548110620028ec57620028ec620032ea565b60009182526020909120015463ffffffff16145b156200296957620029118262002ac5565b866200291f6001846200343b565b81548110620029325762002932620032ea565b9060005260206000200160000160046101000a8154816001600160e01b0302191690836001600160e01b03160217905550620029d8565b856040518060400160405280620029804362001eb8565b63ffffffff168152602001620029968562002ac5565b6001600160e01b0390811690915282546001810184556000938452602093849020835194909301519091166401000000000263ffffffff909316929092179101555b50935093915050565b600062000c908284620032d4565b620029fb828262002b30565b6002546001600160e01b03101562002a6f5760405162461bcd60e51b815260206004820152603060248201527f4552433230566f7465733a20746f74616c20737570706c79207269736b73206f60448201526f766572666c6f77696e6720766f74657360801b606482015260840162000c63565b620018e8600e620029e1836200284d565b6001600160a01b0381166000908152600560209081526040808320918390529091205462000ca3919062002c2d565b62002c2d565b62000e1e600662002aaf60025490565b60006001600160e01b0382111562001f1f5760405162461bcd60e51b815260206004820152602760248201527f53616665436173743a2076616c756520646f65736e27742066697420696e20326044820152663234206269747360c81b606482015260840162000c63565b6001600160a01b03821662002b885760405162461bcd60e51b815260206004820152601f60248201527f45524332303a206d696e7420746f20746865207a65726f206164647265737300604482015260640162000c63565b62002b966000838362002098565b806002600082825462002baa9190620032d4565b90915550506001600160a01b0382166000908152602081905260408120805483929062002bd9908490620032d4565b90915550506040518181526001600160a01b038316906000907fddf252ad1be2c89b69c2b068fc378daa952ba7f163c4a11628f55a4df523b3ef9060200160405180910390a362000e3960008383620020aa565b600062002c39620020f3565b90508062002c478462002c7c565b1015620020a5578254600180820185556000858152602080822090930193909355938401805494850181558252902090910155565b8054600090810362002c9057506000919050565b8154829062002ca2906001906200343b565b8154811062002cb55762002cb5620032ea565b90600052602060002001549050919050565b919050565b6119f580620034ac83390190565b6040518060a0016040528060006001600160a01b03168152602001606081526020016060815260200160008152602001600081525090565b6000815180845260005b8181101562002d3a5760208185018101518683018201520162002d1c565b506000602082860101526020601f19601f83011685010191505092915050565b60208152600062000c90602083018462002d12565b80356001600160a01b038116811462002cc757600080fd5b6000806040838503121562002d9b57600080fd5b62002da68362002d6f565b946020939093013593505050565b60018060a01b038151168252600060208201516080602085015262002ddd608085018262002d12565b905060408301516040850152606083015160608501528091505092915050565b6000602080830181845280855180835260408601915060408160051b870101925083870160005b8281101562002e5657603f1988860301845262002e4385835162002db4565b9450928501929085019060010162002e24565b5092979650505050505050565b60008060006060848603121562002e7957600080fd5b62002e848462002d6f565b925062002e946020850162002d6f565b9150604084013590509250925092565b60006020828403121562002eb757600080fd5b5035919050565b60018060a01b0381511682526000602082015160a0602085015262002ee760a085018262002d12565b90506040830151848203604086015262002f02828262002d12565b91505060608301516060850152608083015160808501528091505092915050565b6000602080830181845280855180835260408601915060408160051b870101925083870160005b8281101562002e5657603f1988860301845262002f6985835162002ebe565b9450928501929085019060010162002f4a565b60006020828403121562002f8f57600080fd5b62000c908262002d6f565b634e487b7160e01b600052604160045260246000fd5b600082601f83011262002fc257600080fd5b813567ffffffffffffffff8082111562002fe05762002fe062002f9a565b604051601f8301601f19908116603f011681019082821181831017156200300b576200300b62002f9a565b816040528381528660208588010111156200302557600080fd5b836020870160208301376000602085830101528094505050505092915050565b6000806000606084860312156200305b57600080fd5b833567ffffffffffffffff808211156200307457600080fd5b620030828783880162002fb0565b945060208601359150808211156200309957600080fd5b50620030a88682870162002fb0565b925050604084013590509250925092565b60208152600062000c90602083018462002ebe565b60208152600062000c90602083018462002db4565b803560ff8116811462002cc757600080fd5b60008060008060008060c087890312156200310f57600080fd5b6200311a8762002d6f565b955060208701359450604087013593506200313860608801620030e3565b92506080870135915060a087013590509295509295509295565b600080600080600080600060e0888a0312156200316e57600080fd5b620031798862002d6f565b9650620031896020890162002d6f565b95506040880135945060608801359350620031a760808901620030e3565b925060a0880135915060c0880135905092959891949750929550565b60008060408385031215620031d757600080fd5b620031e28362002d6f565b9150620031f26020840162002d6f565b90509250929050565b600080604083850312156200320f57600080fd5b823567ffffffffffffffff8111156200322757600080fd5b620032358582860162002fb0565b95602094909401359450505050565b600080604083850312156200325857600080fd5b620032638362002d6f565b9150602083013563ffffffff811681146200327d57600080fd5b809150509250929050565b600181811c908216806200329d57607f821691505b6020821081036200209257634e487b7160e01b600052602260045260246000fd5b634e487b7160e01b600052601160045260246000fd5b80820180821115620007435762000743620032be565b634e487b7160e01b600052603260045260246000fd5b600060018201620033155762003315620032be565b5060010190565b601f821115620020a557600081815260208120601f850160051c81016020861015620033455750805b601f850160051c820191505b81811015620033665782815560010162003351565b505050505050565b815167ffffffffffffffff8111156200338b576200338b62002f9a565b620033a3816200339c845462003288565b846200331c565b602080601f831160018114620033db5760008415620033c25750858301515b600019600386901b1c1916600185901b17855562003366565b600085815260208120601f198616915b828110156200340c57888601518255948401946001909101908401620033eb565b50858210156200342b5787850151600019600388901b60f8161c191681555b5050505050600190811b01905550565b81810381811115620007435762000743620032be565b634e487b7160e01b600052601260045260246000fd5b60008262003479576200347962003451565b500490565b60008262003490576200349062003451565b500690565b634e487b7160e01b600052602160045260246000fdfe60806040523480156200001157600080fd5b506040518060400160405280600781526020016626bcaa37b5b2b760c91b815250604051806040016040528060038152602001624d544b60e81b81525081600090816200005f91906200018c565b5060016200006e82826200018c565b5050506200008b620000856200009160201b60201c565b62000095565b62000258565b3390565b600780546001600160a01b038381166001600160a01b0319831681179093556040519116919082907f8be0079c531659141344cd1fd0a4f28419497f9722a3daafe3b4186f6b6457e090600090a35050565b634e487b7160e01b600052604160045260246000fd5b600181811c908216806200011257607f821691505b6020821081036200013357634e487b7160e01b600052602260045260246000fd5b50919050565b601f8211156200018757600081815260208120601f850160051c81016020861015620001625750805b601f850160051c820191505b8181101562000183578281556001016200016e565b5050505b505050565b81516001600160401b03811115620001a857620001a8620000e7565b620001c081620001b98454620000fd565b8462000139565b602080601f831160018114620001f85760008415620001df5750858301515b600019600386901b1c1916600185901b17855562000183565b600085815260208120601f198616915b82811015620002295788860151825594840194600190910190840162000208565b5085821015620002485787850151600019600388901b60f8161c191681555b5050505050600190811b01905550565b61178d80620002686000396000f3fe608060405234801561001057600080fd5b506004361061010b5760003560e01c806370a08231116100a2578063a22cb46511610071578063a22cb4651461021b578063b88d4fde1461022e578063c87b56dd14610241578063e985e9c514610254578063f2fde38b1461026757600080fd5b806370a08231146101d9578063715018a6146101fa5780638da5cb5b1461020257806395d89b411461021357600080fd5b806323b872dd116100de57806323b872dd1461018d57806342842e0e146101a05780636352211e146101b3578063695850fb146101c657600080fd5b806301ffc9a71461011057806306fdde0314610138578063081812fc1461014d578063095ea7b314610178575b600080fd5b61012361011e366004611147565b61027a565b60405190151581526020015b60405180910390f35b6101406102cc565b60405161012f91906111b4565b61016061015b3660046111c7565b61035e565b6040516001600160a01b03909116815260200161012f565b61018b6101863660046111fc565b610385565b005b61018b61019b366004611226565b61049f565b61018b6101ae366004611226565b6104d0565b6101606101c13660046111c7565b6104eb565b61018b6101d43660046112ee565b61054b565b6101ec6101e7366004611337565b61057e565b60405190815260200161012f565b61018b610604565b6007546001600160a01b0316610160565b610140610618565b61018b610229366004611352565b610627565b61018b61023c36600461138e565b610632565b61014061024f3660046111c7565b61066a565b61012361026236600461140a565b610675565b61018b610275366004611337565b6106a3565b60006001600160e01b031982166380ac58cd60e01b14806102ab57506001600160e01b03198216635b5e139f60e01b145b806102c657506301ffc9a760e01b6001600160e01b03198316145b92915050565b6060600080546102db9061143d565b80601f01602080910402602001604051908101604052809291908181526020018280546103079061143d565b80156103545780601f1061032957610100808354040283529160200191610354565b820191906000526020600020905b81548152906001019060200180831161033757829003601f168201915b5050505050905090565b60006103698261071c565b506000908152600460205260409020546001600160a01b031690565b6000610390826104eb565b9050806001600160a01b0316836001600160a01b0316036104025760405162461bcd60e51b815260206004820152602160248201527f4552433732313a20617070726f76616c20746f2063757272656e74206f776e656044820152603960f91b60648201526084015b60405180910390fd5b336001600160a01b038216148061041e575061041e8133610675565b6104905760405162461bcd60e51b815260206004820152603e60248201527f4552433732313a20617070726f76652063616c6c6572206973206e6f7420746f60448201527f6b656e206f776e6572206e6f7220617070726f76656420666f7220616c6c000060648201526084016103f9565b61049a838361077b565b505050565b6104a933826107e9565b6104c55760405162461bcd60e51b81526004016103f990611477565b61049a838383610848565b61049a83838360405180602001604052806000815250610632565b6000818152600260205260408120546001600160a01b0316806102c65760405162461bcd60e51b8152602060048201526018602482015277115490cdcc8c4e881a5b9d985b1a59081d1bdad95b88125160421b60448201526064016103f9565b600061055660085490565b9050610566600880546001019055565b61057033826109e4565b61057a81836109fe565b5050565b60006001600160a01b0382166105e85760405162461bcd60e51b815260206004820152602960248201527f4552433732313a2061646472657373207a65726f206973206e6f7420612076616044820152683634b21037bbb732b960b91b60648201526084016103f9565b506001600160a01b031660009081526003602052604090205490565b61060c610a91565b6106166000610aeb565b565b6060600180546102db9061143d565b61057a338383610b3d565b61063c33836107e9565b6106585760405162461bcd60e51b81526004016103f990611477565b61066484848484610c0b565b50505050565b60606102c682610c3e565b6001600160a01b03918216600090815260056020908152604080832093909416825291909152205460ff1690565b6106ab610a91565b6001600160a01b0381166107105760405162461bcd60e51b815260206004820152602660248201527f4f776e61626c653a206e6577206f776e657220697320746865207a65726f206160448201526564647265737360d01b60648201526084016103f9565b61071981610aeb565b50565b6000818152600260205260409020546001600160a01b03166107195760405162461bcd60e51b8152602060048201526018602482015277115490cdcc8c4e881a5b9d985b1a59081d1bdad95b88125160421b60448201526064016103f9565b600081815260046020526040902080546001600160a01b0319166001600160a01b03841690811790915581906107b0826104eb565b6001600160a01b03167f8c5be1e5ebec7d5bd14f71427d1e84f3dd0314c0f7b2291e5b200ac8c7c3b92560405160405180910390a45050565b6000806107f5836104eb565b9050806001600160a01b0316846001600160a01b0316148061081c575061081c8185610675565b806108405750836001600160a01b03166108358461035e565b6001600160a01b0316145b949350505050565b826001600160a01b031661085b826104eb565b6001600160a01b0316146108bf5760405162461bcd60e51b815260206004820152602560248201527f4552433732313a207472616e736665722066726f6d20696e636f72726563742060448201526437bbb732b960d91b60648201526084016103f9565b6001600160a01b0382166109215760405162461bcd60e51b8152602060048201526024808201527f4552433732313a207472616e7366657220746f20746865207a65726f206164646044820152637265737360e01b60648201526084016103f9565b61092c60008261077b565b6001600160a01b03831660009081526003602052604081208054600192906109559084906114db565b90915550506001600160a01b03821660009081526003602052604081208054600192906109839084906114ee565b909155505060008181526002602052604080822080546001600160a01b0319166001600160a01b0386811691821790925591518493918716917fddf252ad1be2c89b69c2b068fc378daa952ba7f163c4a11628f55a4df523b3ef91a4505050565b61057a828260405180602001604052806000815250610d46565b6000828152600260205260409020546001600160a01b0316610a795760405162461bcd60e51b815260206004820152602e60248201527f45524337323155524953746f726167653a2055524920736574206f66206e6f6e60448201526d32bc34b9ba32b73a103a37b5b2b760911b60648201526084016103f9565b600082815260066020526040902061049a828261154f565b6007546001600160a01b031633146106165760405162461bcd60e51b815260206004820181905260248201527f4f776e61626c653a2063616c6c6572206973206e6f7420746865206f776e657260448201526064016103f9565b600780546001600160a01b038381166001600160a01b0319831681179093556040519116919082907f8be0079c531659141344cd1fd0a4f28419497f9722a3daafe3b4186f6b6457e090600090a35050565b816001600160a01b0316836001600160a01b031603610b9e5760405162461bcd60e51b815260206004820152601960248201527f4552433732313a20617070726f766520746f2063616c6c65720000000000000060448201526064016103f9565b6001600160a01b03838116600081815260056020908152604080832094871680845294825291829020805460ff191686151590811790915591519182527f17307eab39ab6107e8899845ad3d59bd9653f200f220920489ca2b5937696c31910160405180910390a3505050565b610c16848484610848565b610c2284848484610d79565b6106645760405162461bcd60e51b81526004016103f99061160f565b6060610c498261071c565b60008281526006602052604081208054610c629061143d565b80601f0160208091040260200160405190810160405280929190818152602001828054610c8e9061143d565b8015610cdb5780601f10610cb057610100808354040283529160200191610cdb565b820191906000526020600020905b815481529060010190602001808311610cbe57829003601f168201915b505050505090506000610cf960408051602081019091526000815290565b90508051600003610d0b575092915050565b815115610d3d578082604051602001610d25929190611661565b60405160208183030381529060405292505050919050565b61084084610e7a565b610d508383610eee565b610d5d6000848484610d79565b61049a5760405162461bcd60e51b81526004016103f99061160f565b60006001600160a01b0384163b15610e6f57604051630a85bd0160e11b81526001600160a01b0385169063150b7a0290610dbd903390899088908890600401611690565b6020604051808303816000875af1925050508015610df8575060408051601f3d908101601f19168201909252610df5918101906116cd565b60015b610e55573d808015610e26576040519150601f19603f3d011682016040523d82523d6000602084013e610e2b565b606091505b508051600003610e4d5760405162461bcd60e51b81526004016103f99061160f565b805181602001fd5b6001600160e01b031916630a85bd0160e11b149050610840565b506001949350505050565b6060610e858261071c565b6000610e9c60408051602081019091526000815290565b90506000815111610ebc5760405180602001604052806000815250610ee7565b80610ec684611030565b604051602001610ed7929190611661565b6040516020818303038152906040525b9392505050565b6001600160a01b038216610f445760405162461bcd60e51b815260206004820181905260248201527f4552433732313a206d696e7420746f20746865207a65726f206164647265737360448201526064016103f9565b6000818152600260205260409020546001600160a01b031615610fa95760405162461bcd60e51b815260206004820152601c60248201527f4552433732313a20746f6b656e20616c7265616479206d696e7465640000000060448201526064016103f9565b6001600160a01b0382166000908152600360205260408120805460019290610fd29084906114ee565b909155505060008181526002602052604080822080546001600160a01b0319166001600160a01b03861690811790915590518392907fddf252ad1be2c89b69c2b068fc378daa952ba7f163c4a11628f55a4df523b3ef908290a45050565b6060816000036110575750506040805180820190915260018152600360fc1b602082015290565b8160005b8115611081578061106b816116ea565b915061107a9050600a83611719565b915061105b565b60008167ffffffffffffffff81111561109c5761109c611262565b6040519080825280601f01601f1916602001820160405280156110c6576020820181803683370190505b5090505b8415610840576110db6001836114db565b91506110e8600a8661172d565b6110f39060306114ee565b60f81b81838151811061110857611108611741565b60200101906001600160f81b031916908160001a90535061112a600a86611719565b94506110ca565b6001600160e01b03198116811461071957600080fd5b60006020828403121561115957600080fd5b8135610ee781611131565b60005b8381101561117f578181015183820152602001611167565b50506000910152565b600081518084526111a0816020860160208601611164565b601f01601f19169290920160200192915050565b602081526000610ee76020830184611188565b6000602082840312156111d957600080fd5b5035919050565b80356001600160a01b03811681146111f757600080fd5b919050565b6000806040838503121561120f57600080fd5b611218836111e0565b946020939093013593505050565b60008060006060848603121561123b57600080fd5b611244846111e0565b9250611252602085016111e0565b9150604084013590509250925092565b634e487b7160e01b600052604160045260246000fd5b600067ffffffffffffffff8084111561129357611293611262565b604051601f8501601f19908116603f011681019082821181831017156112bb576112bb611262565b816040528093508581528686860111156112d457600080fd5b858560208301376000602087830101525050509392505050565b60006020828403121561130057600080fd5b813567ffffffffffffffff81111561131757600080fd5b8201601f8101841361132857600080fd5b61084084823560208401611278565b60006020828403121561134957600080fd5b610ee7826111e0565b6000806040838503121561136557600080fd5b61136e836111e0565b91506020830135801515811461138357600080fd5b809150509250929050565b600080600080608085870312156113a457600080fd5b6113ad856111e0565b93506113bb602086016111e0565b925060408501359150606085013567ffffffffffffffff8111156113de57600080fd5b8501601f810187136113ef57600080fd5b6113fe87823560208401611278565b91505092959194509250565b6000806040838503121561141d57600080fd5b611426836111e0565b9150611434602084016111e0565b90509250929050565b600181811c9082168061145157607f821691505b60208210810361147157634e487b7160e01b600052602260045260246000fd5b50919050565b6020808252602e908201527f4552433732313a2063616c6c6572206973206e6f7420746f6b656e206f776e6560408201526d1c881b9bdc88185c1c1c9bdd995960921b606082015260800190565b634e487b7160e01b600052601160045260246000fd5b818103818111156102c6576102c66114c5565b808201808211156102c6576102c66114c5565b601f82111561049a57600081815260208120601f850160051c810160208610156115285750805b601f850160051c820191505b8181101561154757828155600101611534565b505050505050565b815167ffffffffffffffff81111561156957611569611262565b61157d81611577845461143d565b84611501565b602080601f8311600181146115b2576000841561159a5750858301515b600019600386901b1c1916600185901b178555611547565b600085815260208120601f198616915b828110156115e1578886015182559484019460019091019084016115c2565b50858210156115ff5787850151600019600388901b60f8161c191681555b5050505050600190811b01905550565b60208082526032908201527f4552433732313a207472616e7366657220746f206e6f6e20455243373231526560408201527131b2b4bb32b91034b6b83632b6b2b73a32b960711b606082015260800190565b60008351611673818460208801611164565b835190830190611687818360208801611164565b01949350505050565b6001600160a01b03858116825284166020820152604081018390526080606082018190526000906116c390830184611188565b9695505050505050565b6000602082840312156116df57600080fd5b8151610ee781611131565b6000600182016116fc576116fc6114c5565b5060010190565b634e487b7160e01b600052601260045260246000fd5b60008261172857611728611703565b500490565b60008261173c5761173c611703565b500690565b634e487b7160e01b600052603260045260246000fdfea26469706673582212201a96c2b81d3dc1da8d10b66b6a0524ab386c42c7f5b2335ba0d1c0b634abe87b64736f6c63430008110033a264697066735822122038de57de7ebe5b4c1e1a325e6c3a9b7add18c9be1ff357f04c4daab6f1aef45364736f6c63430008110033",
  "linkReferences": {},
  "deployedLinkReferences": {}
}