{
  "_format": "hh-sol-artifact-1",
  "contractName": "DockHackDiary",
  "sourceName": "contracts/DockHackDiary.sol",
  "abi": [
    {
      "inputs": [],
      "stateMutability": "nonpayable",
      "type": "constructor"
    },
    {
      "anonymous": false,
      "inputs": [
        {
          "indexed": false,
          "internalType": "uint256",
          "name": "amount",
          "type": "uint256"
        },
        {
          "indexed": false,
          "internalType": "address",
          "name": "recipient",
          "type": "address"
        },
        {
          "indexed": false,
          "internalType": "uint256",
          "name": "balance",
          "type": "uint256"
        }
      ],
      "name": "HasWithdrawn",
      "type": "event"
    },
    {
      "anonymous": false,
      "inputs": [
        {
          "indexed": true,
          "internalType": "address",
          "name": "previousOwner",
          "type": "address"
        },
        {
          "indexed": true,
          "internalType": "address",
          "name": "newOwner",
          "type": "address"
        }
      ],
      "name": "OwnershipTransferred",
      "type": "event"
    },
    {
      "stateMutability": "payable",
      "type": "fallback"
    },
    {
      "inputs": [
        {
          "internalType": "uint256",
          "name": "mintPrice",
          "type": "uint256"
        },
        {
          "internalType": "uint256",
          "name": "maxSupply",
          "type": "uint256"
        },
        {
          "internalType": "string",
          "name": "uri",
          "type": "string"
        }
      ],
      "name": "createNftContract",
      "outputs": [],
      "stateMutability": "payable",
      "type": "function"
    },
    {
      "inputs": [],
      "name": "getAllPosts",
      "outputs": [
        {
          "components": [
            {
              "internalType": "address",
              "name": "sender",
              "type": "address"
            },
            {
              "internalType": "string",
              "name": "title",
              "type": "string"
            },
            {
              "internalType": "string",
              "name": "text",
              "type": "string"
            },
            {
              "internalType": "uint256",
              "name": "replyTo",
              "type": "uint256"
            },
            {
              "internalType": "uint256",
              "name": "timestamp",
              "type": "uint256"
            }
          ],
          "internalType": "struct IDockHackDiary.Post[]",
          "name": "",
          "type": "tuple[]"
        }
      ],
      "stateMutability": "view",
      "type": "function"
    },
    {
      "inputs": [
        {
          "internalType": "address",
          "name": "e",
          "type": "address"
        }
      ],
      "name": "getEoaToContract",
      "outputs": [
        {
          "internalType": "address",
          "name": "",
          "type": "address"
        }
      ],
      "stateMutability": "view",
      "type": "function"
    },
    {
      "inputs": [],
      "name": "getFee",
      "outputs": [
        {
          "internalType": "uint256",
          "name": "",
          "type": "uint256"
        }
      ],
      "stateMutability": "view",
      "type": "function"
    },
    {
      "inputs": [
        {
          "internalType": "uint256",
          "name": "pId",
          "type": "uint256"
        }
      ],
      "name": "getPostForPId",
      "outputs": [
        {
          "components": [
            {
              "internalType": "address",
              "name": "sender",
              "type": "address"
            },
            {
              "internalType": "string",
              "name": "title",
              "type": "string"
            },
            {
              "internalType": "string",
              "name": "text",
              "type": "string"
            },
            {
              "internalType": "uint256",
              "name": "replyTo",
              "type": "uint256"
            },
            {
              "internalType": "uint256",
              "name": "timestamp",
              "type": "uint256"
            }
          ],
          "internalType": "struct IDockHackDiary.Post",
          "name": "",
          "type": "tuple"
        }
      ],
      "stateMutability": "view",
      "type": "function"
    },
    {
      "inputs": [],
      "name": "owner",
      "outputs": [
        {
          "internalType": "address",
          "name": "",
          "type": "address"
        }
      ],
      "stateMutability": "view",
      "type": "function"
    },
    {
      "inputs": [],
      "name": "renounceOwnership",
      "outputs": [],
      "stateMutability": "nonpayable",
      "type": "function"
    },
    {
      "inputs": [
        {
          "internalType": "address",
          "name": "c",
          "type": "address"
        }
      ],
      "name": "setEoaToContract",
      "outputs": [],
      "stateMutability": "nonpayable",
      "type": "function"
    },
    {
      "inputs": [
        {
          "internalType": "uint256",
          "name": "newFee",
          "type": "uint256"
        }
      ],
      "name": "setFee",
      "outputs": [],
      "stateMutability": "nonpayable",
      "type": "function"
    },
    {
      "inputs": [
        {
          "internalType": "string",
          "name": "title",
          "type": "string"
        },
        {
          "internalType": "string",
          "name": "text",
          "type": "string"
        },
        {
          "internalType": "uint256",
          "name": "replyTo",
          "type": "uint256"
        }
      ],
      "name": "setPost",
      "outputs": [],
      "stateMutability": "nonpayable",
      "type": "function"
    },
    {
      "inputs": [
        {
          "internalType": "address",
          "name": "newOwner",
          "type": "address"
        }
      ],
      "name": "transferOwnership",
      "outputs": [],
      "stateMutability": "nonpayable",
      "type": "function"
    },
    {
      "inputs": [
        {
          "internalType": "uint256",
          "name": "amount",
          "type": "uint256"
        },
        {
          "internalType": "address",
          "name": "recipient",
          "type": "address"
        }
      ],
      "name": "withdraw",
      "outputs": [],
      "stateMutability": "nonpayable",
      "type": "function"
    },
    {
      "stateMutability": "payable",
      "type": "receive"
    }
  ],
  "bytecode": "0x608060405234801561001057600080fd5b5061001a33610029565b655af3107a4000600255610079565b600080546001600160a01b038381166001600160a01b0319831681178455604051919092169283917f8be0079c531659141344cd1fd0a4f28419497f9722a3daafe3b4186f6b6457e09190a35050565b613594806100886000396000f3fe608060405260043610620000b25760003560e01c80638da5cb5b11620000695780638da5cb5b14620001c95780638e1bb16914620001e95780639770de27146200020e578063ced72f871462000242578063f2fde38b1462000262578063f5d23324146200028757005b8062f714ce14620000bc5780633056110014620000e15780633ca68936146200011157806369fe0e2d146200016757806370625cfd146200018c578063715018a614620001b157005b36620000ba57005b005b348015620000c957600080fd5b50620000ba620000db36600462000aa8565b6200029e565b348015620000ee57600080fd5b50620000f962000392565b60405162000108919062000b84565b60405180910390f35b3480156200011e57600080fd5b506200014e6200013036600462000bea565b6001600160a01b039081166000908152600460205260409020541690565b6040516001600160a01b03909116815260200162000108565b3480156200017457600080fd5b50620000ba6200018636600462000c0f565b620005e2565b3480156200019957600080fd5b50620000ba620001ab36600462000cd4565b620005f1565b348015620001be57600080fd5b50620000ba620006ac565b348015620001d657600080fd5b506000546001600160a01b03166200014e565b348015620001f657600080fd5b50620000ba6200020836600462000bea565b620006c4565b3480156200021b57600080fd5b50620002336200022d36600462000c0f565b620006f3565b60405162000108919062000d48565b3480156200024f57600080fd5b5060025460405190815260200162000108565b3480156200026f57600080fd5b50620000ba6200028136600462000bea565b62000878565b620000ba6200029836600462000d5d565b620008f7565b620002a862000999565b478211156200030f5760405162461bcd60e51b815260206004820152602860248201527f596f75722072657175657374696e6720616d6f756e74206973206f76657220746044820152673932b0b9bab93c9760c11b60648201526084015b60405180910390fd5b6040516001600160a01b0382169083156108fc029084906000818181858888f1935050505015801562000346573d6000803e3d6000fd5b50604080518381526001600160a01b0383166020820152478183015290517f62d31968529bc5b114248358bffc64313a2d23c1df1caa5be36ba1f8202204199181900360600190a15050565b60606000620003a060015490565b90506000808267ffffffffffffffff811115620003c157620003c162000c29565b604051908082528060200260200182016040528015620003fe57816020015b620003ea62000a45565b815260200190600190039081620003e05790505b50905060005b83811015620005da57600360006200041e83600162000dc7565b81526020808201929092526040908101600020815160a0810190925280546001600160a01b031682526001810180549293919291840191620004609062000de3565b80601f01602080910402602001604051908101604052809291908181526020018280546200048e9062000de3565b8015620004df5780601f10620004b357610100808354040283529160200191620004df565b820191906000526020600020905b815481529060010190602001808311620004c157829003601f168201915b50505050508152602001600282018054620004fa9062000de3565b80601f0160208091040260200160405190810160405280929190818152602001828054620005289062000de3565b8015620005795780601f106200054d5761010080835404028352916020019162000579565b820191906000526020600020905b8154815290600101906020018083116200055b57829003601f168201915b5050505050815260200160038201548152602001600482015481525050828481518110620005ab57620005ab62000e1f565b6020908102919091010152620005c360018462000dc7565b925080620005d18162000e35565b91505062000404565b509392505050565b620005ec62000999565b600255565b62000600600180546001019055565b60006200060c60015490565b6040805160a08101825233815260208082018881528284018890526060830187905242608084015260008581526003909252929020815181546001600160a01b0319166001600160a01b03909116178155915192935091829190600182019062000677908262000ea4565b50604082015160028201906200068e908262000ea4565b50606082015160038201556080909101516004909101555050505050565b620006b662000999565b620006c26000620009f5565b565b33600090815260046020526040902080546001600160a01b0319166001600160a01b0392909216919091179055565b620006fd62000a45565b600082815260036020908152604091829020825160a0810190935280546001600160a01b0316835260018101805491928401916200073b9062000de3565b80601f0160208091040260200160405190810160405280929190818152602001828054620007699062000de3565b8015620007ba5780601f106200078e57610100808354040283529160200191620007ba565b820191906000526020600020905b8154815290600101906020018083116200079c57829003601f168201915b50505050508152602001600282018054620007d59062000de3565b80601f0160208091040260200160405190810160405280929190818152602001828054620008039062000de3565b8015620008545780601f10620008285761010080835404028352916020019162000854565b820191906000526020600020905b8154815290600101906020018083116200083657829003601f168201915b50505050508152602001600382015481526020016004820154815250509050919050565b6200088262000999565b6001600160a01b038116620008e95760405162461bcd60e51b815260206004820152602660248201527f4f776e61626c653a206e6577206f776e657220697320746865207a65726f206160448201526564647265737360d01b606482015260840162000306565b620008f481620009f5565b50565b6002543414620009435760405162461bcd60e51b81526020600482015260166024820152751b5cd9c81d985b1d59481a5cc81a5b98dbdc9c9958dd60521b604482015260640162000306565b600083833384604051620009579062000a7d565b62000966949392919062000f71565b604051809103906000f08015801562000983573d6000803e3d6000fd5b509050806200099281620006c4565b5050505050565b6000546001600160a01b03163314620006c25760405162461bcd60e51b815260206004820181905260248201527f4f776e61626c653a2063616c6c6572206973206e6f7420746865206f776e6572604482015260640162000306565b600080546001600160a01b038381166001600160a01b0319831681178455604051919092169283917f8be0079c531659141344cd1fd0a4f28419497f9722a3daafe3b4186f6b6457e09190a35050565b6040518060a0016040528060006001600160a01b03168152602001606081526020016060815260200160008152602001600081525090565b6125b48062000fab83390190565b80356001600160a01b038116811462000aa357600080fd5b919050565b6000806040838503121562000abc57600080fd5b8235915062000ace6020840162000a8b565b90509250929050565b6000815180845260005b8181101562000aff5760208185018101518683018201520162000ae1565b506000602082860101526020601f19601f83011685010191505092915050565b60018060a01b0381511682526000602082015160a0602085015262000b4860a085018262000ad7565b90506040830151848203604086015262000b63828262000ad7565b91505060608301516060850152608083015160808501528091505092915050565b6000602080830181845280855180835260408601915060408160051b870101925083870160005b8281101562000bdd57603f1988860301845262000bca85835162000b1f565b9450928501929085019060010162000bab565b5092979650505050505050565b60006020828403121562000bfd57600080fd5b62000c088262000a8b565b9392505050565b60006020828403121562000c2257600080fd5b5035919050565b634e487b7160e01b600052604160045260246000fd5b600082601f83011262000c5157600080fd5b813567ffffffffffffffff8082111562000c6f5762000c6f62000c29565b604051601f8301601f19908116603f0116810190828211818310171562000c9a5762000c9a62000c29565b8160405283815286602085880101111562000cb457600080fd5b836020870160208301376000602085830101528094505050505092915050565b60008060006060848603121562000cea57600080fd5b833567ffffffffffffffff8082111562000d0357600080fd5b62000d118783880162000c3f565b9450602086013591508082111562000d2857600080fd5b5062000d378682870162000c3f565b925050604084013590509250925092565b60208152600062000c08602083018462000b1f565b60008060006060848603121562000d7357600080fd5b8335925060208401359150604084013567ffffffffffffffff81111562000d9957600080fd5b62000da78682870162000c3f565b9150509250925092565b634e487b7160e01b600052601160045260246000fd5b8082018082111562000ddd5762000ddd62000db1565b92915050565b600181811c9082168062000df857607f821691505b60208210810362000e1957634e487b7160e01b600052602260045260246000fd5b50919050565b634e487b7160e01b600052603260045260246000fd5b60006001820162000e4a5762000e4a62000db1565b5060010190565b601f82111562000e9f57600081815260208120601f850160051c8101602086101562000e7a5750805b601f850160051c820191505b8181101562000e9b5782815560010162000e86565b5050505b505050565b815167ffffffffffffffff81111562000ec15762000ec162000c29565b62000ed98162000ed2845462000de3565b8462000e51565b602080601f83116001811462000f11576000841562000ef85750858301515b600019600386901b1c1916600185901b17855562000e9b565b600085815260208120601f198616915b8281101562000f425788860151825594840194600190910190840162000f21565b508582101562000f615787850151600019600388901b60f8161c191681555b5050505050600190811b01905550565b84815283602082015260018060a01b038316604082015260806060820152600062000fa0608083018462000ad7565b969550505050505056fe60806040523480156200001157600080fd5b50604051620025b4380380620025b4833981016040819052620000349162000157565b6040518060400160405280600781526020016626bcaa37b5b2b760c91b815250604051806040016040528060038152602001624d544b60e81b8152508160009081620000819190620002f0565b506001620000908282620002f0565b505050620000ad620000a7620000eb60201b60201c565b620000ef565b6008849055600a839055600e80546001600160a01b0319166001600160a01b0384161790556009620000e08282620002f0565b5050505050620003bc565b3390565b600780546001600160a01b038381166001600160a01b0319831681179093556040519116919082907f8be0079c531659141344cd1fd0a4f28419497f9722a3daafe3b4186f6b6457e090600090a35050565b634e487b7160e01b600052604160045260246000fd5b600080600080608085870312156200016e57600080fd5b845160208087015160408801519296509450906001600160a01b03811681146200019757600080fd5b60608701519093506001600160401b0380821115620001b557600080fd5b818801915088601f830112620001ca57600080fd5b815181811115620001df57620001df62000141565b604051601f8201601f19908116603f011681019083821181831017156200020a576200020a62000141565b816040528281528b868487010111156200022357600080fd5b600093505b8284101562000247578484018601518185018701529285019262000228565b600086848301015280965050505050505092959194509250565b600181811c908216806200027657607f821691505b6020821081036200029757634e487b7160e01b600052602260045260246000fd5b50919050565b601f821115620002eb57600081815260208120601f850160051c81016020861015620002c65750805b601f850160051c820191505b81811015620002e757828155600101620002d2565b5050505b505050565b81516001600160401b038111156200030c576200030c62000141565b62000324816200031d845462000261565b846200029d565b602080601f8311600181146200035c5760008415620003435750858301515b600019600386901b1c1916600185901b178555620002e7565b600085815260208120601f198616915b828110156200038d578886015182559484019460019091019084016200036c565b5085821015620003ac5787850151600019600388901b60f8161c191681555b5050505050600190811b01905550565b6121e880620003cc6000396000f3fe60806040526004361061018a5760003560e01c80636f8b44b0116100e0578063a22cb46511610084578063b8b768ea11610061578063b8b768ea14610466578063c87b56dd14610493578063e985e9c5146104b3578063f2fde38b146104d357005b8063a22cb46514610406578063b5a43e5214610426578063b88d4fde1461044657005b80638da5cb5b116100bd5780638da5cb5b1461039e57806391b7f5ed146103bc57806395d89b41146103dc57806398d5fdca146103f157005b80636f8b44b01461034957806370a0823114610369578063715018a61461038957005b806323b872dd116101475780634c0f38c2116101245780634c0f38c2146102e057806353f5e380146102ff5780636352211e146103215780636871ee401461034157005b806323b872dd146102805780633f516018146102a057806342842e0e146102c057005b8062f714ce1461019357806301ffc9a7146101b357806306fdde03146101e8578063081812fc1461020a578063095ea7b3146102425780630ee2cb101461026257005b3661019157005b005b34801561019f57600080fd5b506101916101ae366004611a8d565b6104f3565b3480156101bf57600080fd5b506101d36101ce366004611acf565b6105e3565b60405190151581526020015b60405180910390f35b3480156101f457600080fd5b506101fd610635565b6040516101df9190611b3c565b34801561021657600080fd5b5061022a610225366004611b4f565b6106c7565b6040516001600160a01b0390911681526020016101df565b34801561024e57600080fd5b5061019161025d366004611b68565b6106ee565b34801561026e57600080fd5b50600e546001600160a01b031661022a565b34801561028c57600080fd5b5061019161029b366004611b92565b610803565b3480156102ac57600080fd5b506101916102bb366004611bce565b610834565b3480156102cc57600080fd5b506101916102db366004611b92565b610880565b3480156102ec57600080fd5b50600a545b6040519081526020016101df565b34801561030b57600080fd5b5061031461089b565b6040516101df9190611c24565b34801561032d57600080fd5b5061022a61033c366004611b4f565b610a61565b610191610ac1565b34801561035557600080fd5b50610191610364366004611b4f565b610c38565b34801561037557600080fd5b506102f1610384366004611bce565b610c67565b34801561039557600080fd5b50610191610ced565b3480156103aa57600080fd5b506007546001600160a01b031661022a565b3480156103c857600080fd5b506101916103d7366004611b4f565b610d01565b3480156103e857600080fd5b506101fd610d30565b3480156103fd57600080fd5b506008546102f1565b34801561041257600080fd5b50610191610421366004611c86565b610d3f565b34801561043257600080fd5b50610191610441366004611d4e565b610d4e565b34801561045257600080fd5b50610191610461366004611d97565b610db8565b34801561047257600080fd5b50610486610481366004611b4f565b610df0565b6040516101df9190611e13565b34801561049f57600080fd5b506101fd6104ae366004611b4f565b610ec7565b3480156104bf57600080fd5b506101d36104ce366004611e26565b610ed2565b3480156104df57600080fd5b506101916104ee366004611bce565b610f00565b6104fb610f76565b478211156105615760405162461bcd60e51b815260206004820152602860248201527f596f75722072657175657374696e6720616d6f756e74206973206f76657220746044820152673932b0b9bab93c9760c11b60648201526084015b60405180910390fd5b6040516001600160a01b0382169083156108fc029084906000818181858888f19350505050158015610597573d6000803e3d6000fd5b50604080518381526001600160a01b0383166020820152478183015290517f62d31968529bc5b114248358bffc64313a2d23c1df1caa5be36ba1f8202204199181900360600190a15050565b60006001600160e01b031982166380ac58cd60e01b148061061457506001600160e01b03198216635b5e139f60e01b145b8061062f57506301ffc9a760e01b6001600160e01b03198316145b92915050565b60606000805461064490611e50565b80601f016020809104026020016040519081016040528092919081815260200182805461067090611e50565b80156106bd5780601f10610692576101008083540402835291602001916106bd565b820191906000526020600020905b8154815290600101906020018083116106a057829003601f168201915b5050505050905090565b60006106d282610fd0565b506000908152600460205260409020546001600160a01b031690565b60006106f982610a61565b9050806001600160a01b0316836001600160a01b0316036107665760405162461bcd60e51b815260206004820152602160248201527f4552433732313a20617070726f76616c20746f2063757272656e74206f776e656044820152603960f91b6064820152608401610558565b336001600160a01b038216148061078257506107828133610ed2565b6107f45760405162461bcd60e51b815260206004820152603e60248201527f4552433732313a20617070726f76652063616c6c6572206973206e6f7420746f60448201527f6b656e206f776e6572206e6f7220617070726f76656420666f7220616c6c00006064820152608401610558565b6107fe838361102f565b505050565b61080d338261109d565b6108295760405162461bcd60e51b815260040161055890611e8a565b6107fe8383836110fc565b600e546001600160a01b0316331461085e5760405162461bcd60e51b815260040161055890611ed8565b600e80546001600160a01b0319166001600160a01b0392909216919091179055565b6107fe83838360405180602001604052806000815250610db8565b60606000806108a9600c5490565b90506108b4600c5490565b6000036108f45760408051600080825260208201909252906108ec565b6108d9611a47565b8152602001906001900390816108d15790505b509250505090565b60008167ffffffffffffffff81111561090f5761090f611cc2565b60405190808252806020026020018201604052801561094857816020015b610935611a47565b81526020019060019003908161092d5790505b50905060015b828111610a59576000818152600d602090815260409182902082516060810190935280546001600160a01b03168352600181018054919284019161099190611e50565b80601f01602080910402602001604051908101604052809291908181526020018280546109bd90611e50565b8015610a0a5780601f106109df57610100808354040283529160200191610a0a565b820191906000526020600020905b8154815290600101906020018083116109ed57829003601f168201915b50505050508152602001600282015481525050828581518110610a2f57610a2f611f20565b6020908102919091010152610a45600185611f4c565b935080610a5181611f5f565b91505061094e565b509392505050565b6000818152600260205260408120546001600160a01b03168061062f5760405162461bcd60e51b8152602060048201526018602482015277115490cdcc8c4e881a5b9d985b1a59081d1bdad95b88125160421b6044820152606401610558565b6008543414610b125760405162461bcd60e51b815260206004820152601b60248201527f596f7572206d73672076616c756520697320696e636f727265637400000000006044820152606401610558565b6000610b1d600b5490565b9050600a54811115610b895760405162461bcd60e51b815260206004820152602f60248201527f546865206e756d626572206f66206d696e746564204e4654206861732072656160448201526e63686564206d617820737570706c7960881b6064820152608401610558565b610b97600b80546001019055565b610ba13382611298565b610c358160098054610bb290611e50565b80601f0160208091040260200160405190810160405280929190818152602001828054610bde90611e50565b8015610c2b5780601f10610c0057610100808354040283529160200191610c2b565b820191906000526020600020905b815481529060010190602001808311610c0e57829003601f168201915b50505050506112b2565b50565b600e546001600160a01b03163314610c625760405162461bcd60e51b815260040161055890611ed8565b600a55565b60006001600160a01b038216610cd15760405162461bcd60e51b815260206004820152602960248201527f4552433732313a2061646472657373207a65726f206973206e6f7420612076616044820152683634b21037bbb732b960b91b6064820152608401610558565b506001600160a01b031660009081526003602052604090205490565b610cf5610f76565b610cff6000611345565b565b600e546001600160a01b03163314610d2b5760405162461bcd60e51b815260040161055890611ed8565b600855565b60606001805461064490611e50565b610d4a338383611397565b5050565b600e546001600160a01b03163314610daf576001610d6b33610c67565b1015610daf5760405162461bcd60e51b8152602060048201526013602482015272165bdd48191bc81b9bdd081a185d99481b999d606a1b6044820152606401610558565b610c3581611465565b610dc2338361109d565b610dde5760405162461bcd60e51b815260040161055890611e8a565b610dea84848484611521565b50505050565b610df8611a47565b6000828152600d602090815260409182902082516060810190935280546001600160a01b031683526001810180549192840191610e3490611e50565b80601f0160208091040260200160405190810160405280929190818152602001828054610e6090611e50565b8015610ead5780601f10610e8257610100808354040283529160200191610ead565b820191906000526020600020905b815481529060010190602001808311610e9057829003601f168201915b505050505081526020016002820154815250509050919050565b606061062f82611554565b6001600160a01b03918216600090815260056020908152604080832093909416825291909152205460ff1690565b610f08610f76565b6001600160a01b038116610f6d5760405162461bcd60e51b815260206004820152602660248201527f4f776e61626c653a206e6577206f776e657220697320746865207a65726f206160448201526564647265737360d01b6064820152608401610558565b610c3581611345565b6007546001600160a01b03163314610cff5760405162461bcd60e51b815260206004820181905260248201527f4f776e61626c653a2063616c6c6572206973206e6f7420746865206f776e65726044820152606401610558565b6000818152600260205260409020546001600160a01b0316610c355760405162461bcd60e51b8152602060048201526018602482015277115490cdcc8c4e881a5b9d985b1a59081d1bdad95b88125160421b6044820152606401610558565b600081815260046020526040902080546001600160a01b0319166001600160a01b038416908117909155819061106482610a61565b6001600160a01b03167f8c5be1e5ebec7d5bd14f71427d1e84f3dd0314c0f7b2291e5b200ac8c7c3b92560405160405180910390a45050565b6000806110a983610a61565b9050806001600160a01b0316846001600160a01b031614806110d057506110d08185610ed2565b806110f45750836001600160a01b03166110e9846106c7565b6001600160a01b0316145b949350505050565b826001600160a01b031661110f82610a61565b6001600160a01b0316146111735760405162461bcd60e51b815260206004820152602560248201527f4552433732313a207472616e736665722066726f6d20696e636f72726563742060448201526437bbb732b960d91b6064820152608401610558565b6001600160a01b0382166111d55760405162461bcd60e51b8152602060048201526024808201527f4552433732313a207472616e7366657220746f20746865207a65726f206164646044820152637265737360e01b6064820152608401610558565b6111e060008261102f565b6001600160a01b0383166000908152600360205260408120805460019290611209908490611f78565b90915550506001600160a01b0382166000908152600360205260408120805460019290611237908490611f4c565b909155505060008181526002602052604080822080546001600160a01b0319166001600160a01b0386811691821790925591518493918716917fddf252ad1be2c89b69c2b068fc378daa952ba7f163c4a11628f55a4df523b3ef91a4505050565b610d4a82826040518060200160405280600081525061165c565b6000828152600260205260409020546001600160a01b031661132d5760405162461bcd60e51b815260206004820152602e60248201527f45524337323155524953746f726167653a2055524920736574206f66206e6f6e60448201526d32bc34b9ba32b73a103a37b5b2b760911b6064820152608401610558565b60008281526006602052604090206107fe8282611fd9565b600780546001600160a01b038381166001600160a01b0319831681179093556040519116919082907f8be0079c531659141344cd1fd0a4f28419497f9722a3daafe3b4186f6b6457e090600090a35050565b816001600160a01b0316836001600160a01b0316036113f85760405162461bcd60e51b815260206004820152601960248201527f4552433732313a20617070726f766520746f2063616c6c6572000000000000006044820152606401610558565b6001600160a01b03838116600081815260056020908152604080832094871680845294825291829020805460ff191686151590811790915591519182527f17307eab39ab6107e8899845ad3d59bd9653f200f220920489ca2b5937696c31910160405180910390a3505050565b611473600c80546001019055565b600061147e600c5490565b60408051606081018252338152602080820186815242838501526000858152600d909252929020815181546001600160a01b0319166001600160a01b0390911617815591519293509160018201906114d69082611fd9565b5060409182015160029091015551339082907f3e1d52f9ee9b009659ccf70171749f40d1a6138fd18c4f4daef9e79fdafc3f1f90611515908690611b3c565b60405180910390a35050565b61152c8484846110fc565b6115388484848461168f565b610dea5760405162461bcd60e51b815260040161055890612099565b606061155f82610fd0565b6000828152600660205260408120805461157890611e50565b80601f01602080910402602001604051908101604052809291908181526020018280546115a490611e50565b80156115f15780601f106115c6576101008083540402835291602001916115f1565b820191906000526020600020905b8154815290600101906020018083116115d457829003601f168201915b50505050509050600061160f60408051602081019091526000815290565b90508051600003611621575092915050565b81511561165357808260405160200161163b9291906120eb565b60405160208183030381529060405292505050919050565b6110f484611790565b6116668383611804565b611673600084848461168f565b6107fe5760405162461bcd60e51b815260040161055890612099565b60006001600160a01b0384163b1561178557604051630a85bd0160e11b81526001600160a01b0385169063150b7a02906116d390339089908890889060040161211a565b6020604051808303816000875af192505050801561170e575060408051601f3d908101601f1916820190925261170b91810190612157565b60015b61176b573d80801561173c576040519150601f19603f3d011682016040523d82523d6000602084013e611741565b606091505b5080516000036117635760405162461bcd60e51b815260040161055890612099565b805181602001fd5b6001600160e01b031916630a85bd0160e11b1490506110f4565b506001949350505050565b606061179b82610fd0565b60006117b260408051602081019091526000815290565b905060008151116117d257604051806020016040528060008152506117fd565b806117dc84611946565b6040516020016117ed9291906120eb565b6040516020818303038152906040525b9392505050565b6001600160a01b03821661185a5760405162461bcd60e51b815260206004820181905260248201527f4552433732313a206d696e7420746f20746865207a65726f20616464726573736044820152606401610558565b6000818152600260205260409020546001600160a01b0316156118bf5760405162461bcd60e51b815260206004820152601c60248201527f4552433732313a20746f6b656e20616c7265616479206d696e746564000000006044820152606401610558565b6001600160a01b03821660009081526003602052604081208054600192906118e8908490611f4c565b909155505060008181526002602052604080822080546001600160a01b0319166001600160a01b03861690811790915590518392907fddf252ad1be2c89b69c2b068fc378daa952ba7f163c4a11628f55a4df523b3ef908290a45050565b60608160000361196d5750506040805180820190915260018152600360fc1b602082015290565b8160005b8115611997578061198181611f5f565b91506119909050600a8361218a565b9150611971565b60008167ffffffffffffffff8111156119b2576119b2611cc2565b6040519080825280601f01601f1916602001820160405280156119dc576020820181803683370190505b5090505b84156110f4576119f1600183611f78565b91506119fe600a8661219e565b611a09906030611f4c565b60f81b818381518110611a1e57611a1e611f20565b60200101906001600160f81b031916908160001a905350611a40600a8661218a565b94506119e0565b604051806060016040528060006001600160a01b0316815260200160608152602001600081525090565b80356001600160a01b0381168114611a8857600080fd5b919050565b60008060408385031215611aa057600080fd5b82359150611ab060208401611a71565b90509250929050565b6001600160e01b031981168114610c3557600080fd5b600060208284031215611ae157600080fd5b81356117fd81611ab9565b60005b83811015611b07578181015183820152602001611aef565b50506000910152565b60008151808452611b28816020860160208601611aec565b601f01601f19169290920160200192915050565b6020815260006117fd6020830184611b10565b600060208284031215611b6157600080fd5b5035919050565b60008060408385031215611b7b57600080fd5b611b8483611a71565b946020939093013593505050565b600080600060608486031215611ba757600080fd5b611bb084611a71565b9250611bbe60208501611a71565b9150604084013590509250925092565b600060208284031215611be057600080fd5b6117fd82611a71565b60018060a01b0381511682526000602082015160606020850152611c106060850182611b10565b604093840151949093019390935250919050565b6000602080830181845280855180835260408601915060408160051b870101925083870160005b82811015611c7957603f19888603018452611c67858351611be9565b94509285019290850190600101611c4b565b5092979650505050505050565b60008060408385031215611c9957600080fd5b611ca283611a71565b915060208301358015158114611cb757600080fd5b809150509250929050565b634e487b7160e01b600052604160045260246000fd5b600067ffffffffffffffff80841115611cf357611cf3611cc2565b604051601f8501601f19908116603f01168101908282118183101715611d1b57611d1b611cc2565b81604052809350858152868686011115611d3457600080fd5b858560208301376000602087830101525050509392505050565b600060208284031215611d6057600080fd5b813567ffffffffffffffff811115611d7757600080fd5b8201601f81018413611d8857600080fd5b6110f484823560208401611cd8565b60008060008060808587031215611dad57600080fd5b611db685611a71565b9350611dc460208601611a71565b925060408501359150606085013567ffffffffffffffff811115611de757600080fd5b8501601f81018713611df857600080fd5b611e0787823560208401611cd8565b91505092959194509250565b6020815260006117fd6020830184611be9565b60008060408385031215611e3957600080fd5b611e4283611a71565b9150611ab060208401611a71565b600181811c90821680611e6457607f821691505b602082108103611e8457634e487b7160e01b600052602260045260246000fd5b50919050565b6020808252602e908201527f4552433732313a2063616c6c6572206973206e6f7420746f6b656e206f776e6560408201526d1c881b9bdc88185c1c1c9bdd995960921b606082015260800190565b60208082526028908201527f796f7520617265206e6f74207468652063726561746f72206f6620746869732060408201526718dbdb9d1c9858dd60c21b606082015260800190565b634e487b7160e01b600052603260045260246000fd5b634e487b7160e01b600052601160045260246000fd5b8082018082111561062f5761062f611f36565b600060018201611f7157611f71611f36565b5060010190565b8181038181111561062f5761062f611f36565b601f8211156107fe57600081815260208120601f850160051c81016020861015611fb25750805b601f850160051c820191505b81811015611fd157828155600101611fbe565b505050505050565b815167ffffffffffffffff811115611ff357611ff3611cc2565b612007816120018454611e50565b84611f8b565b602080601f83116001811461203c57600084156120245750858301515b600019600386901b1c1916600185901b178555611fd1565b600085815260208120601f198616915b8281101561206b5788860151825594840194600190910190840161204c565b50858210156120895787850151600019600388901b60f8161c191681555b5050505050600190811b01905550565b60208082526032908201527f4552433732313a207472616e7366657220746f206e6f6e20455243373231526560408201527131b2b4bb32b91034b6b83632b6b2b73a32b960711b606082015260800190565b600083516120fd818460208801611aec565b835190830190612111818360208801611aec565b01949350505050565b6001600160a01b038581168252841660208201526040810183905260806060820181905260009061214d90830184611b10565b9695505050505050565b60006020828403121561216957600080fd5b81516117fd81611ab9565b634e487b7160e01b600052601260045260246000fd5b60008261219957612199612174565b500490565b6000826121ad576121ad612174565b50069056fea2646970667358221220749ef9008f3da3510861d0c7dc7ab156676cda2e025ebbbec534e369fdefe59b64736f6c63430008110033a2646970667358221220492c4ff0091cebdead8a2f6a950e8e4706d3decef480c8acc2037ef2886f44c864736f6c63430008110033",
  "linkReferences": {},
  "deployedLinkReferences": {}
}