{
  "_format": "hh-sol-artifact-1",
  "contractName": "ArchiveCoin",
  "sourceName": "contracts/ArchiveCoin.sol",
  "abi": [
    {
      "inputs": [],
      "stateMutability": "nonpayable",
      "type": "constructor"
    },
    {
      "anonymous": false,
      "inputs": [
        {
          "indexed": true,
          "internalType": "address",
          "name": "owner",
          "type": "address"
        },
        {
          "indexed": true,
          "internalType": "address",
          "name": "spender",
          "type": "address"
        },
        {
          "indexed": false,
          "internalType": "uint256",
          "name": "value",
          "type": "uint256"
        }
      ],
      "name": "Approval",
      "type": "event"
    },
    {
      "anonymous": false,
      "inputs": [
        {
          "indexed": true,
          "internalType": "address",
          "name": "delegator",
          "type": "address"
        },
        {
          "indexed": true,
          "internalType": "address",
          "name": "fromDelegate",
          "type": "address"
        },
        {
          "indexed": true,
          "internalType": "address",
          "name": "toDelegate",
          "type": "address"
        }
      ],
      "name": "DelegateChanged",
      "type": "event"
    },
    {
      "anonymous": false,
      "inputs": [
        {
          "indexed": true,
          "internalType": "address",
          "name": "delegate",
          "type": "address"
        },
        {
          "indexed": false,
          "internalType": "uint256",
          "name": "previousBalance",
          "type": "uint256"
        },
        {
          "indexed": false,
          "internalType": "uint256",
          "name": "newBalance",
          "type": "uint256"
        }
      ],
      "name": "DelegateVotesChanged",
      "type": "event"
    },
    {
      "anonymous": false,
      "inputs": [
        {
          "indexed": true,
          "internalType": "address",
          "name": "previousOwner",
          "type": "address"
        },
        {
          "indexed": true,
          "internalType": "address",
          "name": "newOwner",
          "type": "address"
        }
      ],
      "name": "OwnershipTransferred",
      "type": "event"
    },
    {
      "anonymous": false,
      "inputs": [
        {
          "indexed": false,
          "internalType": "uint256",
          "name": "id",
          "type": "uint256"
        }
      ],
      "name": "Snapshot",
      "type": "event"
    },
    {
      "anonymous": false,
      "inputs": [
        {
          "indexed": true,
          "internalType": "address",
          "name": "from",
          "type": "address"
        },
        {
          "indexed": true,
          "internalType": "address",
          "name": "to",
          "type": "address"
        },
        {
          "indexed": false,
          "internalType": "uint256",
          "name": "value",
          "type": "uint256"
        }
      ],
      "name": "Transfer",
      "type": "event"
    },
    {
      "inputs": [],
      "name": "DOMAIN_SEPARATOR",
      "outputs": [
        {
          "internalType": "bytes32",
          "name": "",
          "type": "bytes32"
        }
      ],
      "stateMutability": "view",
      "type": "function"
    },
    {
      "inputs": [
        {
          "internalType": "address",
          "name": "owner",
          "type": "address"
        },
        {
          "internalType": "address",
          "name": "spender",
          "type": "address"
        }
      ],
      "name": "allowance",
      "outputs": [
        {
          "internalType": "uint256",
          "name": "",
          "type": "uint256"
        }
      ],
      "stateMutability": "view",
      "type": "function"
    },
    {
      "inputs": [
        {
          "internalType": "address",
          "name": "spender",
          "type": "address"
        },
        {
          "internalType": "uint256",
          "name": "amount",
          "type": "uint256"
        }
      ],
      "name": "approve",
      "outputs": [
        {
          "internalType": "bool",
          "name": "",
          "type": "bool"
        }
      ],
      "stateMutability": "nonpayable",
      "type": "function"
    },
    {
      "inputs": [
        {
          "internalType": "address",
          "name": "account",
          "type": "address"
        }
      ],
      "name": "balanceOf",
      "outputs": [
        {
          "internalType": "uint256",
          "name": "",
          "type": "uint256"
        }
      ],
      "stateMutability": "view",
      "type": "function"
    },
    {
      "inputs": [
        {
          "internalType": "address",
          "name": "account",
          "type": "address"
        },
        {
          "internalType": "uint256",
          "name": "snapshotId",
          "type": "uint256"
        }
      ],
      "name": "balanceOfAt",
      "outputs": [
        {
          "internalType": "uint256",
          "name": "",
          "type": "uint256"
        }
      ],
      "stateMutability": "view",
      "type": "function"
    },
    {
      "inputs": [
        {
          "internalType": "uint256",
          "name": "amount",
          "type": "uint256"
        }
      ],
      "name": "burn",
      "outputs": [],
      "stateMutability": "nonpayable",
      "type": "function"
    },
    {
      "inputs": [
        {
          "internalType": "address",
          "name": "account",
          "type": "address"
        },
        {
          "internalType": "uint256",
          "name": "amount",
          "type": "uint256"
        }
      ],
      "name": "burnFrom",
      "outputs": [],
      "stateMutability": "nonpayable",
      "type": "function"
    },
    {
      "inputs": [
        {
          "internalType": "address",
          "name": "account",
          "type": "address"
        },
        {
          "internalType": "uint32",
          "name": "pos",
          "type": "uint32"
        }
      ],
      "name": "checkpoints",
      "outputs": [
        {
          "components": [
            {
              "internalType": "uint32",
              "name": "fromBlock",
              "type": "uint32"
            },
            {
              "internalType": "uint224",
              "name": "votes",
              "type": "uint224"
            }
          ],
          "internalType": "struct ERC20Votes.Checkpoint",
          "name": "",
          "type": "tuple"
        }
      ],
      "stateMutability": "view",
      "type": "function"
    },
    {
      "inputs": [
        {
          "internalType": "uint256",
          "name": "mintPrice",
          "type": "uint256"
        }
      ],
      "name": "createNftContract",
      "outputs": [
        {
          "internalType": "contract MyToken",
          "name": "",
          "type": "address"
        }
      ],
      "stateMutability": "payable",
      "type": "function"
    },
    {
      "inputs": [],
      "name": "decimals",
      "outputs": [
        {
          "internalType": "uint8",
          "name": "",
          "type": "uint8"
        }
      ],
      "stateMutability": "view",
      "type": "function"
    },
    {
      "inputs": [
        {
          "internalType": "address",
          "name": "spender",
          "type": "address"
        },
        {
          "internalType": "uint256",
          "name": "subtractedValue",
          "type": "uint256"
        }
      ],
      "name": "decreaseAllowance",
      "outputs": [
        {
          "internalType": "bool",
          "name": "",
          "type": "bool"
        }
      ],
      "stateMutability": "nonpayable",
      "type": "function"
    },
    {
      "inputs": [
        {
          "internalType": "address",
          "name": "delegatee",
          "type": "address"
        }
      ],
      "name": "delegate",
      "outputs": [],
      "stateMutability": "nonpayable",
      "type": "function"
    },
    {
      "inputs": [
        {
          "internalType": "address",
          "name": "delegatee",
          "type": "address"
        },
        {
          "internalType": "uint256",
          "name": "nonce",
          "type": "uint256"
        },
        {
          "internalType": "uint256",
          "name": "expiry",
          "type": "uint256"
        },
        {
          "internalType": "uint8",
          "name": "v",
          "type": "uint8"
        },
        {
          "internalType": "bytes32",
          "name": "r",
          "type": "bytes32"
        },
        {
          "internalType": "bytes32",
          "name": "s",
          "type": "bytes32"
        }
      ],
      "name": "delegateBySig",
      "outputs": [],
      "stateMutability": "nonpayable",
      "type": "function"
    },
    {
      "inputs": [
        {
          "internalType": "address",
          "name": "account",
          "type": "address"
        }
      ],
      "name": "delegates",
      "outputs": [
        {
          "internalType": "address",
          "name": "",
          "type": "address"
        }
      ],
      "stateMutability": "view",
      "type": "function"
    },
    {
      "inputs": [],
      "name": "getAllComments",
      "outputs": [
        {
          "components": [
            {
              "internalType": "address",
              "name": "sender",
              "type": "address"
            },
            {
              "internalType": "string",
              "name": "text",
              "type": "string"
            },
            {
              "internalType": "uint256",
              "name": "replyTo",
              "type": "uint256"
            },
            {
              "internalType": "uint256",
              "name": "timestamp",
              "type": "uint256"
            }
          ],
          "internalType": "struct ArchiveCoin.Comment[]",
          "name": "",
          "type": "tuple[]"
        }
      ],
      "stateMutability": "view",
      "type": "function"
    },
    {
      "inputs": [],
      "name": "getAllPosts",
      "outputs": [
        {
          "components": [
            {
              "internalType": "address",
              "name": "sender",
              "type": "address"
            },
            {
              "internalType": "string",
              "name": "title",
              "type": "string"
            },
            {
              "internalType": "string",
              "name": "text",
              "type": "string"
            },
            {
              "internalType": "uint256",
              "name": "replyTo",
              "type": "uint256"
            },
            {
              "internalType": "uint256",
              "name": "timestamp",
              "type": "uint256"
            }
          ],
          "internalType": "struct ArchiveCoin.Post[]",
          "name": "",
          "type": "tuple[]"
        }
      ],
      "stateMutability": "view",
      "type": "function"
    },
    {
      "inputs": [],
      "name": "getAmount",
      "outputs": [
        {
          "internalType": "uint256",
          "name": "",
          "type": "uint256"
        }
      ],
      "stateMutability": "view",
      "type": "function"
    },
    {
      "inputs": [
        {
          "internalType": "uint256",
          "name": "cId",
          "type": "uint256"
        }
      ],
      "name": "getCommentForCId",
      "outputs": [
        {
          "components": [
            {
              "internalType": "address",
              "name": "sender",
              "type": "address"
            },
            {
              "internalType": "string",
              "name": "text",
              "type": "string"
            },
            {
              "internalType": "uint256",
              "name": "replyTo",
              "type": "uint256"
            },
            {
              "internalType": "uint256",
              "name": "timestamp",
              "type": "uint256"
            }
          ],
          "internalType": "struct ArchiveCoin.Comment",
          "name": "",
          "type": "tuple"
        }
      ],
      "stateMutability": "view",
      "type": "function"
    },
    {
      "inputs": [
        {
          "internalType": "address",
          "name": "e",
          "type": "address"
        }
      ],
      "name": "getEoaToContract",
      "outputs": [
        {
          "internalType": "address",
          "name": "",
          "type": "address"
        }
      ],
      "stateMutability": "view",
      "type": "function"
    },
    {
      "inputs": [],
      "name": "getFee",
      "outputs": [
        {
          "internalType": "uint256",
          "name": "",
          "type": "uint256"
        }
      ],
      "stateMutability": "view",
      "type": "function"
    },
    {
      "inputs": [
        {
          "internalType": "uint256",
          "name": "blockNumber",
          "type": "uint256"
        }
      ],
      "name": "getPastTotalSupply",
      "outputs": [
        {
          "internalType": "uint256",
          "name": "",
          "type": "uint256"
        }
      ],
      "stateMutability": "view",
      "type": "function"
    },
    {
      "inputs": [
        {
          "internalType": "address",
          "name": "account",
          "type": "address"
        },
        {
          "internalType": "uint256",
          "name": "blockNumber",
          "type": "uint256"
        }
      ],
      "name": "getPastVotes",
      "outputs": [
        {
          "internalType": "uint256",
          "name": "",
          "type": "uint256"
        }
      ],
      "stateMutability": "view",
      "type": "function"
    },
    {
      "inputs": [
        {
          "internalType": "uint256",
          "name": "pId",
          "type": "uint256"
        }
      ],
      "name": "getPostForPId",
      "outputs": [
        {
          "components": [
            {
              "internalType": "address",
              "name": "sender",
              "type": "address"
            },
            {
              "internalType": "string",
              "name": "title",
              "type": "string"
            },
            {
              "internalType": "string",
              "name": "text",
              "type": "string"
            },
            {
              "internalType": "uint256",
              "name": "replyTo",
              "type": "uint256"
            },
            {
              "internalType": "uint256",
              "name": "timestamp",
              "type": "uint256"
            }
          ],
          "internalType": "struct ArchiveCoin.Post",
          "name": "",
          "type": "tuple"
        }
      ],
      "stateMutability": "view",
      "type": "function"
    },
    {
      "inputs": [],
      "name": "getRange",
      "outputs": [
        {
          "internalType": "uint256",
          "name": "",
          "type": "uint256"
        }
      ],
      "stateMutability": "view",
      "type": "function"
    },
    {
      "inputs": [
        {
          "internalType": "address",
          "name": "account",
          "type": "address"
        }
      ],
      "name": "getVotes",
      "outputs": [
        {
          "internalType": "uint256",
          "name": "",
          "type": "uint256"
        }
      ],
      "stateMutability": "view",
      "type": "function"
    },
    {
      "inputs": [
        {
          "internalType": "address",
          "name": "spender",
          "type": "address"
        },
        {
          "internalType": "uint256",
          "name": "addedValue",
          "type": "uint256"
        }
      ],
      "name": "increaseAllowance",
      "outputs": [
        {
          "internalType": "bool",
          "name": "",
          "type": "bool"
        }
      ],
      "stateMutability": "nonpayable",
      "type": "function"
    },
    {
      "inputs": [],
      "name": "name",
      "outputs": [
        {
          "internalType": "string",
          "name": "",
          "type": "string"
        }
      ],
      "stateMutability": "view",
      "type": "function"
    },
    {
      "inputs": [
        {
          "internalType": "address",
          "name": "owner",
          "type": "address"
        }
      ],
      "name": "nonces",
      "outputs": [
        {
          "internalType": "uint256",
          "name": "",
          "type": "uint256"
        }
      ],
      "stateMutability": "view",
      "type": "function"
    },
    {
      "inputs": [
        {
          "internalType": "address",
          "name": "account",
          "type": "address"
        }
      ],
      "name": "numCheckpoints",
      "outputs": [
        {
          "internalType": "uint32",
          "name": "",
          "type": "uint32"
        }
      ],
      "stateMutability": "view",
      "type": "function"
    },
    {
      "inputs": [],
      "name": "owner",
      "outputs": [
        {
          "internalType": "address",
          "name": "",
          "type": "address"
        }
      ],
      "stateMutability": "view",
      "type": "function"
    },
    {
      "inputs": [
        {
          "internalType": "address",
          "name": "owner",
          "type": "address"
        },
        {
          "internalType": "address",
          "name": "spender",
          "type": "address"
        },
        {
          "internalType": "uint256",
          "name": "value",
          "type": "uint256"
        },
        {
          "internalType": "uint256",
          "name": "deadline",
          "type": "uint256"
        },
        {
          "internalType": "uint8",
          "name": "v",
          "type": "uint8"
        },
        {
          "internalType": "bytes32",
          "name": "r",
          "type": "bytes32"
        },
        {
          "internalType": "bytes32",
          "name": "s",
          "type": "bytes32"
        }
      ],
      "name": "permit",
      "outputs": [],
      "stateMutability": "nonpayable",
      "type": "function"
    },
    {
      "inputs": [],
      "name": "renounceOwnership",
      "outputs": [],
      "stateMutability": "nonpayable",
      "type": "function"
    },
    {
      "inputs": [
        {
          "internalType": "uint256",
          "name": "num",
          "type": "uint256"
        }
      ],
      "name": "setAmount",
      "outputs": [],
      "stateMutability": "nonpayable",
      "type": "function"
    },
    {
      "inputs": [
        {
          "internalType": "string",
          "name": "text",
          "type": "string"
        },
        {
          "internalType": "uint256",
          "name": "replyTo",
          "type": "uint256"
        }
      ],
      "name": "setComment",
      "outputs": [],
      "stateMutability": "nonpayable",
      "type": "function"
    },
    {
      "inputs": [
        {
          "internalType": "address",
          "name": "c",
          "type": "address"
        }
      ],
      "name": "setEoaToContract",
      "outputs": [],
      "stateMutability": "nonpayable",
      "type": "function"
    },
    {
      "inputs": [
        {
          "internalType": "uint256",
          "name": "newFee",
          "type": "uint256"
        }
      ],
      "name": "setFee",
      "outputs": [],
      "stateMutability": "nonpayable",
      "type": "function"
    },
    {
      "inputs": [
        {
          "internalType": "string",
          "name": "title",
          "type": "string"
        },
        {
          "internalType": "string",
          "name": "text",
          "type": "string"
        },
        {
          "internalType": "uint256",
          "name": "replyTo",
          "type": "uint256"
        }
      ],
      "name": "setPost",
      "outputs": [],
      "stateMutability": "nonpayable",
      "type": "function"
    },
    {
      "inputs": [
        {
          "internalType": "uint256",
          "name": "num",
          "type": "uint256"
        }
      ],
      "name": "setRange",
      "outputs": [],
      "stateMutability": "nonpayable",
      "type": "function"
    },
    {
      "inputs": [],
      "name": "snapshot",
      "outputs": [],
      "stateMutability": "nonpayable",
      "type": "function"
    },
    {
      "inputs": [],
      "name": "symbol",
      "outputs": [
        {
          "internalType": "string",
          "name": "",
          "type": "string"
        }
      ],
      "stateMutability": "view",
      "type": "function"
    },
    {
      "inputs": [],
      "name": "totalSupply",
      "outputs": [
        {
          "internalType": "uint256",
          "name": "",
          "type": "uint256"
        }
      ],
      "stateMutability": "view",
      "type": "function"
    },
    {
      "inputs": [
        {
          "internalType": "uint256",
          "name": "snapshotId",
          "type": "uint256"
        }
      ],
      "name": "totalSupplyAt",
      "outputs": [
        {
          "internalType": "uint256",
          "name": "",
          "type": "uint256"
        }
      ],
      "stateMutability": "view",
      "type": "function"
    },
    {
      "inputs": [
        {
          "internalType": "address",
          "name": "to",
          "type": "address"
        },
        {
          "internalType": "uint256",
          "name": "amount",
          "type": "uint256"
        }
      ],
      "name": "transfer",
      "outputs": [
        {
          "internalType": "bool",
          "name": "",
          "type": "bool"
        }
      ],
      "stateMutability": "nonpayable",
      "type": "function"
    },
    {
      "inputs": [
        {
          "internalType": "address",
          "name": "from",
          "type": "address"
        },
        {
          "internalType": "address",
          "name": "to",
          "type": "address"
        },
        {
          "internalType": "uint256",
          "name": "amount",
          "type": "uint256"
        }
      ],
      "name": "transferFrom",
      "outputs": [
        {
          "internalType": "bool",
          "name": "",
          "type": "bool"
        }
      ],
      "stateMutability": "nonpayable",
      "type": "function"
    },
    {
      "inputs": [
        {
          "internalType": "address",
          "name": "newOwner",
          "type": "address"
        }
      ],
      "name": "transferOwnership",
      "outputs": [],
      "stateMutability": "nonpayable",
      "type": "function"
    }
  ],
  "bytecode": "0x6101406040523480156200001257600080fd5b506040518060400160405280600c81526020016b20b931b434bb329021b7b4b760a11b81525080604051806040016040528060018152602001603160f81b8152506040518060400160405280600c81526020016b20b931b434bb329021b7b4b760a11b81525060405180604001604052806005815260200164020a921ab160dd1b8152508160039081620000a791906200027f565b506004620000b682826200027f565b505050620000d3620000cd6200018460201b60201c565b62000188565b815160208084019190912082518383012060e08290526101008190524660a0818152604080517f8b73c3c69bb8fe3d512ecc4cf759cc79239f7b179b0ffacaa9a75d522b39400f81880181905281830187905260608201869052608082019490945230818401528151808203909301835260c00190528051940193909320919290916080523060c05261012052505060026011555050600160125550601e601455655af3107a40006013556200034b565b3390565b600980546001600160a01b038381166001600160a01b0319831681179093556040519116919082907f8be0079c531659141344cd1fd0a4f28419497f9722a3daafe3b4186f6b6457e090600090a35050565b634e487b7160e01b600052604160045260246000fd5b600181811c908216806200020557607f821691505b6020821081036200022657634e487b7160e01b600052602260045260246000fd5b50919050565b601f8211156200027a57600081815260208120601f850160051c81016020861015620002555750805b601f850160051c820191505b81811015620002765782815560010162000261565b5050505b505050565b81516001600160401b038111156200029b576200029b620001da565b620002b381620002ac8454620001f0565b846200022c565b602080601f831160018114620002eb5760008415620002d25750858301515b600019600386901b1c1916600185901b17855562000276565b600085815260208120601f198616915b828110156200031c57888601518255948401946001909101908401620002fb565b50858210156200033b5787850151600019600388901b60f8161c191681555b5050505050600190811b01905550565b60805160a05160c05160e0516101005161012051615a976200039b6000396000611f5a01526000611fa901526000611f8401526000611edb01526000611f0601526000611f310152615a976000f3fe608060405260043610620002a75760003560e01c806379cc6790116200016b5780639b85961f11620000d1578063d321fe291162000084578063d321fe2914620008be578063d505accf14620008d5578063dd62ed3e14620008fa578063e6a90da5146200091f578063f1127ed81462000944578063f2fde38b146200099457600080fd5b80639b85961f146200080a578063a457c2d71462000821578063a9059cbb1462000846578063abdef075146200086b578063c3cda5201462000882578063ced72f8714620008a757600080fd5b806395d89b41116200012a57806395d89b4114620007285780639711715a14620007405780639770de271462000758578063981b24d0146200078c5780639ab24eb014620007b15780639ac9798e14620007d657600080fd5b806379cc6790146200064b5780637ecebe0014620006705780638da5cb5b14620006955780638e1bb16914620006b55780638e539e8c146200070357600080fd5b80633ca68936116200021157806369fe0e2d11620001d057806369fe0e2d146200054f5780636a91991b14620005745780636fcfff45146200059957806370625cfd14620005d457806370a0823114620005f9578063715018a6146200063357600080fd5b80633ca68936146200044d57806342966c6814620004a35780634ee2cd7e14620004c8578063587cde1e14620004ed5780635c19a95c146200052a57600080fd5b8063271f88b4116200026a578063271f88b4146200037f5780633056110014620003a6578063313ce56714620003cd5780633644e51514620003eb5780633950935114620004035780633a46b1a8146200042857600080fd5b806306fdde0314620002ac578063095ea7b314620002dc57806310440904146200031257806318160ddd146200033957806323b872dd146200035a575b600080fd5b348015620002b957600080fd5b50620002c4620009b9565b604051620002d39190620030f2565b60405180910390f35b348015620002e957600080fd5b5062000301620002fb3660046200311f565b62000a53565b6040519015158152602001620002d3565b3480156200031f57600080fd5b506200032a62000a6f565b604051620002d3919062003195565b3480156200034657600080fd5b506002545b604051908152602001620002d3565b3480156200036757600080fd5b506200030162000379366004620031fb565b62000c50565b3480156200038c57600080fd5b50620003a46200039e3660046200323c565b62000c78565b005b348015620003b357600080fd5b50620003be62000c87565b604051620002d39190620032bb565b348015620003da57600080fd5b5060405160128152602001620002d3565b348015620003f857600080fd5b506200034b62000ecf565b3480156200041057600080fd5b5062000301620004223660046200311f565b62000ee0565b3480156200043557600080fd5b506200034b620004473660046200311f565b62000f08565b3480156200045a57600080fd5b506200048a6200046c36600462003314565b6001600160a01b039081166000908152601760205260409020541690565b6040516001600160a01b039091168152602001620002d3565b348015620004b057600080fd5b50620003a4620004c23660046200323c565b62000f8a565b348015620004d557600080fd5b506200034b620004e73660046200311f565b62000f99565b348015620004fa57600080fd5b506200048a6200050c36600462003314565b6001600160a01b039081166000908152600c60205260409020541690565b3480156200053757600080fd5b50620003a46200054936600462003314565b62000ff6565b3480156200055c57600080fd5b50620003a46200056e3660046200323c565b62001002565b3480156200058157600080fd5b50620003a4620005933660046200323c565b62001011565b348015620005a657600080fd5b50620005be620005b836600462003314565b62001020565b60405163ffffffff9091168152602001620002d3565b348015620005e157600080fd5b50620003a4620005f3366004620033dd565b62001044565b3480156200060657600080fd5b506200034b6200061836600462003314565b6001600160a01b031660009081526020819052604090205490565b3480156200064057600080fd5b50620003a46200110a565b3480156200065857600080fd5b50620003a46200066a3660046200311f565b62001122565b3480156200067d57600080fd5b506200034b6200068f36600462003314565b6200113f565b348015620006a257600080fd5b506009546001600160a01b03166200048a565b348015620006c257600080fd5b50620003a4620006d436600462003314565b33600090815260176020526040902080546001600160a01b0319166001600160a01b0392909216919091179055565b3480156200071057600080fd5b506200034b620007223660046200323c565b6200115e565b3480156200073557600080fd5b50620002c4620011be565b3480156200074d57600080fd5b50620003a4620011cf565b3480156200076557600080fd5b506200077d620007773660046200323c565b620011e3565b604051620002d3919062003451565b3480156200079957600080fd5b506200034b620007ab3660046200323c565b62001368565b348015620007be57600080fd5b506200034b620007d036600462003314565b62001397565b348015620007e357600080fd5b50620007fb620007f53660046200323c565b62001425565b604051620002d3919062003466565b3480156200081757600080fd5b506011546200034b565b3480156200082e57600080fd5b5062000301620008403660046200311f565b6200153b565b3480156200085357600080fd5b5062000301620008653660046200311f565b620015bc565b6200048a6200087c3660046200323c565b620015cc565b3480156200088f57600080fd5b50620003a4620008a13660046200348d565b62001662565b348015620008b457600080fd5b506013546200034b565b348015620008cb57600080fd5b506012546200034b565b348015620008e257600080fd5b50620003a4620008f4366004620034ea565b620017a4565b3480156200090757600080fd5b506200034b620009193660046200355b565b62001914565b3480156200092c57600080fd5b50620003a46200093e36600462003593565b6200193f565b3480156200095157600080fd5b506200096962000963366004620035dc565b620019da565b60408051825163ffffffff1681526020928301516001600160e01b03169281019290925201620002d3565b348015620009a157600080fd5b50620003a4620009b336600462003314565b62001a61565b606060038054620009ca9062003620565b80601f0160208091040260200160405190810160405280929190818152602001828054620009f89062003620565b801562000a495780601f1062000a1d5761010080835404028352916020019162000a49565b820191906000526020600020905b81548152906001019060200180831162000a2b57829003601f168201915b5050505050905090565b60003362000a6381858562001add565b60019150505b92915050565b6060600062000a7d60105490565b90506000808267ffffffffffffffff81111562000a9e5762000a9e62003332565b60405190808252806020026020018201604052801562000b0657816020015b62000af2604051806080016040528060006001600160a01b031681526020016060815260200160008152602001600081525090565b81526020019060019003908162000abd5790505b50905060005b8381101562000c48576016600062000b268360016200366c565b8152602080820192909252604090810160002081516080810190925280546001600160a01b03168252600181018054929391929184019162000b689062003620565b80601f016020809104026020016040519081016040528092919081815260200182805462000b969062003620565b801562000be75780601f1062000bbb5761010080835404028352916020019162000be7565b820191906000526020600020905b81548152906001019060200180831162000bc957829003601f168201915b505050505081526020016002820154815260200160038201548152505082848151811062000c195762000c1962003682565b602090810291909101015262000c316001846200366c565b92508062000c3f8162003698565b91505062000b0c565b509392505050565b60003362000c6085828562001c05565b62000c6d85858562001c86565b506001949350505050565b62000c8262001e72565b601255565b6060600062000c95600f5490565b90506000808267ffffffffffffffff81111562000cb65762000cb662003332565b60405190808252806020026020018201604052801562000cf357816020015b62000cdf62003064565b81526020019060019003908162000cd55790505b50905060005b8381101562000c48576015600062000d138360016200366c565b81526020808201929092526040908101600020815160a0810190925280546001600160a01b03168252600181018054929391929184019162000d559062003620565b80601f016020809104026020016040519081016040528092919081815260200182805462000d839062003620565b801562000dd45780601f1062000da85761010080835404028352916020019162000dd4565b820191906000526020600020905b81548152906001019060200180831162000db657829003601f168201915b5050505050815260200160028201805462000def9062003620565b80601f016020809104026020016040519081016040528092919081815260200182805462000e1d9062003620565b801562000e6e5780601f1062000e425761010080835404028352916020019162000e6e565b820191906000526020600020905b81548152906001019060200180831162000e5057829003601f168201915b505050505081526020016003820154815260200160048201548152505082848151811062000ea05762000ea062003682565b602090810291909101015262000eb86001846200366c565b92508062000ec68162003698565b91505062000cf9565b600062000edb62001ece565b905090565b60003362000a6381858562000ef6838362001914565b62000f0291906200366c565b62001add565b600043821062000f5f5760405162461bcd60e51b815260206004820152601f60248201527f4552433230566f7465733a20626c6f636b206e6f7420796574206d696e65640060448201526064015b60405180910390fd5b6001600160a01b0383166000908152600d6020526040902062000f83908362001ff7565b9392505050565b62000f963382620020c6565b50565b6001600160a01b03821660009081526005602052604081208190819062000fc2908590620020d2565b915091508162000feb576001600160a01b03851660009081526020819052604090205462000fed565b805b95945050505050565b62000f963382620021d5565b6200100c62001e72565b601355565b6200101b62001e72565b601155565b6001600160a01b0381166000908152600d602052604081205462000a699062002250565b62001053600f80546001019055565b60006200105f600f5490565b6040805160a08101825233815260208082018881528284018890526060830187905242608084015260008581526015909252929020815181546001600160a01b0319166001600160a01b039091161781559151929350918291906001820190620010ca908262003706565b5060408201516002820190620010e1908262003706565b50606082015160038201556080909101516004909101556200110333620022bb565b5050505050565b6200111462001e72565b620011206000620022db565b565b6200112f82338362001c05565b6200113b8282620020c6565b5050565b6001600160a01b0381166000908152600a602052604081205462000a69565b6000438210620011b15760405162461bcd60e51b815260206004820152601f60248201527f4552433230566f7465733a20626c6f636b206e6f7420796574206d696e656400604482015260640162000f56565b62000a69600e8362001ff7565b606060048054620009ca9062003620565b620011d962001e72565b62000f966200232d565b620011ed62003064565b600082815260156020908152604091829020825160a0810190935280546001600160a01b0316835260018101805491928401916200122b9062003620565b80601f0160208091040260200160405190810160405280929190818152602001828054620012599062003620565b8015620012aa5780601f106200127e57610100808354040283529160200191620012aa565b820191906000526020600020905b8154815290600101906020018083116200128c57829003601f168201915b50505050508152602001600282018054620012c59062003620565b80601f0160208091040260200160405190810160405280929190818152602001828054620012f39062003620565b8015620013445780601f10620013185761010080835404028352916020019162001344565b820191906000526020600020905b8154815290600101906020018083116200132657829003601f168201915b50505050508152602001600382015481526020016004820154815250509050919050565b60008060006200137a846006620020d2565b91509150816200138d576002546200138f565b805b949350505050565b6001600160a01b0381166000908152600d6020526040812054801562001412576001600160a01b0383166000908152600d60205260409020620013dc600183620037d3565b81548110620013ef57620013ef62003682565b60009182526020909120015464010000000090046001600160e01b031662001415565b60005b6001600160e01b03169392505050565b6200145a604051806080016040528060006001600160a01b031681526020016060815260200160008152602001600081525090565b60008281526016602090815260409182902082516080810190935280546001600160a01b031683526001810180549192840191620014989062003620565b80601f0160208091040260200160405190810160405280929190818152602001828054620014c69062003620565b8015620015175780601f10620014eb5761010080835404028352916020019162001517565b820191906000526020600020905b815481529060010190602001808311620014f957829003601f168201915b50505050508152602001600282015481526020016003820154815250509050919050565b600033816200154b828662001914565b905083811015620015ad5760405162461bcd60e51b815260206004820152602560248201527f45524332303a2064656372656173656420616c6c6f77616e63652062656c6f77604482015264207a65726f60d81b606482015260840162000f56565b62000c6d828686840362001add565b60003362000a6381858562001c86565b600060135434146200161a5760405162461bcd60e51b81526020600482015260166024820152751b5cd9c81d985b1d59481a5cc81a5b98dbdc9c9958dd60521b604482015260640162000f56565b81336040516200162a906200309c565b9182526001600160a01b03166020820152604001604051809103906000f0801580156200165b573d6000803e3d6000fd5b5092915050565b83421115620016b45760405162461bcd60e51b815260206004820152601d60248201527f4552433230566f7465733a207369676e61747572652065787069726564000000604482015260640162000f56565b604080517fe48329057bfd03d55e49b547132e39cffd9c1820ad7b9d4c5307691425d15adf60208201526001600160a01b0388169181019190915260608101869052608081018590526000906200173290620017299060a001604051602081830303815290604052805190602001206200238b565b858585620023dc565b90506200173f8162002408565b86146200178f5760405162461bcd60e51b815260206004820152601960248201527f4552433230566f7465733a20696e76616c6964206e6f6e636500000000000000604482015260640162000f56565b6200179b8188620021d5565b50505050505050565b83421115620017f65760405162461bcd60e51b815260206004820152601d60248201527f45524332305065726d69743a206578706972656420646561646c696e65000000604482015260640162000f56565b60007f6e71edae12b1b97f4d1f60370fef10105fa2faae0126114a169c64845d6126c9888888620018278c62002408565b6040805160208101969096526001600160a01b0394851690860152929091166060840152608083015260a082015260c0810186905260e001604051602081830303815290604052805190602001209050600062001884826200238b565b905060006200189682878787620023dc565b9050896001600160a01b0316816001600160a01b031614620018fb5760405162461bcd60e51b815260206004820152601e60248201527f45524332305065726d69743a20696e76616c6964207369676e61747572650000604482015260640162000f56565b620019088a8a8a62001add565b50505050505050505050565b6001600160a01b03918216600090815260016020908152604080832093909416825291909152205490565b60006200194b60105490565b90506200195c601080546001019055565b60408051608081018252338152602080820186815282840186905242606084015260008581526016909252929020815181546001600160a01b0319166001600160a01b039091161781559151909182916001820190620019bd908262003706565b506040820151600282015560609091015160039091015550505050565b60408051808201909152600080825260208201526001600160a01b0383166000908152600d60205260409020805463ffffffff841690811062001a215762001a2162003682565b60009182526020918290206040805180820190915291015463ffffffff8116825264010000000090046001600160e01b0316918101919091529392505050565b62001a6b62001e72565b6001600160a01b03811662001ad25760405162461bcd60e51b815260206004820152602660248201527f4f776e61626c653a206e6577206f776e657220697320746865207a65726f206160448201526564647265737360d01b606482015260840162000f56565b62000f9681620022db565b6001600160a01b03831662001b415760405162461bcd60e51b8152602060048201526024808201527f45524332303a20617070726f76652066726f6d20746865207a65726f206164646044820152637265737360e01b606482015260840162000f56565b6001600160a01b03821662001ba45760405162461bcd60e51b815260206004820152602260248201527f45524332303a20617070726f766520746f20746865207a65726f206164647265604482015261737360f01b606482015260840162000f56565b6001600160a01b0383811660008181526001602090815260408083209487168084529482529182902085905590518481527f8c5be1e5ebec7d5bd14f71427d1e84f3dd0314c0f7b2291e5b200ac8c7c3b925910160405180910390a3505050565b600062001c13848462001914565b9050600019811462001c80578181101562001c715760405162461bcd60e51b815260206004820152601d60248201527f45524332303a20696e73756666696369656e7420616c6c6f77616e6365000000604482015260640162000f56565b62001c80848484840362001add565b50505050565b6001600160a01b03831662001cec5760405162461bcd60e51b815260206004820152602560248201527f45524332303a207472616e736665722066726f6d20746865207a65726f206164604482015264647265737360d81b606482015260840162000f56565b6001600160a01b03821662001d505760405162461bcd60e51b815260206004820152602360248201527f45524332303a207472616e7366657220746f20746865207a65726f206164647260448201526265737360e81b606482015260840162000f56565b62001d5d83838362002430565b6001600160a01b0383166000908152602081905260409020548181101562001dd75760405162461bcd60e51b815260206004820152602660248201527f45524332303a207472616e7366657220616d6f756e7420657863656564732062604482015265616c616e636560d01b606482015260840162000f56565b6001600160a01b0380851660009081526020819052604080822085850390559185168152908120805484929062001e109084906200366c565b92505081905550826001600160a01b0316846001600160a01b03167fddf252ad1be2c89b69c2b068fc378daa952ba7f163c4a11628f55a4df523b3ef8460405162001e5d91815260200190565b60405180910390a362001c8084848462002442565b6009546001600160a01b03163314620011205760405162461bcd60e51b815260206004820181905260248201527f4f776e61626c653a2063616c6c6572206973206e6f7420746865206f776e6572604482015260640162000f56565b6000306001600160a01b037f00000000000000000000000000000000000000000000000000000000000000001614801562001f2857507f000000000000000000000000000000000000000000000000000000000000000046145b1562001f5357507f000000000000000000000000000000000000000000000000000000000000000090565b50604080517f00000000000000000000000000000000000000000000000000000000000000006020808301919091527f0000000000000000000000000000000000000000000000000000000000000000828401527f000000000000000000000000000000000000000000000000000000000000000060608301524660808301523060a0808401919091528351808403909101815260c0909201909252805191012090565b8154600090815b81811015620020665760006200201582846200244f565b9050848682815481106200202d576200202d62003682565b60009182526020909120015463ffffffff1611156200204f578092506200205f565b6200205c8160016200366c565b91505b5062001ffe565b8115620020b157846200207b600184620037d3565b815481106200208e576200208e62003682565b60009182526020909120015464010000000090046001600160e01b0316620020b4565b60005b6001600160e01b031695945050505050565b6200113b82826200246e565b60008060008411620021205760405162461bcd60e51b815260206004820152601660248201527504552433230536e617073686f743a20696420697320360541b604482015260640162000f56565b6200212a6200248b565b8411156200217b5760405162461bcd60e51b815260206004820152601d60248201527f4552433230536e617073686f743a206e6f6e6578697374656e74206964000000604482015260640162000f56565b600062002189848662002497565b84549091508103620021a3576000809250925050620021ce565b6001846001018281548110620021bd57620021bd62003682565b906000526020600020015492509250505b9250929050565b6001600160a01b038281166000818152600c60208181526040808420805485845282862054949093528787166001600160a01b03198416811790915590519190951694919391928592917f3134e8a2e6d97e929a7e54011ea5485d7d196dd5f0ba4d4ef95803e8e3fc257f9190a462001c8082848362002574565b600063ffffffff821115620022b75760405162461bcd60e51b815260206004820152602660248201527f53616665436173743a2076616c756520646f65736e27742066697420696e203360448201526532206269747360d01b606482015260840162000f56565b5090565b620022c5620026bd565b60010362000f965762000f968160125462002715565b600980546001600160a01b038381166001600160a01b0319831681179093556040519116919082907f8be0079c531659141344cd1fd0a4f28419497f9722a3daafe3b4186f6b6457e090600090a35050565b60006200233e600880546001019055565b60006200234a6200248b565b90507f8030e83b04d87bef53480e26263266d6ca66863aa8506aca6f2559d18aa1cb67816040516200237e91815260200190565b60405180910390a1919050565b600062000a696200239b62001ece565b8360405161190160f01b6020820152602281018390526042810182905260009060620160405160208183030381529060405280519060200120905092915050565b6000806000620023ef8787878762002721565b91509150620023fe8162002816565b5095945050505050565b6001600160a01b0381166000908152600a602052604090208054600181018255905b50919050565b6200243d838383620029e4565b505050565b6200243d83838362002a38565b6000620024606002848418620037ff565b62000f83908484166200366c565b6200247a828262002a6c565b62001c80600e62002bd78362002be5565b600062000edb60085490565b81546000908103620024ac5750600062000a69565b82546000905b8082101562002513576000620024c983836200244f565b905084868281548110620024e157620024e162003682565b90600052602060002001541115620024fc578091506200250c565b620025098160016200366c565b92505b50620024b2565b6000821180156200254e575083856200252e600185620037d3565b8154811062002541576200254162003682565b9060005260206000200154145b156200256b5762002561600183620037d3565b9250505062000a69565b50905062000a69565b816001600160a01b0316836001600160a01b031614158015620025975750600081115b156200243d576001600160a01b038316156200262b576001600160a01b0383166000908152600d602052604081208190620025d79062002bd78562002be5565b91509150846001600160a01b03167fdec2bacdd2f05b59de34da9b523dff8be42e5e38e818c82fdb0bae774387a724838360405162002620929190918252602082015260400190565b60405180910390a250505b6001600160a01b038216156200243d576001600160a01b0382166000908152600d602052604081208190620026659062002d798562002be5565b91509150836001600160a01b03167fdec2bacdd2f05b59de34da9b523dff8be42e5e38e818c82fdb0bae774387a7248383604051620026ae929190918252602082015260400190565b60405180910390a25050505050565b60006011544442620026ce600f5490565b6010546040805160208101959095528401929092526060830152608082015260a0016040516020818303038152906040528051906020012060001c62000edb919062003816565b6200113b828262002d87565b6000807f7fffffffffffffffffffffffffffffff5d576e7357a4501ddfe92f46681b20a08311156200275a57506000905060036200280d565b8460ff16601b141580156200277357508460ff16601c14155b156200278657506000905060046200280d565b6040805160008082526020820180845289905260ff881692820192909252606081018690526080810185905260019060a0016020604051602081039080840390855afa158015620027db573d6000803e3d6000fd5b5050604051601f1901519150506001600160a01b03811662002806576000600192509250506200280d565b9150600090505b94509492505050565b60008160048111156200282d576200282d6200382d565b03620028365750565b60018160048111156200284d576200284d6200382d565b036200289c5760405162461bcd60e51b815260206004820152601860248201527f45434453413a20696e76616c6964207369676e61747572650000000000000000604482015260640162000f56565b6002816004811115620028b357620028b36200382d565b03620029025760405162461bcd60e51b815260206004820152601f60248201527f45434453413a20696e76616c6964207369676e6174757265206c656e67746800604482015260640162000f56565b60038160048111156200291957620029196200382d565b03620029735760405162461bcd60e51b815260206004820152602260248201527f45434453413a20696e76616c6964207369676e6174757265202773272076616c604482015261756560f01b606482015260840162000f56565b60048160048111156200298a576200298a6200382d565b0362000f965760405162461bcd60e51b815260206004820152602260248201527f45434453413a20696e76616c6964207369676e6174757265202776272076616c604482015261756560f01b606482015260840162000f56565b6001600160a01b03831662002a0857620029fe8262002e18565b6200243d62002e4d565b6001600160a01b03821662002a2257620029fe8362002e18565b62002a2d8362002e18565b6200243d8262002e18565b6001600160a01b038381166000908152600c60205260408082205485841683529120546200243d9291821691168362002574565b6001600160a01b03821662002ace5760405162461bcd60e51b815260206004820152602160248201527f45524332303a206275726e2066726f6d20746865207a65726f206164647265736044820152607360f81b606482015260840162000f56565b62002adc8260008362002430565b6001600160a01b0382166000908152602081905260409020548181101562002b525760405162461bcd60e51b815260206004820152602260248201527f45524332303a206275726e20616d6f756e7420657863656564732062616c616e604482015261636560f01b606482015260840162000f56565b6001600160a01b038316600090815260208190526040812083830390556002805484929062002b83908490620037d3565b90915550506040518281526000906001600160a01b038516907fddf252ad1be2c89b69c2b068fc378daa952ba7f163c4a11628f55a4df523b3ef9060200160405180910390a36200243d8360008462002442565b600062000f838284620037d3565b82546000908190801562002c37578562002c01600183620037d3565b8154811062002c145762002c1462003682565b60009182526020909120015464010000000090046001600160e01b031662002c3a565b60005b6001600160e01b0316925062002c5483858763ffffffff16565b915060008111801562002c985750438662002c71600184620037d3565b8154811062002c845762002c8462003682565b60009182526020909120015463ffffffff16145b1562002d015762002ca98262002e5d565b8662002cb7600184620037d3565b8154811062002cca5762002cca62003682565b9060005260206000200160000160046101000a8154816001600160e01b0302191690836001600160e01b0316021790555062002d70565b85604051806040016040528062002d184362002250565b63ffffffff16815260200162002d2e8562002e5d565b6001600160e01b0390811690915282546001810184556000938452602093849020835194909301519091166401000000000263ffffffff909316929092179101555b50935093915050565b600062000f8382846200366c565b62002d93828262002ec8565b6002546001600160e01b03101562002e075760405162461bcd60e51b815260206004820152603060248201527f4552433230566f7465733a20746f74616c20737570706c79207269736b73206f60448201526f766572666c6f77696e6720766f74657360801b606482015260840162000f56565b62001c80600e62002d798362002be5565b6001600160a01b0381166000908152600560209081526040808320918390529091205462000f96919062002fc5565b62002fc5565b62001120600662002e4760025490565b60006001600160e01b03821115620022b75760405162461bcd60e51b815260206004820152602760248201527f53616665436173743a2076616c756520646f65736e27742066697420696e20326044820152663234206269747360c81b606482015260840162000f56565b6001600160a01b03821662002f205760405162461bcd60e51b815260206004820152601f60248201527f45524332303a206d696e7420746f20746865207a65726f206164647265737300604482015260640162000f56565b62002f2e6000838362002430565b806002600082825462002f4291906200366c565b90915550506001600160a01b0382166000908152602081905260408120805483929062002f719084906200366c565b90915550506040518181526001600160a01b038316906000907fddf252ad1be2c89b69c2b068fc378daa952ba7f163c4a11628f55a4df523b3ef9060200160405180910390a36200113b6000838362002442565b600062002fd16200248b565b90508062002fdf8462003014565b10156200243d578254600180820185556000858152602080822090930193909355938401805494850181558252902090910155565b805460009081036200302857506000919050565b815482906200303a90600190620037d3565b815481106200304d576200304d62003682565b90600052602060002001549050919050565b919050565b6040518060a0016040528060006001600160a01b03168152602001606081526020016060815260200160008152602001600081525090565b61221e806200384483390190565b6000815180845260005b81811015620030d257602081850181015186830182015201620030b4565b506000602082860101526020601f19601f83011685010191505092915050565b60208152600062000f836020830184620030aa565b80356001600160a01b03811681146200305f57600080fd5b600080604083850312156200313357600080fd5b6200313e8362003107565b946020939093013593505050565b60018060a01b0381511682526000602082015160806020850152620031756080850182620030aa565b905060408301516040850152606083015160608501528091505092915050565b6000602080830181845280855180835260408601915060408160051b870101925083870160005b82811015620031ee57603f19888603018452620031db8583516200314c565b94509285019290850190600101620031bc565b5092979650505050505050565b6000806000606084860312156200321157600080fd5b6200321c8462003107565b92506200322c6020850162003107565b9150604084013590509250925092565b6000602082840312156200324f57600080fd5b5035919050565b60018060a01b0381511682526000602082015160a060208501526200327f60a0850182620030aa565b9050604083015184820360408601526200329a8282620030aa565b91505060608301516060850152608083015160808501528091505092915050565b6000602080830181845280855180835260408601915060408160051b870101925083870160005b82811015620031ee57603f198886030184526200330185835162003256565b94509285019290850190600101620032e2565b6000602082840312156200332757600080fd5b62000f838262003107565b634e487b7160e01b600052604160045260246000fd5b600082601f8301126200335a57600080fd5b813567ffffffffffffffff8082111562003378576200337862003332565b604051601f8301601f19908116603f01168101908282118183101715620033a357620033a362003332565b81604052838152866020858801011115620033bd57600080fd5b836020870160208301376000602085830101528094505050505092915050565b600080600060608486031215620033f357600080fd5b833567ffffffffffffffff808211156200340c57600080fd5b6200341a8783880162003348565b945060208601359150808211156200343157600080fd5b50620034408682870162003348565b925050604084013590509250925092565b60208152600062000f83602083018462003256565b60208152600062000f8360208301846200314c565b803560ff811681146200305f57600080fd5b60008060008060008060c08789031215620034a757600080fd5b620034b28762003107565b95506020870135945060408701359350620034d0606088016200347b565b92506080870135915060a087013590509295509295509295565b600080600080600080600060e0888a0312156200350657600080fd5b620035118862003107565b9650620035216020890162003107565b955060408801359450606088013593506200353f608089016200347b565b925060a0880135915060c0880135905092959891949750929550565b600080604083850312156200356f57600080fd5b6200357a8362003107565b91506200358a6020840162003107565b90509250929050565b60008060408385031215620035a757600080fd5b823567ffffffffffffffff811115620035bf57600080fd5b620035cd8582860162003348565b95602094909401359450505050565b60008060408385031215620035f057600080fd5b620035fb8362003107565b9150602083013563ffffffff811681146200361557600080fd5b809150509250929050565b600181811c908216806200363557607f821691505b6020821081036200242a57634e487b7160e01b600052602260045260246000fd5b634e487b7160e01b600052601160045260246000fd5b8082018082111562000a695762000a6962003656565b634e487b7160e01b600052603260045260246000fd5b600060018201620036ad57620036ad62003656565b5060010190565b601f8211156200243d57600081815260208120601f850160051c81016020861015620036dd5750805b601f850160051c820191505b81811015620036fe57828155600101620036e9565b505050505050565b815167ffffffffffffffff81111562003723576200372362003332565b6200373b8162003734845462003620565b84620036b4565b602080601f8311600181146200377357600084156200375a5750858301515b600019600386901b1c1916600185901b178555620036fe565b600085815260208120601f198616915b82811015620037a45788860151825594840194600190910190840162003783565b5085821015620037c35787850151600019600388901b60f8161c191681555b5050505050600190811b01905550565b8181038181111562000a695762000a6962003656565b634e487b7160e01b600052601260045260246000fd5b600082620038115762003811620037e9565b500490565b600082620038285762003828620037e9565b500690565b634e487b7160e01b600052602160045260246000fdfe60806040523480156200001157600080fd5b506040516200221e3803806200221e83398101604081905262000034916200012e565b6040518060400160405280600781526020016626bcaa37b5b2b760c91b815250604051806040016040528060038152602001624d544b60e81b815250816000908162000081919062000212565b50600162000090828262000212565b505050620000ad620000a7620000d860201b60201c565b620000dc565b600891909155600c80546001600160a01b0319166001600160a01b03909216919091179055620002de565b3390565b600780546001600160a01b038381166001600160a01b0319831681179093556040519116919082907f8be0079c531659141344cd1fd0a4f28419497f9722a3daafe3b4186f6b6457e090600090a35050565b600080604083850312156200014257600080fd5b825160208401519092506001600160a01b03811681146200016257600080fd5b809150509250929050565b634e487b7160e01b600052604160045260246000fd5b600181811c908216806200019857607f821691505b602082108103620001b957634e487b7160e01b600052602260045260246000fd5b50919050565b601f8211156200020d57600081815260208120601f850160051c81016020861015620001e85750805b601f850160051c820191505b818110156200020957828155600101620001f4565b5050505b505050565b81516001600160401b038111156200022e576200022e6200016d565b62000246816200023f845462000183565b84620001bf565b602080601f8311600181146200027e5760008415620002655750858301515b600019600386901b1c1916600185901b17855562000209565b600085815260208120601f198616915b82811015620002af578886015182559484019460019091019084016200028e565b5085821015620002ce5787850151600019600388901b60f8161c191681555b5050505050600190811b01905550565b611f3080620002ee6000396000f3fe60806040526004361061014b5760003560e01c8063715018a6116100b6578063b5a43e521161006f578063b5a43e521461039f578063b88d4fde146103bf578063b8b768ea146103df578063c87b56dd1461040c578063e985e9c51461042c578063f2fde38b1461044c57600080fd5b8063715018a6146103025780638da5cb5b1461031757806391b7f5ed1461033557806395d89b411461035557806398d5fdca1461036a578063a22cb4651461037f57600080fd5b80633f516018116101085780633f5160181461023f57806342842e0e1461025f57806353f5e3801461027f5780636352211e146102a1578063695850fb146102c157806370a08231146102d457600080fd5b806301ffc9a71461015057806306fdde0314610185578063081812fc146101a7578063095ea7b3146101df5780630ee2cb101461020157806323b872dd1461021f575b600080fd5b34801561015c57600080fd5b5061017061016b3660046117f2565b61046c565b60405190151581526020015b60405180910390f35b34801561019157600080fd5b5061019a6104be565b60405161017c919061185f565b3480156101b357600080fd5b506101c76101c2366004611872565b610550565b6040516001600160a01b03909116815260200161017c565b3480156101eb57600080fd5b506101ff6101fa3660046118a7565b610577565b005b34801561020d57600080fd5b50600c546001600160a01b03166101c7565b34801561022b57600080fd5b506101ff61023a3660046118d1565b610691565b34801561024b57600080fd5b506101ff61025a36600461190d565b6106c2565b34801561026b57600080fd5b506101ff61027a3660046118d1565b61070e565b34801561028b57600080fd5b50610294610729565b60405161017c9190611963565b3480156102ad57600080fd5b506101c76102bc366004611872565b6108ef565b6101ff6102cf366004611a51565b61094f565b3480156102e057600080fd5b506102f46102ef36600461190d565b6109d3565b60405190815260200161017c565b34801561030e57600080fd5b506101ff610a59565b34801561032357600080fd5b506007546001600160a01b03166101c7565b34801561034157600080fd5b506101ff610350366004611872565b610a6d565b34801561036157600080fd5b5061019a610a9c565b34801561037657600080fd5b506008546102f4565b34801561038b57600080fd5b506101ff61039a366004611a9a565b610aab565b3480156103ab57600080fd5b506101ff6103ba366004611a51565b610ab6565b3480156103cb57600080fd5b506101ff6103da366004611ad6565b610b23565b3480156103eb57600080fd5b506103ff6103fa366004611872565b610b5b565b60405161017c9190611b52565b34801561041857600080fd5b5061019a610427366004611872565b610c32565b34801561043857600080fd5b50610170610447366004611b65565b610c3d565b34801561045857600080fd5b506101ff61046736600461190d565b610c6b565b60006001600160e01b031982166380ac58cd60e01b148061049d57506001600160e01b03198216635b5e139f60e01b145b806104b857506301ffc9a760e01b6001600160e01b03198316145b92915050565b6060600080546104cd90611b98565b80601f01602080910402602001604051908101604052809291908181526020018280546104f990611b98565b80156105465780601f1061051b57610100808354040283529160200191610546565b820191906000526020600020905b81548152906001019060200180831161052957829003601f168201915b5050505050905090565b600061055b82610ce1565b506000908152600460205260409020546001600160a01b031690565b6000610582826108ef565b9050806001600160a01b0316836001600160a01b0316036105f45760405162461bcd60e51b815260206004820152602160248201527f4552433732313a20617070726f76616c20746f2063757272656e74206f776e656044820152603960f91b60648201526084015b60405180910390fd5b336001600160a01b038216148061061057506106108133610c3d565b6106825760405162461bcd60e51b815260206004820152603e60248201527f4552433732313a20617070726f76652063616c6c6572206973206e6f7420746f60448201527f6b656e206f776e6572206e6f7220617070726f76656420666f7220616c6c000060648201526084016105eb565b61068c8383610d40565b505050565b61069b3382610dae565b6106b75760405162461bcd60e51b81526004016105eb90611bd2565b61068c838383610e0d565b600c546001600160a01b031633146106ec5760405162461bcd60e51b81526004016105eb90611c20565b600c80546001600160a01b0319166001600160a01b0392909216919091179055565b61068c83838360405180602001604052806000815250610b23565b6060600080610737600a5490565b9050610742600a5490565b60000361078257604080516000808252602082019092529061077a565b6107676117b2565b81526020019060019003908161075f5790505b509250505090565b60008167ffffffffffffffff81111561079d5761079d6119c5565b6040519080825280602002602001820160405280156107d657816020015b6107c36117b2565b8152602001906001900390816107bb5790505b50905060015b8281116108e7576000818152600b602090815260409182902082516060810190935280546001600160a01b03168352600181018054919284019161081f90611b98565b80601f016020809104026020016040519081016040528092919081815260200182805461084b90611b98565b80156108985780601f1061086d57610100808354040283529160200191610898565b820191906000526020600020905b81548152906001019060200180831161087b57829003601f168201915b505050505081526020016002820154815250508285815181106108bd576108bd611c68565b60209081029190910101526108d3600185611c94565b9350806108df81611ca7565b9150506107dc565b509392505050565b6000818152600260205260408120546001600160a01b0316806104b85760405162461bcd60e51b8152602060048201526018602482015277115490cdcc8c4e881a5b9d985b1a59081d1bdad95b88125160421b60448201526064016105eb565b60085434146109a05760405162461bcd60e51b815260206004820152601b60248201527f596f7572206d73672076616c756520697320696e636f7272656374000000000060448201526064016105eb565b60006109ab60095490565b90506109bb600980546001019055565b6109c53382610fa9565b6109cf8183610fc3565b5050565b60006001600160a01b038216610a3d5760405162461bcd60e51b815260206004820152602960248201527f4552433732313a2061646472657373207a65726f206973206e6f7420612076616044820152683634b21037bbb732b960b91b60648201526084016105eb565b506001600160a01b031660009081526003602052604090205490565b610a61611056565b610a6b60006110b0565b565b600c546001600160a01b03163314610a975760405162461bcd60e51b81526004016105eb90611c20565b600855565b6060600180546104cd90611b98565b6109cf338383611102565b600c546001600160a01b03163314610b17576001610ad3336109d3565b1015610b175760405162461bcd60e51b8152602060048201526013602482015272165bdd48191bc81b9bdd081a185d99481b999d606a1b60448201526064016105eb565b610b20816111d0565b50565b610b2d3383610dae565b610b495760405162461bcd60e51b81526004016105eb90611bd2565b610b558484848461128c565b50505050565b610b636117b2565b6000828152600b602090815260409182902082516060810190935280546001600160a01b031683526001810180549192840191610b9f90611b98565b80601f0160208091040260200160405190810160405280929190818152602001828054610bcb90611b98565b8015610c185780601f10610bed57610100808354040283529160200191610c18565b820191906000526020600020905b815481529060010190602001808311610bfb57829003601f168201915b505050505081526020016002820154815250509050919050565b60606104b8826112bf565b6001600160a01b03918216600090815260056020908152604080832093909416825291909152205460ff1690565b610c73611056565b6001600160a01b038116610cd85760405162461bcd60e51b815260206004820152602660248201527f4f776e61626c653a206e6577206f776e657220697320746865207a65726f206160448201526564647265737360d01b60648201526084016105eb565b610b20816110b0565b6000818152600260205260409020546001600160a01b0316610b205760405162461bcd60e51b8152602060048201526018602482015277115490cdcc8c4e881a5b9d985b1a59081d1bdad95b88125160421b60448201526064016105eb565b600081815260046020526040902080546001600160a01b0319166001600160a01b0384169081179091558190610d75826108ef565b6001600160a01b03167f8c5be1e5ebec7d5bd14f71427d1e84f3dd0314c0f7b2291e5b200ac8c7c3b92560405160405180910390a45050565b600080610dba836108ef565b9050806001600160a01b0316846001600160a01b03161480610de15750610de18185610c3d565b80610e055750836001600160a01b0316610dfa84610550565b6001600160a01b0316145b949350505050565b826001600160a01b0316610e20826108ef565b6001600160a01b031614610e845760405162461bcd60e51b815260206004820152602560248201527f4552433732313a207472616e736665722066726f6d20696e636f72726563742060448201526437bbb732b960d91b60648201526084016105eb565b6001600160a01b038216610ee65760405162461bcd60e51b8152602060048201526024808201527f4552433732313a207472616e7366657220746f20746865207a65726f206164646044820152637265737360e01b60648201526084016105eb565b610ef1600082610d40565b6001600160a01b0383166000908152600360205260408120805460019290610f1a908490611cc0565b90915550506001600160a01b0382166000908152600360205260408120805460019290610f48908490611c94565b909155505060008181526002602052604080822080546001600160a01b0319166001600160a01b0386811691821790925591518493918716917fddf252ad1be2c89b69c2b068fc378daa952ba7f163c4a11628f55a4df523b3ef91a4505050565b6109cf8282604051806020016040528060008152506113c7565b6000828152600260205260409020546001600160a01b031661103e5760405162461bcd60e51b815260206004820152602e60248201527f45524337323155524953746f726167653a2055524920736574206f66206e6f6e60448201526d32bc34b9ba32b73a103a37b5b2b760911b60648201526084016105eb565b600082815260066020526040902061068c8282611d21565b6007546001600160a01b03163314610a6b5760405162461bcd60e51b815260206004820181905260248201527f4f776e61626c653a2063616c6c6572206973206e6f7420746865206f776e657260448201526064016105eb565b600780546001600160a01b038381166001600160a01b0319831681179093556040519116919082907f8be0079c531659141344cd1fd0a4f28419497f9722a3daafe3b4186f6b6457e090600090a35050565b816001600160a01b0316836001600160a01b0316036111635760405162461bcd60e51b815260206004820152601960248201527f4552433732313a20617070726f766520746f2063616c6c65720000000000000060448201526064016105eb565b6001600160a01b03838116600081815260056020908152604080832094871680845294825291829020805460ff191686151590811790915591519182527f17307eab39ab6107e8899845ad3d59bd9653f200f220920489ca2b5937696c31910160405180910390a3505050565b6111de600a80546001019055565b60006111e9600a5490565b60408051606081018252338152602080820186815242838501526000858152600b909252929020815181546001600160a01b0319166001600160a01b0390911617815591519293509160018201906112419082611d21565b5060409182015160029091015551339082907f3e1d52f9ee9b009659ccf70171749f40d1a6138fd18c4f4daef9e79fdafc3f1f9061128090869061185f565b60405180910390a35050565b611297848484610e0d565b6112a3848484846113fa565b610b555760405162461bcd60e51b81526004016105eb90611de1565b60606112ca82610ce1565b600082815260066020526040812080546112e390611b98565b80601f016020809104026020016040519081016040528092919081815260200182805461130f90611b98565b801561135c5780601f106113315761010080835404028352916020019161135c565b820191906000526020600020905b81548152906001019060200180831161133f57829003601f168201915b50505050509050600061137a60408051602081019091526000815290565b9050805160000361138c575092915050565b8151156113be5780826040516020016113a6929190611e33565b60405160208183030381529060405292505050919050565b610e05846114fb565b6113d1838361156f565b6113de60008484846113fa565b61068c5760405162461bcd60e51b81526004016105eb90611de1565b60006001600160a01b0384163b156114f057604051630a85bd0160e11b81526001600160a01b0385169063150b7a029061143e903390899088908890600401611e62565b6020604051808303816000875af1925050508015611479575060408051601f3d908101601f1916820190925261147691810190611e9f565b60015b6114d6573d8080156114a7576040519150601f19603f3d011682016040523d82523d6000602084013e6114ac565b606091505b5080516000036114ce5760405162461bcd60e51b81526004016105eb90611de1565b805181602001fd5b6001600160e01b031916630a85bd0160e11b149050610e05565b506001949350505050565b606061150682610ce1565b600061151d60408051602081019091526000815290565b9050600081511161153d5760405180602001604052806000815250611568565b80611547846116b1565b604051602001611558929190611e33565b6040516020818303038152906040525b9392505050565b6001600160a01b0382166115c55760405162461bcd60e51b815260206004820181905260248201527f4552433732313a206d696e7420746f20746865207a65726f206164647265737360448201526064016105eb565b6000818152600260205260409020546001600160a01b03161561162a5760405162461bcd60e51b815260206004820152601c60248201527f4552433732313a20746f6b656e20616c7265616479206d696e7465640000000060448201526064016105eb565b6001600160a01b0382166000908152600360205260408120805460019290611653908490611c94565b909155505060008181526002602052604080822080546001600160a01b0319166001600160a01b03861690811790915590518392907fddf252ad1be2c89b69c2b068fc378daa952ba7f163c4a11628f55a4df523b3ef908290a45050565b6060816000036116d85750506040805180820190915260018152600360fc1b602082015290565b8160005b811561170257806116ec81611ca7565b91506116fb9050600a83611ed2565b91506116dc565b60008167ffffffffffffffff81111561171d5761171d6119c5565b6040519080825280601f01601f191660200182016040528015611747576020820181803683370190505b5090505b8415610e055761175c600183611cc0565b9150611769600a86611ee6565b611774906030611c94565b60f81b81838151811061178957611789611c68565b60200101906001600160f81b031916908160001a9053506117ab600a86611ed2565b945061174b565b604051806060016040528060006001600160a01b0316815260200160608152602001600081525090565b6001600160e01b031981168114610b2057600080fd5b60006020828403121561180457600080fd5b8135611568816117dc565b60005b8381101561182a578181015183820152602001611812565b50506000910152565b6000815180845261184b81602086016020860161180f565b601f01601f19169290920160200192915050565b6020815260006115686020830184611833565b60006020828403121561188457600080fd5b5035919050565b80356001600160a01b03811681146118a257600080fd5b919050565b600080604083850312156118ba57600080fd5b6118c38361188b565b946020939093013593505050565b6000806000606084860312156118e657600080fd5b6118ef8461188b565b92506118fd6020850161188b565b9150604084013590509250925092565b60006020828403121561191f57600080fd5b6115688261188b565b60018060a01b038151168252600060208201516060602085015261194f6060850182611833565b604093840151949093019390935250919050565b6000602080830181845280855180835260408601915060408160051b870101925083870160005b828110156119b857603f198886030184526119a6858351611928565b9450928501929085019060010161198a565b5092979650505050505050565b634e487b7160e01b600052604160045260246000fd5b600067ffffffffffffffff808411156119f6576119f66119c5565b604051601f8501601f19908116603f01168101908282118183101715611a1e57611a1e6119c5565b81604052809350858152868686011115611a3757600080fd5b858560208301376000602087830101525050509392505050565b600060208284031215611a6357600080fd5b813567ffffffffffffffff811115611a7a57600080fd5b8201601f81018413611a8b57600080fd5b610e05848235602084016119db565b60008060408385031215611aad57600080fd5b611ab68361188b565b915060208301358015158114611acb57600080fd5b809150509250929050565b60008060008060808587031215611aec57600080fd5b611af58561188b565b9350611b036020860161188b565b925060408501359150606085013567ffffffffffffffff811115611b2657600080fd5b8501601f81018713611b3757600080fd5b611b46878235602084016119db565b91505092959194509250565b6020815260006115686020830184611928565b60008060408385031215611b7857600080fd5b611b818361188b565b9150611b8f6020840161188b565b90509250929050565b600181811c90821680611bac57607f821691505b602082108103611bcc57634e487b7160e01b600052602260045260246000fd5b50919050565b6020808252602e908201527f4552433732313a2063616c6c6572206973206e6f7420746f6b656e206f776e6560408201526d1c881b9bdc88185c1c1c9bdd995960921b606082015260800190565b60208082526028908201527f796f7520617265206e6f74207468652063726561746f72206f6620746869732060408201526718dbdb9d1c9858dd60c21b606082015260800190565b634e487b7160e01b600052603260045260246000fd5b634e487b7160e01b600052601160045260246000fd5b808201808211156104b8576104b8611c7e565b600060018201611cb957611cb9611c7e565b5060010190565b818103818111156104b8576104b8611c7e565b601f82111561068c57600081815260208120601f850160051c81016020861015611cfa5750805b601f850160051c820191505b81811015611d1957828155600101611d06565b505050505050565b815167ffffffffffffffff811115611d3b57611d3b6119c5565b611d4f81611d498454611b98565b84611cd3565b602080601f831160018114611d845760008415611d6c5750858301515b600019600386901b1c1916600185901b178555611d19565b600085815260208120601f198616915b82811015611db357888601518255948401946001909101908401611d94565b5085821015611dd15787850151600019600388901b60f8161c191681555b5050505050600190811b01905550565b60208082526032908201527f4552433732313a207472616e7366657220746f206e6f6e20455243373231526560408201527131b2b4bb32b91034b6b83632b6b2b73a32b960711b606082015260800190565b60008351611e4581846020880161180f565b835190830190611e5981836020880161180f565b01949350505050565b6001600160a01b0385811682528416602082015260408101839052608060608201819052600090611e9590830184611833565b9695505050505050565b600060208284031215611eb157600080fd5b8151611568816117dc565b634e487b7160e01b600052601260045260246000fd5b600082611ee157611ee1611ebc565b500490565b600082611ef557611ef5611ebc565b50069056fea2646970667358221220e7caf5c5b09258babacff0968b9b98b5e3e635602a7ad6fe96bfa71f3b39e1e564736f6c63430008110033a26469706673582212208e0d6c434938ec5224f209cb94d5fb45f1d6e2b0c607d2c99836ab64d809367364736f6c63430008110033",
  "linkReferences": {},
  "deployedLinkReferences": {}
}