{
  "_format": "hh-sol-artifact-1",
  "contractName": "ArchiveCoin",
  "sourceName": "contracts/ArchiveCoin.sol",
  "abi": [
    {
      "inputs": [],
      "stateMutability": "nonpayable",
      "type": "constructor"
    },
    {
      "anonymous": false,
      "inputs": [
        {
          "indexed": true,
          "internalType": "address",
          "name": "owner",
          "type": "address"
        },
        {
          "indexed": true,
          "internalType": "address",
          "name": "spender",
          "type": "address"
        },
        {
          "indexed": false,
          "internalType": "uint256",
          "name": "value",
          "type": "uint256"
        }
      ],
      "name": "Approval",
      "type": "event"
    },
    {
      "anonymous": false,
      "inputs": [
        {
          "indexed": true,
          "internalType": "address",
          "name": "delegator",
          "type": "address"
        },
        {
          "indexed": true,
          "internalType": "address",
          "name": "fromDelegate",
          "type": "address"
        },
        {
          "indexed": true,
          "internalType": "address",
          "name": "toDelegate",
          "type": "address"
        }
      ],
      "name": "DelegateChanged",
      "type": "event"
    },
    {
      "anonymous": false,
      "inputs": [
        {
          "indexed": true,
          "internalType": "address",
          "name": "delegate",
          "type": "address"
        },
        {
          "indexed": false,
          "internalType": "uint256",
          "name": "previousBalance",
          "type": "uint256"
        },
        {
          "indexed": false,
          "internalType": "uint256",
          "name": "newBalance",
          "type": "uint256"
        }
      ],
      "name": "DelegateVotesChanged",
      "type": "event"
    },
    {
      "anonymous": false,
      "inputs": [
        {
          "indexed": true,
          "internalType": "address",
          "name": "previousOwner",
          "type": "address"
        },
        {
          "indexed": true,
          "internalType": "address",
          "name": "newOwner",
          "type": "address"
        }
      ],
      "name": "OwnershipTransferred",
      "type": "event"
    },
    {
      "anonymous": false,
      "inputs": [
        {
          "indexed": false,
          "internalType": "uint256",
          "name": "id",
          "type": "uint256"
        }
      ],
      "name": "Snapshot",
      "type": "event"
    },
    {
      "anonymous": false,
      "inputs": [
        {
          "indexed": true,
          "internalType": "address",
          "name": "from",
          "type": "address"
        },
        {
          "indexed": true,
          "internalType": "address",
          "name": "to",
          "type": "address"
        },
        {
          "indexed": false,
          "internalType": "uint256",
          "name": "value",
          "type": "uint256"
        }
      ],
      "name": "Transfer",
      "type": "event"
    },
    {
      "inputs": [],
      "name": "DOMAIN_SEPARATOR",
      "outputs": [
        {
          "internalType": "bytes32",
          "name": "",
          "type": "bytes32"
        }
      ],
      "stateMutability": "view",
      "type": "function"
    },
    {
      "inputs": [
        {
          "internalType": "address",
          "name": "owner",
          "type": "address"
        },
        {
          "internalType": "address",
          "name": "spender",
          "type": "address"
        }
      ],
      "name": "allowance",
      "outputs": [
        {
          "internalType": "uint256",
          "name": "",
          "type": "uint256"
        }
      ],
      "stateMutability": "view",
      "type": "function"
    },
    {
      "inputs": [
        {
          "internalType": "address",
          "name": "spender",
          "type": "address"
        },
        {
          "internalType": "uint256",
          "name": "amount",
          "type": "uint256"
        }
      ],
      "name": "approve",
      "outputs": [
        {
          "internalType": "bool",
          "name": "",
          "type": "bool"
        }
      ],
      "stateMutability": "nonpayable",
      "type": "function"
    },
    {
      "inputs": [
        {
          "internalType": "address",
          "name": "account",
          "type": "address"
        }
      ],
      "name": "balanceOf",
      "outputs": [
        {
          "internalType": "uint256",
          "name": "",
          "type": "uint256"
        }
      ],
      "stateMutability": "view",
      "type": "function"
    },
    {
      "inputs": [
        {
          "internalType": "address",
          "name": "account",
          "type": "address"
        },
        {
          "internalType": "uint256",
          "name": "snapshotId",
          "type": "uint256"
        }
      ],
      "name": "balanceOfAt",
      "outputs": [
        {
          "internalType": "uint256",
          "name": "",
          "type": "uint256"
        }
      ],
      "stateMutability": "view",
      "type": "function"
    },
    {
      "inputs": [
        {
          "internalType": "uint256",
          "name": "amount",
          "type": "uint256"
        }
      ],
      "name": "burn",
      "outputs": [],
      "stateMutability": "nonpayable",
      "type": "function"
    },
    {
      "inputs": [
        {
          "internalType": "address",
          "name": "account",
          "type": "address"
        },
        {
          "internalType": "uint256",
          "name": "amount",
          "type": "uint256"
        }
      ],
      "name": "burnFrom",
      "outputs": [],
      "stateMutability": "nonpayable",
      "type": "function"
    },
    {
      "inputs": [
        {
          "internalType": "address",
          "name": "account",
          "type": "address"
        },
        {
          "internalType": "uint32",
          "name": "pos",
          "type": "uint32"
        }
      ],
      "name": "checkpoints",
      "outputs": [
        {
          "components": [
            {
              "internalType": "uint32",
              "name": "fromBlock",
              "type": "uint32"
            },
            {
              "internalType": "uint224",
              "name": "votes",
              "type": "uint224"
            }
          ],
          "internalType": "struct ERC20Votes.Checkpoint",
          "name": "",
          "type": "tuple"
        }
      ],
      "stateMutability": "view",
      "type": "function"
    },
    {
      "inputs": [
        {
          "internalType": "uint256",
          "name": "mintPrice",
          "type": "uint256"
        }
      ],
      "name": "createNftContract",
      "outputs": [
        {
          "internalType": "contract MyToken",
          "name": "",
          "type": "address"
        }
      ],
      "stateMutability": "payable",
      "type": "function"
    },
    {
      "inputs": [],
      "name": "decimals",
      "outputs": [
        {
          "internalType": "uint8",
          "name": "",
          "type": "uint8"
        }
      ],
      "stateMutability": "view",
      "type": "function"
    },
    {
      "inputs": [
        {
          "internalType": "address",
          "name": "spender",
          "type": "address"
        },
        {
          "internalType": "uint256",
          "name": "subtractedValue",
          "type": "uint256"
        }
      ],
      "name": "decreaseAllowance",
      "outputs": [
        {
          "internalType": "bool",
          "name": "",
          "type": "bool"
        }
      ],
      "stateMutability": "nonpayable",
      "type": "function"
    },
    {
      "inputs": [
        {
          "internalType": "address",
          "name": "delegatee",
          "type": "address"
        }
      ],
      "name": "delegate",
      "outputs": [],
      "stateMutability": "nonpayable",
      "type": "function"
    },
    {
      "inputs": [
        {
          "internalType": "address",
          "name": "delegatee",
          "type": "address"
        },
        {
          "internalType": "uint256",
          "name": "nonce",
          "type": "uint256"
        },
        {
          "internalType": "uint256",
          "name": "expiry",
          "type": "uint256"
        },
        {
          "internalType": "uint8",
          "name": "v",
          "type": "uint8"
        },
        {
          "internalType": "bytes32",
          "name": "r",
          "type": "bytes32"
        },
        {
          "internalType": "bytes32",
          "name": "s",
          "type": "bytes32"
        }
      ],
      "name": "delegateBySig",
      "outputs": [],
      "stateMutability": "nonpayable",
      "type": "function"
    },
    {
      "inputs": [
        {
          "internalType": "address",
          "name": "account",
          "type": "address"
        }
      ],
      "name": "delegates",
      "outputs": [
        {
          "internalType": "address",
          "name": "",
          "type": "address"
        }
      ],
      "stateMutability": "view",
      "type": "function"
    },
    {
      "inputs": [],
      "name": "getAllComments",
      "outputs": [
        {
          "components": [
            {
              "internalType": "address",
              "name": "sender",
              "type": "address"
            },
            {
              "internalType": "string",
              "name": "text",
              "type": "string"
            },
            {
              "internalType": "uint256",
              "name": "replyTo",
              "type": "uint256"
            },
            {
              "internalType": "uint256",
              "name": "timestamp",
              "type": "uint256"
            }
          ],
          "internalType": "struct ArchiveCoin.Comment[]",
          "name": "",
          "type": "tuple[]"
        }
      ],
      "stateMutability": "view",
      "type": "function"
    },
    {
      "inputs": [],
      "name": "getAllPosts",
      "outputs": [
        {
          "components": [
            {
              "internalType": "address",
              "name": "sender",
              "type": "address"
            },
            {
              "internalType": "string",
              "name": "title",
              "type": "string"
            },
            {
              "internalType": "string",
              "name": "text",
              "type": "string"
            },
            {
              "internalType": "uint256",
              "name": "replyTo",
              "type": "uint256"
            },
            {
              "internalType": "uint256",
              "name": "timestamp",
              "type": "uint256"
            }
          ],
          "internalType": "struct ArchiveCoin.Post[]",
          "name": "",
          "type": "tuple[]"
        }
      ],
      "stateMutability": "view",
      "type": "function"
    },
    {
      "inputs": [],
      "name": "getAmount",
      "outputs": [
        {
          "internalType": "uint256",
          "name": "",
          "type": "uint256"
        }
      ],
      "stateMutability": "view",
      "type": "function"
    },
    {
      "inputs": [
        {
          "internalType": "uint256",
          "name": "cId",
          "type": "uint256"
        }
      ],
      "name": "getCommentForCId",
      "outputs": [
        {
          "components": [
            {
              "internalType": "address",
              "name": "sender",
              "type": "address"
            },
            {
              "internalType": "string",
              "name": "text",
              "type": "string"
            },
            {
              "internalType": "uint256",
              "name": "replyTo",
              "type": "uint256"
            },
            {
              "internalType": "uint256",
              "name": "timestamp",
              "type": "uint256"
            }
          ],
          "internalType": "struct ArchiveCoin.Comment",
          "name": "",
          "type": "tuple"
        }
      ],
      "stateMutability": "view",
      "type": "function"
    },
    {
      "inputs": [
        {
          "internalType": "address",
          "name": "e",
          "type": "address"
        }
      ],
      "name": "getEoaToContract",
      "outputs": [
        {
          "internalType": "address",
          "name": "",
          "type": "address"
        }
      ],
      "stateMutability": "view",
      "type": "function"
    },
    {
      "inputs": [],
      "name": "getFee",
      "outputs": [
        {
          "internalType": "uint256",
          "name": "",
          "type": "uint256"
        }
      ],
      "stateMutability": "view",
      "type": "function"
    },
    {
      "inputs": [
        {
          "internalType": "uint256",
          "name": "blockNumber",
          "type": "uint256"
        }
      ],
      "name": "getPastTotalSupply",
      "outputs": [
        {
          "internalType": "uint256",
          "name": "",
          "type": "uint256"
        }
      ],
      "stateMutability": "view",
      "type": "function"
    },
    {
      "inputs": [
        {
          "internalType": "address",
          "name": "account",
          "type": "address"
        },
        {
          "internalType": "uint256",
          "name": "blockNumber",
          "type": "uint256"
        }
      ],
      "name": "getPastVotes",
      "outputs": [
        {
          "internalType": "uint256",
          "name": "",
          "type": "uint256"
        }
      ],
      "stateMutability": "view",
      "type": "function"
    },
    {
      "inputs": [
        {
          "internalType": "uint256",
          "name": "pId",
          "type": "uint256"
        }
      ],
      "name": "getPostForPId",
      "outputs": [
        {
          "components": [
            {
              "internalType": "address",
              "name": "sender",
              "type": "address"
            },
            {
              "internalType": "string",
              "name": "title",
              "type": "string"
            },
            {
              "internalType": "string",
              "name": "text",
              "type": "string"
            },
            {
              "internalType": "uint256",
              "name": "replyTo",
              "type": "uint256"
            },
            {
              "internalType": "uint256",
              "name": "timestamp",
              "type": "uint256"
            }
          ],
          "internalType": "struct ArchiveCoin.Post",
          "name": "",
          "type": "tuple"
        }
      ],
      "stateMutability": "view",
      "type": "function"
    },
    {
      "inputs": [],
      "name": "getRange",
      "outputs": [
        {
          "internalType": "uint256",
          "name": "",
          "type": "uint256"
        }
      ],
      "stateMutability": "view",
      "type": "function"
    },
    {
      "inputs": [
        {
          "internalType": "address",
          "name": "account",
          "type": "address"
        }
      ],
      "name": "getVotes",
      "outputs": [
        {
          "internalType": "uint256",
          "name": "",
          "type": "uint256"
        }
      ],
      "stateMutability": "view",
      "type": "function"
    },
    {
      "inputs": [
        {
          "internalType": "address",
          "name": "spender",
          "type": "address"
        },
        {
          "internalType": "uint256",
          "name": "addedValue",
          "type": "uint256"
        }
      ],
      "name": "increaseAllowance",
      "outputs": [
        {
          "internalType": "bool",
          "name": "",
          "type": "bool"
        }
      ],
      "stateMutability": "nonpayable",
      "type": "function"
    },
    {
      "inputs": [],
      "name": "name",
      "outputs": [
        {
          "internalType": "string",
          "name": "",
          "type": "string"
        }
      ],
      "stateMutability": "view",
      "type": "function"
    },
    {
      "inputs": [
        {
          "internalType": "address",
          "name": "owner",
          "type": "address"
        }
      ],
      "name": "nonces",
      "outputs": [
        {
          "internalType": "uint256",
          "name": "",
          "type": "uint256"
        }
      ],
      "stateMutability": "view",
      "type": "function"
    },
    {
      "inputs": [
        {
          "internalType": "address",
          "name": "account",
          "type": "address"
        }
      ],
      "name": "numCheckpoints",
      "outputs": [
        {
          "internalType": "uint32",
          "name": "",
          "type": "uint32"
        }
      ],
      "stateMutability": "view",
      "type": "function"
    },
    {
      "inputs": [],
      "name": "owner",
      "outputs": [
        {
          "internalType": "address",
          "name": "",
          "type": "address"
        }
      ],
      "stateMutability": "view",
      "type": "function"
    },
    {
      "inputs": [
        {
          "internalType": "address",
          "name": "owner",
          "type": "address"
        },
        {
          "internalType": "address",
          "name": "spender",
          "type": "address"
        },
        {
          "internalType": "uint256",
          "name": "value",
          "type": "uint256"
        },
        {
          "internalType": "uint256",
          "name": "deadline",
          "type": "uint256"
        },
        {
          "internalType": "uint8",
          "name": "v",
          "type": "uint8"
        },
        {
          "internalType": "bytes32",
          "name": "r",
          "type": "bytes32"
        },
        {
          "internalType": "bytes32",
          "name": "s",
          "type": "bytes32"
        }
      ],
      "name": "permit",
      "outputs": [],
      "stateMutability": "nonpayable",
      "type": "function"
    },
    {
      "inputs": [],
      "name": "renounceOwnership",
      "outputs": [],
      "stateMutability": "nonpayable",
      "type": "function"
    },
    {
      "inputs": [
        {
          "internalType": "uint256",
          "name": "num",
          "type": "uint256"
        }
      ],
      "name": "setAmount",
      "outputs": [],
      "stateMutability": "nonpayable",
      "type": "function"
    },
    {
      "inputs": [
        {
          "internalType": "string",
          "name": "text",
          "type": "string"
        },
        {
          "internalType": "uint256",
          "name": "replyTo",
          "type": "uint256"
        }
      ],
      "name": "setComment",
      "outputs": [],
      "stateMutability": "nonpayable",
      "type": "function"
    },
    {
      "inputs": [
        {
          "internalType": "address",
          "name": "c",
          "type": "address"
        }
      ],
      "name": "setEoaToContract",
      "outputs": [],
      "stateMutability": "nonpayable",
      "type": "function"
    },
    {
      "inputs": [
        {
          "internalType": "uint256",
          "name": "newFee",
          "type": "uint256"
        }
      ],
      "name": "setFee",
      "outputs": [],
      "stateMutability": "nonpayable",
      "type": "function"
    },
    {
      "inputs": [
        {
          "internalType": "string",
          "name": "title",
          "type": "string"
        },
        {
          "internalType": "string",
          "name": "text",
          "type": "string"
        },
        {
          "internalType": "uint256",
          "name": "replyTo",
          "type": "uint256"
        }
      ],
      "name": "setPost",
      "outputs": [],
      "stateMutability": "nonpayable",
      "type": "function"
    },
    {
      "inputs": [
        {
          "internalType": "uint256",
          "name": "num",
          "type": "uint256"
        }
      ],
      "name": "setRange",
      "outputs": [],
      "stateMutability": "nonpayable",
      "type": "function"
    },
    {
      "inputs": [],
      "name": "snapshot",
      "outputs": [],
      "stateMutability": "nonpayable",
      "type": "function"
    },
    {
      "inputs": [],
      "name": "symbol",
      "outputs": [
        {
          "internalType": "string",
          "name": "",
          "type": "string"
        }
      ],
      "stateMutability": "view",
      "type": "function"
    },
    {
      "inputs": [],
      "name": "totalSupply",
      "outputs": [
        {
          "internalType": "uint256",
          "name": "",
          "type": "uint256"
        }
      ],
      "stateMutability": "view",
      "type": "function"
    },
    {
      "inputs": [
        {
          "internalType": "uint256",
          "name": "snapshotId",
          "type": "uint256"
        }
      ],
      "name": "totalSupplyAt",
      "outputs": [
        {
          "internalType": "uint256",
          "name": "",
          "type": "uint256"
        }
      ],
      "stateMutability": "view",
      "type": "function"
    },
    {
      "inputs": [
        {
          "internalType": "address",
          "name": "to",
          "type": "address"
        },
        {
          "internalType": "uint256",
          "name": "amount",
          "type": "uint256"
        }
      ],
      "name": "transfer",
      "outputs": [
        {
          "internalType": "bool",
          "name": "",
          "type": "bool"
        }
      ],
      "stateMutability": "nonpayable",
      "type": "function"
    },
    {
      "inputs": [
        {
          "internalType": "address",
          "name": "from",
          "type": "address"
        },
        {
          "internalType": "address",
          "name": "to",
          "type": "address"
        },
        {
          "internalType": "uint256",
          "name": "amount",
          "type": "uint256"
        }
      ],
      "name": "transferFrom",
      "outputs": [
        {
          "internalType": "bool",
          "name": "",
          "type": "bool"
        }
      ],
      "stateMutability": "nonpayable",
      "type": "function"
    },
    {
      "inputs": [
        {
          "internalType": "address",
          "name": "newOwner",
          "type": "address"
        }
      ],
      "name": "transferOwnership",
      "outputs": [],
      "stateMutability": "nonpayable",
      "type": "function"
    }
  ],
  "bytecode": "0x6101406040523480156200001257600080fd5b506040518060400160405280600c81526020016b20b931b434bb329021b7b4b760a11b81525080604051806040016040528060018152602001603160f81b8152506040518060400160405280600c81526020016b20b931b434bb329021b7b4b760a11b81525060405180604001604052806005815260200164020a921ab160dd1b8152508160039081620000a791906200027f565b506004620000b682826200027f565b505050620000d3620000cd6200018460201b60201c565b62000188565b815160208084019190912082518383012060e08290526101008190524660a0818152604080517f8b73c3c69bb8fe3d512ecc4cf759cc79239f7b179b0ffacaa9a75d522b39400f81880181905281830187905260608201869052608082019490945230818401528151808203909301835260c00190528051940193909320919290916080523060c05261012052505060026011555050600160125550601e601455655af3107a40006013556200034b565b3390565b600980546001600160a01b038381166001600160a01b0319831681179093556040519116919082907f8be0079c531659141344cd1fd0a4f28419497f9722a3daafe3b4186f6b6457e090600090a35050565b634e487b7160e01b600052604160045260246000fd5b600181811c908216806200020557607f821691505b6020821081036200022657634e487b7160e01b600052602260045260246000fd5b50919050565b601f8211156200027a57600081815260208120601f850160051c81016020861015620002555750805b601f850160051c820191505b81811015620002765782815560010162000261565b5050505b505050565b81516001600160401b038111156200029b576200029b620001da565b620002b381620002ac8454620001f0565b846200022c565b602080601f831160018114620002eb5760008415620002d25750858301515b600019600386901b1c1916600185901b17855562000276565b600085815260208120601f198616915b828110156200031c57888601518255948401946001909101908401620002fb565b50858210156200033b5787850151600019600388901b60f8161c191681555b5050505050600190811b01905550565b60805160a05160c05160e05161010051610120516158c56200039b6000396000611f4b01526000611f9a01526000611f7501526000611ecc01526000611ef701526000611f2201526158c56000f3fe608060405260043610620002a75760003560e01c806379cc6790116200016b5780639b85961f11620000d1578063d321fe291162000084578063d321fe2914620008be578063d505accf14620008d5578063dd62ed3e14620008fa578063e6a90da5146200091f578063f1127ed81462000944578063f2fde38b146200099457600080fd5b80639b85961f146200080a578063a457c2d71462000821578063a9059cbb1462000846578063abdef075146200086b578063c3cda5201462000882578063ced72f8714620008a757600080fd5b806395d89b41116200012a57806395d89b4114620007285780639711715a14620007405780639770de271462000758578063981b24d0146200078c5780639ab24eb014620007b15780639ac9798e14620007d657600080fd5b806379cc6790146200064b5780637ecebe0014620006705780638da5cb5b14620006955780638e1bb16914620006b55780638e539e8c146200070357600080fd5b80633ca68936116200021157806369fe0e2d11620001d057806369fe0e2d146200054f5780636a91991b14620005745780636fcfff45146200059957806370625cfd14620005d457806370a0823114620005f9578063715018a6146200063357600080fd5b80633ca68936146200044d57806342966c6814620004a35780634ee2cd7e14620004c8578063587cde1e14620004ed5780635c19a95c146200052a57600080fd5b8063271f88b4116200026a578063271f88b4146200037f5780633056110014620003a6578063313ce56714620003cd5780633644e51514620003eb5780633950935114620004035780633a46b1a8146200042857600080fd5b806306fdde0314620002ac578063095ea7b314620002dc57806310440904146200031257806318160ddd146200033957806323b872dd146200035a575b600080fd5b348015620002b957600080fd5b50620002c4620009b9565b604051620002d39190620030e3565b60405180910390f35b348015620002e957600080fd5b5062000301620002fb36600462003110565b62000a53565b6040519015158152602001620002d3565b3480156200031f57600080fd5b506200032a62000a6f565b604051620002d3919062003186565b3480156200034657600080fd5b506002545b604051908152602001620002d3565b3480156200036757600080fd5b506200030162000379366004620031ec565b62000c50565b3480156200038c57600080fd5b50620003a46200039e3660046200322d565b62000c78565b005b348015620003b357600080fd5b50620003be62000c87565b604051620002d39190620032ac565b348015620003da57600080fd5b5060405160128152602001620002d3565b348015620003f857600080fd5b506200034b62000ecf565b3480156200041057600080fd5b50620003016200042236600462003110565b62000ee0565b3480156200043557600080fd5b506200034b6200044736600462003110565b62000f08565b3480156200045a57600080fd5b506200048a6200046c36600462003305565b6001600160a01b039081166000908152601760205260409020541690565b6040516001600160a01b039091168152602001620002d3565b348015620004b057600080fd5b50620003a4620004c23660046200322d565b62000f8a565b348015620004d557600080fd5b506200034b620004e736600462003110565b62000f99565b348015620004fa57600080fd5b506200048a6200050c36600462003305565b6001600160a01b039081166000908152600c60205260409020541690565b3480156200053757600080fd5b50620003a46200054936600462003305565b62000ff6565b3480156200055c57600080fd5b50620003a46200056e3660046200322d565b62001002565b3480156200058157600080fd5b50620003a4620005933660046200322d565b62001011565b348015620005a657600080fd5b50620005be620005b836600462003305565b62001020565b60405163ffffffff9091168152602001620002d3565b348015620005e157600080fd5b50620003a4620005f3366004620033ce565b62001044565b3480156200060657600080fd5b506200034b6200061836600462003305565b6001600160a01b031660009081526020819052604090205490565b3480156200064057600080fd5b50620003a46200110a565b3480156200065857600080fd5b50620003a46200066a36600462003110565b62001122565b3480156200067d57600080fd5b506200034b6200068f36600462003305565b6200113f565b348015620006a257600080fd5b506009546001600160a01b03166200048a565b348015620006c257600080fd5b50620003a4620006d436600462003305565b33600090815260176020526040902080546001600160a01b0319166001600160a01b0392909216919091179055565b3480156200071057600080fd5b506200034b620007223660046200322d565b6200115e565b3480156200073557600080fd5b50620002c4620011be565b3480156200074d57600080fd5b50620003a4620011cf565b3480156200076557600080fd5b506200077d620007773660046200322d565b620011e3565b604051620002d3919062003442565b3480156200079957600080fd5b506200034b620007ab3660046200322d565b62001368565b348015620007be57600080fd5b506200034b620007d036600462003305565b62001397565b348015620007e357600080fd5b50620007fb620007f53660046200322d565b62001425565b604051620002d3919062003457565b3480156200081757600080fd5b506011546200034b565b3480156200082e57600080fd5b50620003016200084036600462003110565b6200153b565b3480156200085357600080fd5b50620003016200086536600462003110565b620015bc565b6200048a6200087c3660046200322d565b620015cc565b3480156200088f57600080fd5b50620003a4620008a13660046200347e565b62001653565b348015620008b457600080fd5b506013546200034b565b348015620008cb57600080fd5b506012546200034b565b348015620008e257600080fd5b50620003a4620008f4366004620034db565b62001795565b3480156200090757600080fd5b506200034b620009193660046200354c565b62001905565b3480156200092c57600080fd5b50620003a46200093e36600462003584565b62001930565b3480156200095157600080fd5b506200096962000963366004620035cd565b620019cb565b60408051825163ffffffff1681526020928301516001600160e01b03169281019290925201620002d3565b348015620009a157600080fd5b50620003a4620009b336600462003305565b62001a52565b606060038054620009ca9062003611565b80601f0160208091040260200160405190810160405280929190818152602001828054620009f89062003611565b801562000a495780601f1062000a1d5761010080835404028352916020019162000a49565b820191906000526020600020905b81548152906001019060200180831162000a2b57829003601f168201915b5050505050905090565b60003362000a6381858562001ace565b60019150505b92915050565b6060600062000a7d60105490565b90506000808267ffffffffffffffff81111562000a9e5762000a9e62003323565b60405190808252806020026020018201604052801562000b0657816020015b62000af2604051806080016040528060006001600160a01b031681526020016060815260200160008152602001600081525090565b81526020019060019003908162000abd5790505b50905060005b8381101562000c48576016600062000b268360016200365d565b8152602080820192909252604090810160002081516080810190925280546001600160a01b03168252600181018054929391929184019162000b689062003611565b80601f016020809104026020016040519081016040528092919081815260200182805462000b969062003611565b801562000be75780601f1062000bbb5761010080835404028352916020019162000be7565b820191906000526020600020905b81548152906001019060200180831162000bc957829003601f168201915b505050505081526020016002820154815260200160038201548152505082848151811062000c195762000c1962003673565b602090810291909101015262000c316001846200365d565b92508062000c3f8162003689565b91505062000b0c565b509392505050565b60003362000c6085828562001bf6565b62000c6d85858562001c77565b506001949350505050565b62000c8262001e63565b601255565b6060600062000c95600f5490565b90506000808267ffffffffffffffff81111562000cb65762000cb662003323565b60405190808252806020026020018201604052801562000cf357816020015b62000cdf62003055565b81526020019060019003908162000cd55790505b50905060005b8381101562000c48576015600062000d138360016200365d565b81526020808201929092526040908101600020815160a0810190925280546001600160a01b03168252600181018054929391929184019162000d559062003611565b80601f016020809104026020016040519081016040528092919081815260200182805462000d839062003611565b801562000dd45780601f1062000da85761010080835404028352916020019162000dd4565b820191906000526020600020905b81548152906001019060200180831162000db657829003601f168201915b5050505050815260200160028201805462000def9062003611565b80601f016020809104026020016040519081016040528092919081815260200182805462000e1d9062003611565b801562000e6e5780601f1062000e425761010080835404028352916020019162000e6e565b820191906000526020600020905b81548152906001019060200180831162000e5057829003601f168201915b505050505081526020016003820154815260200160048201548152505082848151811062000ea05762000ea062003673565b602090810291909101015262000eb86001846200365d565b92508062000ec68162003689565b91505062000cf9565b600062000edb62001ebf565b905090565b60003362000a6381858562000ef6838362001905565b62000f0291906200365d565b62001ace565b600043821062000f5f5760405162461bcd60e51b815260206004820152601f60248201527f4552433230566f7465733a20626c6f636b206e6f7420796574206d696e65640060448201526064015b60405180910390fd5b6001600160a01b0383166000908152600d6020526040902062000f83908362001fe8565b9392505050565b62000f963382620020b7565b50565b6001600160a01b03821660009081526005602052604081208190819062000fc2908590620020c3565b915091508162000feb576001600160a01b03851660009081526020819052604090205462000fed565b805b95945050505050565b62000f963382620021c6565b6200100c62001e63565b601355565b6200101b62001e63565b601155565b6001600160a01b0381166000908152600d602052604081205462000a699062002241565b62001053600f80546001019055565b60006200105f600f5490565b6040805160a08101825233815260208082018881528284018890526060830187905242608084015260008581526015909252929020815181546001600160a01b0319166001600160a01b039091161781559151929350918291906001820190620010ca9082620036f7565b5060408201516002820190620010e19082620036f7565b50606082015160038201556080909101516004909101556200110333620022ac565b5050505050565b6200111462001e63565b620011206000620022cc565b565b6200112f82338362001bf6565b6200113b8282620020b7565b5050565b6001600160a01b0381166000908152600a602052604081205462000a69565b6000438210620011b15760405162461bcd60e51b815260206004820152601f60248201527f4552433230566f7465733a20626c6f636b206e6f7420796574206d696e656400604482015260640162000f56565b62000a69600e8362001fe8565b606060048054620009ca9062003611565b620011d962001e63565b62000f966200231e565b620011ed62003055565b600082815260156020908152604091829020825160a0810190935280546001600160a01b0316835260018101805491928401916200122b9062003611565b80601f0160208091040260200160405190810160405280929190818152602001828054620012599062003611565b8015620012aa5780601f106200127e57610100808354040283529160200191620012aa565b820191906000526020600020905b8154815290600101906020018083116200128c57829003601f168201915b50505050508152602001600282018054620012c59062003611565b80601f0160208091040260200160405190810160405280929190818152602001828054620012f39062003611565b8015620013445780601f10620013185761010080835404028352916020019162001344565b820191906000526020600020905b8154815290600101906020018083116200132657829003601f168201915b50505050508152602001600382015481526020016004820154815250509050919050565b60008060006200137a846006620020c3565b91509150816200138d576002546200138f565b805b949350505050565b6001600160a01b0381166000908152600d6020526040812054801562001412576001600160a01b0383166000908152600d60205260409020620013dc600183620037c4565b81548110620013ef57620013ef62003673565b60009182526020909120015464010000000090046001600160e01b031662001415565b60005b6001600160e01b03169392505050565b6200145a604051806080016040528060006001600160a01b031681526020016060815260200160008152602001600081525090565b60008281526016602090815260409182902082516080810190935280546001600160a01b031683526001810180549192840191620014989062003611565b80601f0160208091040260200160405190810160405280929190818152602001828054620014c69062003611565b8015620015175780601f10620014eb5761010080835404028352916020019162001517565b820191906000526020600020905b815481529060010190602001808311620014f957829003601f168201915b50505050508152602001600282015481526020016003820154815250509050919050565b600033816200154b828662001905565b905083811015620015ad5760405162461bcd60e51b815260206004820152602560248201527f45524332303a2064656372656173656420616c6c6f77616e63652062656c6f77604482015264207a65726f60d81b606482015260840162000f56565b62000c6d828686840362001ace565b60003362000a6381858562001c77565b600060135434146200161a5760405162461bcd60e51b81526020600482015260166024820152751b5cd9c81d985b1d59481a5cc81a5b98dbdc9c9958dd60521b604482015260640162000f56565b8160405162001629906200308d565b908152602001604051809103906000f0801580156200164c573d6000803e3d6000fd5b5092915050565b83421115620016a55760405162461bcd60e51b815260206004820152601d60248201527f4552433230566f7465733a207369676e61747572652065787069726564000000604482015260640162000f56565b604080517fe48329057bfd03d55e49b547132e39cffd9c1820ad7b9d4c5307691425d15adf60208201526001600160a01b03881691810191909152606081018690526080810185905260009062001723906200171a9060a001604051602081830303815290604052805190602001206200237c565b858585620023cd565b90506200173081620023f9565b8614620017805760405162461bcd60e51b815260206004820152601960248201527f4552433230566f7465733a20696e76616c6964206e6f6e636500000000000000604482015260640162000f56565b6200178c8188620021c6565b50505050505050565b83421115620017e75760405162461bcd60e51b815260206004820152601d60248201527f45524332305065726d69743a206578706972656420646561646c696e65000000604482015260640162000f56565b60007f6e71edae12b1b97f4d1f60370fef10105fa2faae0126114a169c64845d6126c9888888620018188c620023f9565b6040805160208101969096526001600160a01b0394851690860152929091166060840152608083015260a082015260c0810186905260e001604051602081830303815290604052805190602001209050600062001875826200237c565b905060006200188782878787620023cd565b9050896001600160a01b0316816001600160a01b031614620018ec5760405162461bcd60e51b815260206004820152601e60248201527f45524332305065726d69743a20696e76616c6964207369676e61747572650000604482015260640162000f56565b620018f98a8a8a62001ace565b50505050505050505050565b6001600160a01b03918216600090815260016020908152604080832093909416825291909152205490565b60006200193c60105490565b90506200194d601080546001019055565b60408051608081018252338152602080820186815282840186905242606084015260008581526016909252929020815181546001600160a01b0319166001600160a01b039091161781559151909182916001820190620019ae9082620036f7565b506040820151600282015560609091015160039091015550505050565b60408051808201909152600080825260208201526001600160a01b0383166000908152600d60205260409020805463ffffffff841690811062001a125762001a1262003673565b60009182526020918290206040805180820190915291015463ffffffff8116825264010000000090046001600160e01b0316918101919091529392505050565b62001a5c62001e63565b6001600160a01b03811662001ac35760405162461bcd60e51b815260206004820152602660248201527f4f776e61626c653a206e6577206f776e657220697320746865207a65726f206160448201526564647265737360d01b606482015260840162000f56565b62000f9681620022cc565b6001600160a01b03831662001b325760405162461bcd60e51b8152602060048201526024808201527f45524332303a20617070726f76652066726f6d20746865207a65726f206164646044820152637265737360e01b606482015260840162000f56565b6001600160a01b03821662001b955760405162461bcd60e51b815260206004820152602260248201527f45524332303a20617070726f766520746f20746865207a65726f206164647265604482015261737360f01b606482015260840162000f56565b6001600160a01b0383811660008181526001602090815260408083209487168084529482529182902085905590518481527f8c5be1e5ebec7d5bd14f71427d1e84f3dd0314c0f7b2291e5b200ac8c7c3b925910160405180910390a3505050565b600062001c04848462001905565b9050600019811462001c71578181101562001c625760405162461bcd60e51b815260206004820152601d60248201527f45524332303a20696e73756666696369656e7420616c6c6f77616e6365000000604482015260640162000f56565b62001c71848484840362001ace565b50505050565b6001600160a01b03831662001cdd5760405162461bcd60e51b815260206004820152602560248201527f45524332303a207472616e736665722066726f6d20746865207a65726f206164604482015264647265737360d81b606482015260840162000f56565b6001600160a01b03821662001d415760405162461bcd60e51b815260206004820152602360248201527f45524332303a207472616e7366657220746f20746865207a65726f206164647260448201526265737360e81b606482015260840162000f56565b62001d4e83838362002421565b6001600160a01b0383166000908152602081905260409020548181101562001dc85760405162461bcd60e51b815260206004820152602660248201527f45524332303a207472616e7366657220616d6f756e7420657863656564732062604482015265616c616e636560d01b606482015260840162000f56565b6001600160a01b0380851660009081526020819052604080822085850390559185168152908120805484929062001e019084906200365d565b92505081905550826001600160a01b0316846001600160a01b03167fddf252ad1be2c89b69c2b068fc378daa952ba7f163c4a11628f55a4df523b3ef8460405162001e4e91815260200190565b60405180910390a362001c7184848462002433565b6009546001600160a01b03163314620011205760405162461bcd60e51b815260206004820181905260248201527f4f776e61626c653a2063616c6c6572206973206e6f7420746865206f776e6572604482015260640162000f56565b6000306001600160a01b037f00000000000000000000000000000000000000000000000000000000000000001614801562001f1957507f000000000000000000000000000000000000000000000000000000000000000046145b1562001f4457507f000000000000000000000000000000000000000000000000000000000000000090565b50604080517f00000000000000000000000000000000000000000000000000000000000000006020808301919091527f0000000000000000000000000000000000000000000000000000000000000000828401527f000000000000000000000000000000000000000000000000000000000000000060608301524660808301523060a0808401919091528351808403909101815260c0909201909252805191012090565b8154600090815b818110156200205757600062002006828462002440565b9050848682815481106200201e576200201e62003673565b60009182526020909120015463ffffffff161115620020405780925062002050565b6200204d8160016200365d565b91505b5062001fef565b8115620020a257846200206c600184620037c4565b815481106200207f576200207f62003673565b60009182526020909120015464010000000090046001600160e01b0316620020a5565b60005b6001600160e01b031695945050505050565b6200113b82826200245f565b60008060008411620021115760405162461bcd60e51b815260206004820152601660248201527504552433230536e617073686f743a20696420697320360541b604482015260640162000f56565b6200211b6200247c565b8411156200216c5760405162461bcd60e51b815260206004820152601d60248201527f4552433230536e617073686f743a206e6f6e6578697374656e74206964000000604482015260640162000f56565b60006200217a848662002488565b8454909150810362002194576000809250925050620021bf565b6001846001018281548110620021ae57620021ae62003673565b906000526020600020015492509250505b9250929050565b6001600160a01b038281166000818152600c60208181526040808420805485845282862054949093528787166001600160a01b03198416811790915590519190951694919391928592917f3134e8a2e6d97e929a7e54011ea5485d7d196dd5f0ba4d4ef95803e8e3fc257f9190a462001c7182848362002565565b600063ffffffff821115620022a85760405162461bcd60e51b815260206004820152602660248201527f53616665436173743a2076616c756520646f65736e27742066697420696e203360448201526532206269747360d01b606482015260840162000f56565b5090565b620022b6620026ae565b60010362000f965762000f968160125462002706565b600980546001600160a01b038381166001600160a01b0319831681179093556040519116919082907f8be0079c531659141344cd1fd0a4f28419497f9722a3daafe3b4186f6b6457e090600090a35050565b60006200232f600880546001019055565b60006200233b6200247c565b90507f8030e83b04d87bef53480e26263266d6ca66863aa8506aca6f2559d18aa1cb67816040516200236f91815260200190565b60405180910390a1919050565b600062000a696200238c62001ebf565b8360405161190160f01b6020820152602281018390526042810182905260009060620160405160208183030381529060405280519060200120905092915050565b6000806000620023e08787878762002712565b91509150620023ef8162002807565b5095945050505050565b6001600160a01b0381166000908152600a602052604090208054600181018255905b50919050565b6200242e838383620029d5565b505050565b6200242e83838362002a29565b6000620024516002848418620037f0565b62000f83908484166200365d565b6200246b828262002a5d565b62001c71600e62002bc88362002bd6565b600062000edb60085490565b815460009081036200249d5750600062000a69565b82546000905b8082101562002504576000620024ba838362002440565b905084868281548110620024d257620024d262003673565b90600052602060002001541115620024ed57809150620024fd565b620024fa8160016200365d565b92505b50620024a3565b6000821180156200253f575083856200251f600185620037c4565b8154811062002532576200253262003673565b9060005260206000200154145b156200255c5762002552600183620037c4565b9250505062000a69565b50905062000a69565b816001600160a01b0316836001600160a01b031614158015620025885750600081115b156200242e576001600160a01b038316156200261c576001600160a01b0383166000908152600d602052604081208190620025c89062002bc88562002bd6565b91509150846001600160a01b03167fdec2bacdd2f05b59de34da9b523dff8be42e5e38e818c82fdb0bae774387a724838360405162002611929190918252602082015260400190565b60405180910390a250505b6001600160a01b038216156200242e576001600160a01b0382166000908152600d602052604081208190620026569062002d6a8562002bd6565b91509150836001600160a01b03167fdec2bacdd2f05b59de34da9b523dff8be42e5e38e818c82fdb0bae774387a72483836040516200269f929190918252602082015260400190565b60405180910390a25050505050565b60006011544442620026bf600f5490565b6010546040805160208101959095528401929092526060830152608082015260a0016040516020818303038152906040528051906020012060001c62000edb919062003807565b6200113b828262002d78565b6000807f7fffffffffffffffffffffffffffffff5d576e7357a4501ddfe92f46681b20a08311156200274b5750600090506003620027fe565b8460ff16601b141580156200276457508460ff16601c14155b15620027775750600090506004620027fe565b6040805160008082526020820180845289905260ff881692820192909252606081018690526080810185905260019060a0016020604051602081039080840390855afa158015620027cc573d6000803e3d6000fd5b5050604051601f1901519150506001600160a01b038116620027f757600060019250925050620027fe565b9150600090505b94509492505050565b60008160048111156200281e576200281e6200381e565b03620028275750565b60018160048111156200283e576200283e6200381e565b036200288d5760405162461bcd60e51b815260206004820152601860248201527f45434453413a20696e76616c6964207369676e61747572650000000000000000604482015260640162000f56565b6002816004811115620028a457620028a46200381e565b03620028f35760405162461bcd60e51b815260206004820152601f60248201527f45434453413a20696e76616c6964207369676e6174757265206c656e67746800604482015260640162000f56565b60038160048111156200290a576200290a6200381e565b03620029645760405162461bcd60e51b815260206004820152602260248201527f45434453413a20696e76616c6964207369676e6174757265202773272076616c604482015261756560f01b606482015260840162000f56565b60048160048111156200297b576200297b6200381e565b0362000f965760405162461bcd60e51b815260206004820152602260248201527f45434453413a20696e76616c6964207369676e6174757265202776272076616c604482015261756560f01b606482015260840162000f56565b6001600160a01b038316620029f957620029ef8262002e09565b6200242e62002e3e565b6001600160a01b03821662002a1357620029ef8362002e09565b62002a1e8362002e09565b6200242e8262002e09565b6001600160a01b038381166000908152600c60205260408082205485841683529120546200242e9291821691168362002565565b6001600160a01b03821662002abf5760405162461bcd60e51b815260206004820152602160248201527f45524332303a206275726e2066726f6d20746865207a65726f206164647265736044820152607360f81b606482015260840162000f56565b62002acd8260008362002421565b6001600160a01b0382166000908152602081905260409020548181101562002b435760405162461bcd60e51b815260206004820152602260248201527f45524332303a206275726e20616d6f756e7420657863656564732062616c616e604482015261636560f01b606482015260840162000f56565b6001600160a01b038316600090815260208190526040812083830390556002805484929062002b74908490620037c4565b90915550506040518281526000906001600160a01b038516907fddf252ad1be2c89b69c2b068fc378daa952ba7f163c4a11628f55a4df523b3ef9060200160405180910390a36200242e8360008462002433565b600062000f838284620037c4565b82546000908190801562002c28578562002bf2600183620037c4565b8154811062002c055762002c0562003673565b60009182526020909120015464010000000090046001600160e01b031662002c2b565b60005b6001600160e01b0316925062002c4583858763ffffffff16565b915060008111801562002c895750438662002c62600184620037c4565b8154811062002c755762002c7562003673565b60009182526020909120015463ffffffff16145b1562002cf25762002c9a8262002e4e565b8662002ca8600184620037c4565b8154811062002cbb5762002cbb62003673565b9060005260206000200160000160046101000a8154816001600160e01b0302191690836001600160e01b0316021790555062002d61565b85604051806040016040528062002d094362002241565b63ffffffff16815260200162002d1f8562002e4e565b6001600160e01b0390811690915282546001810184556000938452602093849020835194909301519091166401000000000263ffffffff909316929092179101555b50935093915050565b600062000f8382846200365d565b62002d84828262002eb9565b6002546001600160e01b03101562002df85760405162461bcd60e51b815260206004820152603060248201527f4552433230566f7465733a20746f74616c20737570706c79207269736b73206f60448201526f766572666c6f77696e6720766f74657360801b606482015260840162000f56565b62001c71600e62002d6a8362002bd6565b6001600160a01b0381166000908152600560209081526040808320918390529091205462000f96919062002fb6565b62002fb6565b62001120600662002e3860025490565b60006001600160e01b03821115620022a85760405162461bcd60e51b815260206004820152602760248201527f53616665436173743a2076616c756520646f65736e27742066697420696e20326044820152663234206269747360c81b606482015260840162000f56565b6001600160a01b03821662002f115760405162461bcd60e51b815260206004820152601f60248201527f45524332303a206d696e7420746f20746865207a65726f206164647265737300604482015260640162000f56565b62002f1f6000838362002421565b806002600082825462002f3391906200365d565b90915550506001600160a01b0382166000908152602081905260408120805483929062002f629084906200365d565b90915550506040518181526001600160a01b038316906000907fddf252ad1be2c89b69c2b068fc378daa952ba7f163c4a11628f55a4df523b3ef9060200160405180910390a36200113b6000838362002433565b600062002fc26200247c565b90508062002fd08462003005565b10156200242e578254600180820185556000858152602080822090930193909355938401805494850181558252902090910155565b805460009081036200301957506000919050565b815482906200302b90600190620037c4565b815481106200303e576200303e62003673565b90600052602060002001549050919050565b919050565b6040518060a0016040528060006001600160a01b03168152602001606081526020016060815260200160008152602001600081525090565b61205b806200383583390190565b6000815180845260005b81811015620030c357602081850181015186830182015201620030a5565b506000602082860101526020601f19601f83011685010191505092915050565b60208152600062000f8360208301846200309b565b80356001600160a01b03811681146200305057600080fd5b600080604083850312156200312457600080fd5b6200312f83620030f8565b946020939093013593505050565b60018060a01b03815116825260006020820151608060208501526200316660808501826200309b565b905060408301516040850152606083015160608501528091505092915050565b6000602080830181845280855180835260408601915060408160051b870101925083870160005b82811015620031df57603f19888603018452620031cc8583516200313d565b94509285019290850190600101620031ad565b5092979650505050505050565b6000806000606084860312156200320257600080fd5b6200320d84620030f8565b92506200321d60208501620030f8565b9150604084013590509250925092565b6000602082840312156200324057600080fd5b5035919050565b60018060a01b0381511682526000602082015160a060208501526200327060a08501826200309b565b9050604083015184820360408601526200328b82826200309b565b91505060608301516060850152608083015160808501528091505092915050565b6000602080830181845280855180835260408601915060408160051b870101925083870160005b82811015620031df57603f19888603018452620032f285835162003247565b94509285019290850190600101620032d3565b6000602082840312156200331857600080fd5b62000f8382620030f8565b634e487b7160e01b600052604160045260246000fd5b600082601f8301126200334b57600080fd5b813567ffffffffffffffff8082111562003369576200336962003323565b604051601f8301601f19908116603f0116810190828211818310171562003394576200339462003323565b81604052838152866020858801011115620033ae57600080fd5b836020870160208301376000602085830101528094505050505092915050565b600080600060608486031215620033e457600080fd5b833567ffffffffffffffff80821115620033fd57600080fd5b6200340b8783880162003339565b945060208601359150808211156200342257600080fd5b50620034318682870162003339565b925050604084013590509250925092565b60208152600062000f83602083018462003247565b60208152600062000f8360208301846200313d565b803560ff811681146200305057600080fd5b60008060008060008060c087890312156200349857600080fd5b620034a387620030f8565b95506020870135945060408701359350620034c1606088016200346c565b92506080870135915060a087013590509295509295509295565b600080600080600080600060e0888a031215620034f757600080fd5b6200350288620030f8565b96506200351260208901620030f8565b9550604088013594506060880135935062003530608089016200346c565b925060a0880135915060c0880135905092959891949750929550565b600080604083850312156200356057600080fd5b6200356b83620030f8565b91506200357b60208401620030f8565b90509250929050565b600080604083850312156200359857600080fd5b823567ffffffffffffffff811115620035b057600080fd5b620035be8582860162003339565b95602094909401359450505050565b60008060408385031215620035e157600080fd5b620035ec83620030f8565b9150602083013563ffffffff811681146200360657600080fd5b809150509250929050565b600181811c908216806200362657607f821691505b6020821081036200241b57634e487b7160e01b600052602260045260246000fd5b634e487b7160e01b600052601160045260246000fd5b8082018082111562000a695762000a6962003647565b634e487b7160e01b600052603260045260246000fd5b6000600182016200369e576200369e62003647565b5060010190565b601f8211156200242e57600081815260208120601f850160051c81016020861015620036ce5750805b601f850160051c820191505b81811015620036ef57828155600101620036da565b505050505050565b815167ffffffffffffffff81111562003714576200371462003323565b6200372c8162003725845462003611565b84620036a5565b602080601f8311600181146200376457600084156200374b5750858301515b600019600386901b1c1916600185901b178555620036ef565b600085815260208120601f198616915b82811015620037955788860151825594840194600190910190840162003774565b5085821015620037b45787850151600019600388901b60f8161c191681555b5050505050600190811b01905550565b8181038181111562000a695762000a6962003647565b634e487b7160e01b600052601260045260246000fd5b600082620038025762003802620037da565b500490565b600082620038195762003819620037da565b500690565b634e487b7160e01b600052602160045260246000fdfe60806040523480156200001157600080fd5b506040516200205b3803806200205b83398101604081905262000034916200010c565b6040518060400160405280600781526020016626bcaa37b5b2b760c91b815250604051806040016040528060038152602001624d544b60e81b8152508160009081620000819190620001cb565b506001620000908282620001cb565b505050620000ad620000a7620000b660201b60201c565b620000ba565b60085562000297565b3390565b600780546001600160a01b038381166001600160a01b0319831681179093556040519116919082907f8be0079c531659141344cd1fd0a4f28419497f9722a3daafe3b4186f6b6457e090600090a35050565b6000602082840312156200011f57600080fd5b5051919050565b634e487b7160e01b600052604160045260246000fd5b600181811c908216806200015157607f821691505b6020821081036200017257634e487b7160e01b600052602260045260246000fd5b50919050565b601f821115620001c657600081815260208120601f850160051c81016020861015620001a15750805b601f850160051c820191505b81811015620001c257828155600101620001ad565b5050505b505050565b81516001600160401b03811115620001e757620001e762000126565b620001ff81620001f884546200013c565b8462000178565b602080601f8311600181146200023757600084156200021e5750858301515b600019600386901b1c1916600185901b178555620001c2565b600085815260208120601f198616915b82811015620002685788860151825594840194600190910190840162000247565b5085821015620002875787850151600019600388901b60f8161c191681555b5050505050600190811b01905550565b611db480620002a76000396000f3fe60806040526004361061011f5760003560e01c8063715018a6116100a0578063b88d4fde11610064578063b88d4fde14610320578063b8b768ea14610340578063c87b56dd1461036d578063e985e9c51461038d578063f2fde38b146103ad57600080fd5b8063715018a6146102985780638da5cb5b146102ad57806395d89b41146102cb578063a22cb465146102e0578063b5a43e521461030057600080fd5b806342842e0e116100e757806342842e0e146101f557806353f5e380146102155780636352211e14610237578063695850fb1461025757806370a082311461026a57600080fd5b806301ffc9a71461012457806306fdde0314610159578063081812fc1461017b578063095ea7b3146101b357806323b872dd146101d5575b600080fd5b34801561013057600080fd5b5061014461013f3660046116c4565b6103cd565b60405190151581526020015b60405180910390f35b34801561016557600080fd5b5061016e61041f565b6040516101509190611731565b34801561018757600080fd5b5061019b610196366004611744565b6104b1565b6040516001600160a01b039091168152602001610150565b3480156101bf57600080fd5b506101d36101ce366004611779565b6104d8565b005b3480156101e157600080fd5b506101d36101f03660046117a3565b6105f2565b34801561020157600080fd5b506101d36102103660046117a3565b610623565b34801561022157600080fd5b5061022a61063e565b604051610150919061181a565b34801561024357600080fd5b5061019b610252366004611744565b6107f0565b6101d3610265366004611908565b610850565b34801561027657600080fd5b5061028a610285366004611951565b6108d4565b604051908152602001610150565b3480156102a457600080fd5b506101d361095a565b3480156102b957600080fd5b506007546001600160a01b031661019b565b3480156102d757600080fd5b5061016e61096e565b3480156102ec57600080fd5b506101d36102fb36600461196c565b61097d565b34801561030c57600080fd5b506101d361031b366004611908565b610988565b34801561032c57600080fd5b506101d361033b3660046119a8565b6109f5565b34801561034c57600080fd5b5061036061035b366004611744565b610a2d565b6040516101509190611a24565b34801561037957600080fd5b5061016e610388366004611744565b610b04565b34801561039957600080fd5b506101446103a8366004611a37565b610b0f565b3480156103b957600080fd5b506101d36103c8366004611951565b610b3d565b60006001600160e01b031982166380ac58cd60e01b14806103fe57506001600160e01b03198216635b5e139f60e01b145b8061041957506301ffc9a760e01b6001600160e01b03198316145b92915050565b60606000805461042e90611a6a565b80601f016020809104026020016040519081016040528092919081815260200182805461045a90611a6a565b80156104a75780601f1061047c576101008083540402835291602001916104a7565b820191906000526020600020905b81548152906001019060200180831161048a57829003601f168201915b5050505050905090565b60006104bc82610bb3565b506000908152600460205260409020546001600160a01b031690565b60006104e3826107f0565b9050806001600160a01b0316836001600160a01b0316036105555760405162461bcd60e51b815260206004820152602160248201527f4552433732313a20617070726f76616c20746f2063757272656e74206f776e656044820152603960f91b60648201526084015b60405180910390fd5b336001600160a01b038216148061057157506105718133610b0f565b6105e35760405162461bcd60e51b815260206004820152603e60248201527f4552433732313a20617070726f76652063616c6c6572206973206e6f7420746f60448201527f6b656e206f776e6572206e6f7220617070726f76656420666f7220616c6c0000606482015260840161054c565b6105ed8383610c12565b505050565b6105fc3382610c80565b6106185760405162461bcd60e51b815260040161054c90611a9e565b6105ed838383610cdf565b6105ed838383604051806020016040528060008152506109f5565b6060610649600a5490565b600003610687576040805160008082526020820190925290610681565b61066e611684565b8152602001906001900390816106665790505b50905090565b6000610692600a5490565b67ffffffffffffffff8111156106aa576106aa61187c565b6040519080825280602002602001820160405280156106e357816020015b6106d0611684565b8152602001906001900390816106c85790505b50905060015b600a5481116107ea576000818152600b602090815260409182902082516060810190935280546001600160a01b03168352600181018054919284019161072e90611a6a565b80601f016020809104026020016040519081016040528092919081815260200182805461075a90611a6a565b80156107a75780601f1061077c576101008083540402835291602001916107a7565b820191906000526020600020905b81548152906001019060200180831161078a57829003601f168201915b505050505081526020016002820154815250508282815181106107cc576107cc611aec565b602002602001018190525080806107e290611b18565b9150506106e9565b50919050565b6000818152600260205260408120546001600160a01b0316806104195760405162461bcd60e51b8152602060048201526018602482015277115490cdcc8c4e881a5b9d985b1a59081d1bdad95b88125160421b604482015260640161054c565b60085434146108a15760405162461bcd60e51b815260206004820152601b60248201527f596f7572206d73672076616c756520697320696e636f72726563740000000000604482015260640161054c565b60006108ac60095490565b90506108bc600980546001019055565b6108c63382610e7b565b6108d08183610e95565b5050565b60006001600160a01b03821661093e5760405162461bcd60e51b815260206004820152602960248201527f4552433732313a2061646472657373207a65726f206973206e6f7420612076616044820152683634b21037bbb732b960b91b606482015260840161054c565b506001600160a01b031660009081526003602052604090205490565b610962610f28565b61096c6000610f82565b565b60606001805461042e90611a6a565b6108d0338383610fd4565b6007546001600160a01b031633146109f25760016109a5336108d4565b10156109e95760405162461bcd60e51b8152602060048201526013602482015272165bdd48191bc81b9bdd081a185d99481b999d606a1b604482015260640161054c565b6109f2816110a2565b50565b6109ff3383610c80565b610a1b5760405162461bcd60e51b815260040161054c90611a9e565b610a278484848461115e565b50505050565b610a35611684565b6000828152600b602090815260409182902082516060810190935280546001600160a01b031683526001810180549192840191610a7190611a6a565b80601f0160208091040260200160405190810160405280929190818152602001828054610a9d90611a6a565b8015610aea5780601f10610abf57610100808354040283529160200191610aea565b820191906000526020600020905b815481529060010190602001808311610acd57829003601f168201915b505050505081526020016002820154815250509050919050565b606061041982611191565b6001600160a01b03918216600090815260056020908152604080832093909416825291909152205460ff1690565b610b45610f28565b6001600160a01b038116610baa5760405162461bcd60e51b815260206004820152602660248201527f4f776e61626c653a206e6577206f776e657220697320746865207a65726f206160448201526564647265737360d01b606482015260840161054c565b6109f281610f82565b6000818152600260205260409020546001600160a01b03166109f25760405162461bcd60e51b8152602060048201526018602482015277115490cdcc8c4e881a5b9d985b1a59081d1bdad95b88125160421b604482015260640161054c565b600081815260046020526040902080546001600160a01b0319166001600160a01b0384169081179091558190610c47826107f0565b6001600160a01b03167f8c5be1e5ebec7d5bd14f71427d1e84f3dd0314c0f7b2291e5b200ac8c7c3b92560405160405180910390a45050565b600080610c8c836107f0565b9050806001600160a01b0316846001600160a01b03161480610cb35750610cb38185610b0f565b80610cd75750836001600160a01b0316610ccc846104b1565b6001600160a01b0316145b949350505050565b826001600160a01b0316610cf2826107f0565b6001600160a01b031614610d565760405162461bcd60e51b815260206004820152602560248201527f4552433732313a207472616e736665722066726f6d20696e636f72726563742060448201526437bbb732b960d91b606482015260840161054c565b6001600160a01b038216610db85760405162461bcd60e51b8152602060048201526024808201527f4552433732313a207472616e7366657220746f20746865207a65726f206164646044820152637265737360e01b606482015260840161054c565b610dc3600082610c12565b6001600160a01b0383166000908152600360205260408120805460019290610dec908490611b31565b90915550506001600160a01b0382166000908152600360205260408120805460019290610e1a908490611b44565b909155505060008181526002602052604080822080546001600160a01b0319166001600160a01b0386811691821790925591518493918716917fddf252ad1be2c89b69c2b068fc378daa952ba7f163c4a11628f55a4df523b3ef91a4505050565b6108d0828260405180602001604052806000815250611299565b6000828152600260205260409020546001600160a01b0316610f105760405162461bcd60e51b815260206004820152602e60248201527f45524337323155524953746f726167653a2055524920736574206f66206e6f6e60448201526d32bc34b9ba32b73a103a37b5b2b760911b606482015260840161054c565b60008281526006602052604090206105ed8282611ba5565b6007546001600160a01b0316331461096c5760405162461bcd60e51b815260206004820181905260248201527f4f776e61626c653a2063616c6c6572206973206e6f7420746865206f776e6572604482015260640161054c565b600780546001600160a01b038381166001600160a01b0319831681179093556040519116919082907f8be0079c531659141344cd1fd0a4f28419497f9722a3daafe3b4186f6b6457e090600090a35050565b816001600160a01b0316836001600160a01b0316036110355760405162461bcd60e51b815260206004820152601960248201527f4552433732313a20617070726f766520746f2063616c6c657200000000000000604482015260640161054c565b6001600160a01b03838116600081815260056020908152604080832094871680845294825291829020805460ff191686151590811790915591519182527f17307eab39ab6107e8899845ad3d59bd9653f200f220920489ca2b5937696c31910160405180910390a3505050565b6110b0600a80546001019055565b60006110bb600a5490565b60408051606081018252338152602080820186815242838501526000858152600b909252929020815181546001600160a01b0319166001600160a01b0390911617815591519293509160018201906111139082611ba5565b5060409182015160029091015551339082907f3e1d52f9ee9b009659ccf70171749f40d1a6138fd18c4f4daef9e79fdafc3f1f90611152908690611731565b60405180910390a35050565b611169848484610cdf565b611175848484846112cc565b610a275760405162461bcd60e51b815260040161054c90611c65565b606061119c82610bb3565b600082815260066020526040812080546111b590611a6a565b80601f01602080910402602001604051908101604052809291908181526020018280546111e190611a6a565b801561122e5780601f106112035761010080835404028352916020019161122e565b820191906000526020600020905b81548152906001019060200180831161121157829003601f168201915b50505050509050600061124c60408051602081019091526000815290565b9050805160000361125e575092915050565b815115611290578082604051602001611278929190611cb7565b60405160208183030381529060405292505050919050565b610cd7846113cd565b6112a38383611441565b6112b060008484846112cc565b6105ed5760405162461bcd60e51b815260040161054c90611c65565b60006001600160a01b0384163b156113c257604051630a85bd0160e11b81526001600160a01b0385169063150b7a0290611310903390899088908890600401611ce6565b6020604051808303816000875af192505050801561134b575060408051601f3d908101601f1916820190925261134891810190611d23565b60015b6113a8573d808015611379576040519150601f19603f3d011682016040523d82523d6000602084013e61137e565b606091505b5080516000036113a05760405162461bcd60e51b815260040161054c90611c65565b805181602001fd5b6001600160e01b031916630a85bd0160e11b149050610cd7565b506001949350505050565b60606113d882610bb3565b60006113ef60408051602081019091526000815290565b9050600081511161140f576040518060200160405280600081525061143a565b8061141984611583565b60405160200161142a929190611cb7565b6040516020818303038152906040525b9392505050565b6001600160a01b0382166114975760405162461bcd60e51b815260206004820181905260248201527f4552433732313a206d696e7420746f20746865207a65726f2061646472657373604482015260640161054c565b6000818152600260205260409020546001600160a01b0316156114fc5760405162461bcd60e51b815260206004820152601c60248201527f4552433732313a20746f6b656e20616c7265616479206d696e74656400000000604482015260640161054c565b6001600160a01b0382166000908152600360205260408120805460019290611525908490611b44565b909155505060008181526002602052604080822080546001600160a01b0319166001600160a01b03861690811790915590518392907fddf252ad1be2c89b69c2b068fc378daa952ba7f163c4a11628f55a4df523b3ef908290a45050565b6060816000036115aa5750506040805180820190915260018152600360fc1b602082015290565b8160005b81156115d457806115be81611b18565b91506115cd9050600a83611d56565b91506115ae565b60008167ffffffffffffffff8111156115ef576115ef61187c565b6040519080825280601f01601f191660200182016040528015611619576020820181803683370190505b5090505b8415610cd75761162e600183611b31565b915061163b600a86611d6a565b611646906030611b44565b60f81b81838151811061165b5761165b611aec565b60200101906001600160f81b031916908160001a90535061167d600a86611d56565b945061161d565b604051806060016040528060006001600160a01b0316815260200160608152602001600081525090565b6001600160e01b0319811681146109f257600080fd5b6000602082840312156116d657600080fd5b813561143a816116ae565b60005b838110156116fc5781810151838201526020016116e4565b50506000910152565b6000815180845261171d8160208601602086016116e1565b601f01601f19169290920160200192915050565b60208152600061143a6020830184611705565b60006020828403121561175657600080fd5b5035919050565b80356001600160a01b038116811461177457600080fd5b919050565b6000806040838503121561178c57600080fd5b6117958361175d565b946020939093013593505050565b6000806000606084860312156117b857600080fd5b6117c18461175d565b92506117cf6020850161175d565b9150604084013590509250925092565b60018060a01b03815116825260006020820151606060208501526118066060850182611705565b604093840151949093019390935250919050565b6000602080830181845280855180835260408601915060408160051b870101925083870160005b8281101561186f57603f1988860301845261185d8583516117df565b94509285019290850190600101611841565b5092979650505050505050565b634e487b7160e01b600052604160045260246000fd5b600067ffffffffffffffff808411156118ad576118ad61187c565b604051601f8501601f19908116603f011681019082821181831017156118d5576118d561187c565b816040528093508581528686860111156118ee57600080fd5b858560208301376000602087830101525050509392505050565b60006020828403121561191a57600080fd5b813567ffffffffffffffff81111561193157600080fd5b8201601f8101841361194257600080fd5b610cd784823560208401611892565b60006020828403121561196357600080fd5b61143a8261175d565b6000806040838503121561197f57600080fd5b6119888361175d565b91506020830135801515811461199d57600080fd5b809150509250929050565b600080600080608085870312156119be57600080fd5b6119c78561175d565b93506119d56020860161175d565b925060408501359150606085013567ffffffffffffffff8111156119f857600080fd5b8501601f81018713611a0957600080fd5b611a1887823560208401611892565b91505092959194509250565b60208152600061143a60208301846117df565b60008060408385031215611a4a57600080fd5b611a538361175d565b9150611a616020840161175d565b90509250929050565b600181811c90821680611a7e57607f821691505b6020821081036107ea57634e487b7160e01b600052602260045260246000fd5b6020808252602e908201527f4552433732313a2063616c6c6572206973206e6f7420746f6b656e206f776e6560408201526d1c881b9bdc88185c1c1c9bdd995960921b606082015260800190565b634e487b7160e01b600052603260045260246000fd5b634e487b7160e01b600052601160045260246000fd5b600060018201611b2a57611b2a611b02565b5060010190565b8181038181111561041957610419611b02565b8082018082111561041957610419611b02565b601f8211156105ed57600081815260208120601f850160051c81016020861015611b7e5750805b601f850160051c820191505b81811015611b9d57828155600101611b8a565b505050505050565b815167ffffffffffffffff811115611bbf57611bbf61187c565b611bd381611bcd8454611a6a565b84611b57565b602080601f831160018114611c085760008415611bf05750858301515b600019600386901b1c1916600185901b178555611b9d565b600085815260208120601f198616915b82811015611c3757888601518255948401946001909101908401611c18565b5085821015611c555787850151600019600388901b60f8161c191681555b5050505050600190811b01905550565b60208082526032908201527f4552433732313a207472616e7366657220746f206e6f6e20455243373231526560408201527131b2b4bb32b91034b6b83632b6b2b73a32b960711b606082015260800190565b60008351611cc98184602088016116e1565b835190830190611cdd8183602088016116e1565b01949350505050565b6001600160a01b0385811682528416602082015260408101839052608060608201819052600090611d1990830184611705565b9695505050505050565b600060208284031215611d3557600080fd5b815161143a816116ae565b634e487b7160e01b600052601260045260246000fd5b600082611d6557611d65611d40565b500490565b600082611d7957611d79611d40565b50069056fea26469706673582212209e38650a58615c9caa4c18aaa58b8584a42d3703a707f70a2224e4b9e80bc27e64736f6c63430008110033a264697066735822122023687ef43ce88d78fd44231ead23f279bd9fcf0e45a6b3bce60b41c684c1426f64736f6c63430008110033",
  "linkReferences": {},
  "deployedLinkReferences": {}
}