{
  "_format": "hh-sol-artifact-1",
  "contractName": "DockHackDiary",
  "sourceName": "contracts/DockHackDiary.sol",
  "abi": [
    {
      "inputs": [],
      "stateMutability": "nonpayable",
      "type": "constructor"
    },
    {
      "anonymous": false,
      "inputs": [
        {
          "indexed": false,
          "internalType": "uint256",
          "name": "amount",
          "type": "uint256"
        },
        {
          "indexed": false,
          "internalType": "address",
          "name": "recipient",
          "type": "address"
        },
        {
          "indexed": false,
          "internalType": "uint256",
          "name": "balance",
          "type": "uint256"
        }
      ],
      "name": "HasWithdrawn",
      "type": "event"
    },
    {
      "anonymous": false,
      "inputs": [
        {
          "indexed": true,
          "internalType": "address",
          "name": "previousOwner",
          "type": "address"
        },
        {
          "indexed": true,
          "internalType": "address",
          "name": "newOwner",
          "type": "address"
        }
      ],
      "name": "OwnershipTransferred",
      "type": "event"
    },
    {
      "stateMutability": "payable",
      "type": "fallback"
    },
    {
      "inputs": [
        {
          "internalType": "uint256",
          "name": "mintPrice",
          "type": "uint256"
        },
        {
          "internalType": "uint256",
          "name": "maxSupply",
          "type": "uint256"
        },
        {
          "internalType": "string",
          "name": "uri",
          "type": "string"
        }
      ],
      "name": "createNftContract",
      "outputs": [],
      "stateMutability": "payable",
      "type": "function"
    },
    {
      "inputs": [],
      "name": "getAllPosts",
      "outputs": [
        {
          "components": [
            {
              "internalType": "address",
              "name": "sender",
              "type": "address"
            },
            {
              "internalType": "string",
              "name": "title",
              "type": "string"
            },
            {
              "internalType": "string",
              "name": "text",
              "type": "string"
            },
            {
              "internalType": "uint256",
              "name": "replyTo",
              "type": "uint256"
            },
            {
              "internalType": "uint256",
              "name": "timestamp",
              "type": "uint256"
            }
          ],
          "internalType": "struct IDockHackDiary.Post[]",
          "name": "",
          "type": "tuple[]"
        }
      ],
      "stateMutability": "view",
      "type": "function"
    },
    {
      "inputs": [
        {
          "internalType": "address",
          "name": "e",
          "type": "address"
        }
      ],
      "name": "getEoaToContract",
      "outputs": [
        {
          "internalType": "address",
          "name": "",
          "type": "address"
        }
      ],
      "stateMutability": "view",
      "type": "function"
    },
    {
      "inputs": [],
      "name": "getFee",
      "outputs": [
        {
          "internalType": "uint256",
          "name": "",
          "type": "uint256"
        }
      ],
      "stateMutability": "view",
      "type": "function"
    },
    {
      "inputs": [
        {
          "internalType": "uint256",
          "name": "pId",
          "type": "uint256"
        }
      ],
      "name": "getPostForPId",
      "outputs": [
        {
          "components": [
            {
              "internalType": "address",
              "name": "sender",
              "type": "address"
            },
            {
              "internalType": "string",
              "name": "title",
              "type": "string"
            },
            {
              "internalType": "string",
              "name": "text",
              "type": "string"
            },
            {
              "internalType": "uint256",
              "name": "replyTo",
              "type": "uint256"
            },
            {
              "internalType": "uint256",
              "name": "timestamp",
              "type": "uint256"
            }
          ],
          "internalType": "struct IDockHackDiary.Post",
          "name": "",
          "type": "tuple"
        }
      ],
      "stateMutability": "view",
      "type": "function"
    },
    {
      "inputs": [],
      "name": "owner",
      "outputs": [
        {
          "internalType": "address",
          "name": "",
          "type": "address"
        }
      ],
      "stateMutability": "view",
      "type": "function"
    },
    {
      "inputs": [],
      "name": "renounceOwnership",
      "outputs": [],
      "stateMutability": "nonpayable",
      "type": "function"
    },
    {
      "inputs": [
        {
          "internalType": "address",
          "name": "c",
          "type": "address"
        }
      ],
      "name": "setEoaToContract",
      "outputs": [],
      "stateMutability": "nonpayable",
      "type": "function"
    },
    {
      "inputs": [
        {
          "internalType": "uint256",
          "name": "newFee",
          "type": "uint256"
        }
      ],
      "name": "setFee",
      "outputs": [],
      "stateMutability": "nonpayable",
      "type": "function"
    },
    {
      "inputs": [
        {
          "internalType": "string",
          "name": "title",
          "type": "string"
        },
        {
          "internalType": "string",
          "name": "text",
          "type": "string"
        },
        {
          "internalType": "uint256",
          "name": "replyTo",
          "type": "uint256"
        }
      ],
      "name": "setPost",
      "outputs": [],
      "stateMutability": "nonpayable",
      "type": "function"
    },
    {
      "inputs": [
        {
          "internalType": "address",
          "name": "newOwner",
          "type": "address"
        }
      ],
      "name": "transferOwnership",
      "outputs": [],
      "stateMutability": "nonpayable",
      "type": "function"
    },
    {
      "inputs": [
        {
          "internalType": "uint256",
          "name": "amount",
          "type": "uint256"
        },
        {
          "internalType": "address",
          "name": "recipient",
          "type": "address"
        }
      ],
      "name": "withdraw",
      "outputs": [],
      "stateMutability": "nonpayable",
      "type": "function"
    },
    {
      "stateMutability": "payable",
      "type": "receive"
    }
  ],
  "bytecode": "0x608060405234801561001057600080fd5b5061001a33610029565b655af3107a4000600255610079565b600080546001600160a01b038381166001600160a01b0319831681178455604051919092169283917f8be0079c531659141344cd1fd0a4f28419497f9722a3daafe3b4186f6b6457e09190a35050565b6135d1806100886000396000f3fe608060405260043610620000b25760003560e01c80638da5cb5b11620000695780638da5cb5b14620001c95780638e1bb16914620001e95780639770de27146200020e578063ced72f871462000242578063f2fde38b1462000262578063f5d23324146200028757005b8062f714ce14620000bc5780633056110014620000e15780633ca68936146200011157806369fe0e2d146200016757806370625cfd146200018c578063715018a614620001b157005b36620000ba57005b005b348015620000c957600080fd5b50620000ba620000db36600462000aa8565b6200029e565b348015620000ee57600080fd5b50620000f962000392565b60405162000108919062000b84565b60405180910390f35b3480156200011e57600080fd5b506200014e6200013036600462000bea565b6001600160a01b039081166000908152600460205260409020541690565b6040516001600160a01b03909116815260200162000108565b3480156200017457600080fd5b50620000ba6200018636600462000c0f565b620005e2565b3480156200019957600080fd5b50620000ba620001ab36600462000cd4565b620005f1565b348015620001be57600080fd5b50620000ba620006ac565b348015620001d657600080fd5b506000546001600160a01b03166200014e565b348015620001f657600080fd5b50620000ba6200020836600462000bea565b620006c4565b3480156200021b57600080fd5b50620002336200022d36600462000c0f565b620006f3565b60405162000108919062000d48565b3480156200024f57600080fd5b5060025460405190815260200162000108565b3480156200026f57600080fd5b50620000ba6200028136600462000bea565b62000878565b620000ba6200029836600462000d5d565b620008f7565b620002a862000999565b478211156200030f5760405162461bcd60e51b815260206004820152602860248201527f596f75722072657175657374696e6720616d6f756e74206973206f76657220746044820152673932b0b9bab93c9760c11b60648201526084015b60405180910390fd5b6040516001600160a01b0382169083156108fc029084906000818181858888f1935050505015801562000346573d6000803e3d6000fd5b50604080518381526001600160a01b0383166020820152478183015290517f62d31968529bc5b114248358bffc64313a2d23c1df1caa5be36ba1f8202204199181900360600190a15050565b60606000620003a060015490565b90506000808267ffffffffffffffff811115620003c157620003c162000c29565b604051908082528060200260200182016040528015620003fe57816020015b620003ea62000a45565b815260200190600190039081620003e05790505b50905060005b83811015620005da57600360006200041e83600162000dc7565b81526020808201929092526040908101600020815160a0810190925280546001600160a01b031682526001810180549293919291840191620004609062000de3565b80601f01602080910402602001604051908101604052809291908181526020018280546200048e9062000de3565b8015620004df5780601f10620004b357610100808354040283529160200191620004df565b820191906000526020600020905b815481529060010190602001808311620004c157829003601f168201915b50505050508152602001600282018054620004fa9062000de3565b80601f0160208091040260200160405190810160405280929190818152602001828054620005289062000de3565b8015620005795780601f106200054d5761010080835404028352916020019162000579565b820191906000526020600020905b8154815290600101906020018083116200055b57829003601f168201915b5050505050815260200160038201548152602001600482015481525050828481518110620005ab57620005ab62000e1f565b6020908102919091010152620005c360018462000dc7565b925080620005d18162000e35565b91505062000404565b509392505050565b620005ec62000999565b600255565b62000600600180546001019055565b60006200060c60015490565b6040805160a08101825233815260208082018881528284018890526060830187905242608084015260008581526003909252929020815181546001600160a01b0319166001600160a01b03909116178155915192935091829190600182019062000677908262000ea4565b50604082015160028201906200068e908262000ea4565b50606082015160038201556080909101516004909101555050505050565b620006b662000999565b620006c26000620009f5565b565b33600090815260046020526040902080546001600160a01b0319166001600160a01b0392909216919091179055565b620006fd62000a45565b600082815260036020908152604091829020825160a0810190935280546001600160a01b0316835260018101805491928401916200073b9062000de3565b80601f0160208091040260200160405190810160405280929190818152602001828054620007699062000de3565b8015620007ba5780601f106200078e57610100808354040283529160200191620007ba565b820191906000526020600020905b8154815290600101906020018083116200079c57829003601f168201915b50505050508152602001600282018054620007d59062000de3565b80601f0160208091040260200160405190810160405280929190818152602001828054620008039062000de3565b8015620008545780601f10620008285761010080835404028352916020019162000854565b820191906000526020600020905b8154815290600101906020018083116200083657829003601f168201915b50505050508152602001600382015481526020016004820154815250509050919050565b6200088262000999565b6001600160a01b038116620008e95760405162461bcd60e51b815260206004820152602660248201527f4f776e61626c653a206e6577206f776e657220697320746865207a65726f206160448201526564647265737360d01b606482015260840162000306565b620008f481620009f5565b50565b6002543414620009435760405162461bcd60e51b81526020600482015260166024820152751b5cd9c81d985b1d59481a5cc81a5b98dbdc9c9958dd60521b604482015260640162000306565b600083833384604051620009579062000a7d565b62000966949392919062000f71565b604051809103906000f08015801562000983573d6000803e3d6000fd5b509050806200099281620006c4565b5050505050565b6000546001600160a01b03163314620006c25760405162461bcd60e51b815260206004820181905260248201527f4f776e61626c653a2063616c6c6572206973206e6f7420746865206f776e6572604482015260640162000306565b600080546001600160a01b038381166001600160a01b0319831681178455604051919092169283917f8be0079c531659141344cd1fd0a4f28419497f9722a3daafe3b4186f6b6457e09190a35050565b6040518060a0016040528060006001600160a01b03168152602001606081526020016060815260200160008152602001600081525090565b6125f18062000fab83390190565b80356001600160a01b038116811462000aa357600080fd5b919050565b6000806040838503121562000abc57600080fd5b8235915062000ace6020840162000a8b565b90509250929050565b6000815180845260005b8181101562000aff5760208185018101518683018201520162000ae1565b506000602082860101526020601f19601f83011685010191505092915050565b60018060a01b0381511682526000602082015160a0602085015262000b4860a085018262000ad7565b90506040830151848203604086015262000b63828262000ad7565b91505060608301516060850152608083015160808501528091505092915050565b6000602080830181845280855180835260408601915060408160051b870101925083870160005b8281101562000bdd57603f1988860301845262000bca85835162000b1f565b9450928501929085019060010162000bab565b5092979650505050505050565b60006020828403121562000bfd57600080fd5b62000c088262000a8b565b9392505050565b60006020828403121562000c2257600080fd5b5035919050565b634e487b7160e01b600052604160045260246000fd5b600082601f83011262000c5157600080fd5b813567ffffffffffffffff8082111562000c6f5762000c6f62000c29565b604051601f8301601f19908116603f0116810190828211818310171562000c9a5762000c9a62000c29565b8160405283815286602085880101111562000cb457600080fd5b836020870160208301376000602085830101528094505050505092915050565b60008060006060848603121562000cea57600080fd5b833567ffffffffffffffff8082111562000d0357600080fd5b62000d118783880162000c3f565b9450602086013591508082111562000d2857600080fd5b5062000d378682870162000c3f565b925050604084013590509250925092565b60208152600062000c08602083018462000b1f565b60008060006060848603121562000d7357600080fd5b8335925060208401359150604084013567ffffffffffffffff81111562000d9957600080fd5b62000da78682870162000c3f565b9150509250925092565b634e487b7160e01b600052601160045260246000fd5b8082018082111562000ddd5762000ddd62000db1565b92915050565b600181811c9082168062000df857607f821691505b60208210810362000e1957634e487b7160e01b600052602260045260246000fd5b50919050565b634e487b7160e01b600052603260045260246000fd5b60006001820162000e4a5762000e4a62000db1565b5060010190565b601f82111562000e9f57600081815260208120601f850160051c8101602086101562000e7a5750805b601f850160051c820191505b8181101562000e9b5782815560010162000e86565b5050505b505050565b815167ffffffffffffffff81111562000ec15762000ec162000c29565b62000ed98162000ed2845462000de3565b8462000e51565b602080601f83116001811462000f11576000841562000ef85750858301515b600019600386901b1c1916600185901b17855562000e9b565b600085815260208120601f198616915b8281101562000f425788860151825594840194600190910190840162000f21565b508582101562000f615787850151600019600388901b60f8161c191681555b5050505050600190811b01905550565b84815283602082015260018060a01b038316604082015260806060820152600062000fa0608083018462000ad7565b969550505050505056fe60806040523480156200001157600080fd5b50604051620025f1380380620025f1833981016040819052620000349162000157565b6040518060400160405280600781526020016626bcaa37b5b2b760c91b815250604051806040016040528060038152602001624d544b60e81b8152508160009081620000819190620002f0565b506001620000908282620002f0565b505050620000ad620000a7620000eb60201b60201c565b620000ef565b6008849055600a839055600e80546001600160a01b0319166001600160a01b0384161790556009620000e08282620002f0565b5050505050620003bc565b3390565b600780546001600160a01b038381166001600160a01b0319831681179093556040519116919082907f8be0079c531659141344cd1fd0a4f28419497f9722a3daafe3b4186f6b6457e090600090a35050565b634e487b7160e01b600052604160045260246000fd5b600080600080608085870312156200016e57600080fd5b845160208087015160408801519296509450906001600160a01b03811681146200019757600080fd5b60608701519093506001600160401b0380821115620001b557600080fd5b818801915088601f830112620001ca57600080fd5b815181811115620001df57620001df62000141565b604051601f8201601f19908116603f011681019083821181831017156200020a576200020a62000141565b816040528281528b868487010111156200022357600080fd5b600093505b8284101562000247578484018601518185018701529285019262000228565b600086848301015280965050505050505092959194509250565b600181811c908216806200027657607f821691505b6020821081036200029757634e487b7160e01b600052602260045260246000fd5b50919050565b601f821115620002eb57600081815260208120601f850160051c81016020861015620002c65750805b601f850160051c820191505b81811015620002e757828155600101620002d2565b5050505b505050565b81516001600160401b038111156200030c576200030c62000141565b62000324816200031d845462000261565b846200029d565b602080601f8311600181146200035c5760008415620003435750858301515b600019600386901b1c1916600185901b178555620002e7565b600085815260208120601f198616915b828110156200038d578886015182559484019460019091019084016200036c565b5085821015620003ac5787850151600019600388901b60f8161c191681555b5050505050600190811b01905550565b61222580620003cc6000396000f3fe6080604052600436106101a25760003560e01c80636f8b44b0116100e0578063a22cb46511610084578063b8b768ea11610061578063b8b768ea14610493578063c87b56dd146104c0578063e985e9c5146104e0578063f2fde38b1461050057005b8063a22cb46514610433578063b5a43e5214610453578063b88d4fde1461047357005b80638da5cb5b116100bd5780638da5cb5b146103cb57806391b7f5ed146103e957806395d89b411461040957806398d5fdca1461041e57005b80636f8b44b01461037657806370a0823114610396578063715018a6146103b657005b80633f5160181161014757806353f5e3801161012457806353f5e3801461031757806356189236146103395780636352211e1461034e5780636871ee401461036e57005b80633f516018146102b857806342842e0e146102d85780634c0f38c2146102f857005b8063081812fc11610180578063081812fc14610222578063095ea7b31461025a5780630ee2cb101461027a57806323b872dd1461029857005b8062f714ce146101ab57806301ffc9a7146101cb57806306fdde031461020057005b366101a957005b005b3480156101b757600080fd5b506101a96101c6366004611aca565b610520565b3480156101d757600080fd5b506101eb6101e6366004611b0c565b610610565b60405190151581526020015b60405180910390f35b34801561020c57600080fd5b50610215610662565b6040516101f79190611b79565b34801561022e57600080fd5b5061024261023d366004611b8c565b6106f4565b6040516001600160a01b0390911681526020016101f7565b34801561026657600080fd5b506101a9610275366004611ba5565b61071b565b34801561028657600080fd5b50600e546001600160a01b0316610242565b3480156102a457600080fd5b506101a96102b3366004611bcf565b610830565b3480156102c457600080fd5b506101a96102d3366004611c0b565b610861565b3480156102e457600080fd5b506101a96102f3366004611bcf565b6108ad565b34801561030457600080fd5b50600a545b6040519081526020016101f7565b34801561032357600080fd5b5061032c6108c8565b6040516101f79190611c61565b34801561034557600080fd5b50610309610a8e565b34801561035a57600080fd5b50610242610369366004611b8c565b610a9e565b6101a9610afe565b34801561038257600080fd5b506101a9610391366004611b8c565b610c75565b3480156103a257600080fd5b506103096103b1366004611c0b565b610ca4565b3480156103c257600080fd5b506101a9610d2a565b3480156103d757600080fd5b506007546001600160a01b0316610242565b3480156103f557600080fd5b506101a9610404366004611b8c565b610d3e565b34801561041557600080fd5b50610215610d6d565b34801561042a57600080fd5b50600854610309565b34801561043f57600080fd5b506101a961044e366004611cc3565b610d7c565b34801561045f57600080fd5b506101a961046e366004611d8b565b610d8b565b34801561047f57600080fd5b506101a961048e366004611dd4565b610df5565b34801561049f57600080fd5b506104b36104ae366004611b8c565b610e2d565b6040516101f79190611e50565b3480156104cc57600080fd5b506102156104db366004611b8c565b610f04565b3480156104ec57600080fd5b506101eb6104fb366004611e63565b610f0f565b34801561050c57600080fd5b506101a961051b366004611c0b565b610f3d565b610528610fb3565b4782111561058e5760405162461bcd60e51b815260206004820152602860248201527f596f75722072657175657374696e6720616d6f756e74206973206f76657220746044820152673932b0b9bab93c9760c11b60648201526084015b60405180910390fd5b6040516001600160a01b0382169083156108fc029084906000818181858888f193505050501580156105c4573d6000803e3d6000fd5b50604080518381526001600160a01b0383166020820152478183015290517f62d31968529bc5b114248358bffc64313a2d23c1df1caa5be36ba1f8202204199181900360600190a15050565b60006001600160e01b031982166380ac58cd60e01b148061064157506001600160e01b03198216635b5e139f60e01b145b8061065c57506301ffc9a760e01b6001600160e01b03198316145b92915050565b60606000805461067190611e8d565b80601f016020809104026020016040519081016040528092919081815260200182805461069d90611e8d565b80156106ea5780601f106106bf576101008083540402835291602001916106ea565b820191906000526020600020905b8154815290600101906020018083116106cd57829003601f168201915b5050505050905090565b60006106ff8261100d565b506000908152600460205260409020546001600160a01b031690565b600061072682610a9e565b9050806001600160a01b0316836001600160a01b0316036107935760405162461bcd60e51b815260206004820152602160248201527f4552433732313a20617070726f76616c20746f2063757272656e74206f776e656044820152603960f91b6064820152608401610585565b336001600160a01b03821614806107af57506107af8133610f0f565b6108215760405162461bcd60e51b815260206004820152603e60248201527f4552433732313a20617070726f76652063616c6c6572206973206e6f7420746f60448201527f6b656e206f776e6572206e6f7220617070726f76656420666f7220616c6c00006064820152608401610585565b61082b838361106c565b505050565b61083a33826110da565b6108565760405162461bcd60e51b815260040161058590611ec7565b61082b838383611139565b600e546001600160a01b0316331461088b5760405162461bcd60e51b815260040161058590611f15565b600e80546001600160a01b0319166001600160a01b0392909216919091179055565b61082b83838360405180602001604052806000815250610df5565b60606000806108d6600c5490565b90506108e1600c5490565b600003610921576040805160008082526020820190925290610919565b610906611a84565b8152602001906001900390816108fe5790505b509250505090565b60008167ffffffffffffffff81111561093c5761093c611cff565b60405190808252806020026020018201604052801561097557816020015b610962611a84565b81526020019060019003908161095a5790505b50905060015b828111610a86576000818152600d602090815260409182902082516060810190935280546001600160a01b0316835260018101805491928401916109be90611e8d565b80601f01602080910402602001604051908101604052809291908181526020018280546109ea90611e8d565b8015610a375780601f10610a0c57610100808354040283529160200191610a37565b820191906000526020600020905b815481529060010190602001808311610a1a57829003601f168201915b50505050508152602001600282015481525050828581518110610a5c57610a5c611f5d565b6020908102919091010152610a72600185611f89565b935080610a7e81611f9c565b91505061097b565b509392505050565b6000610a99600b5490565b905090565b6000818152600260205260408120546001600160a01b03168061065c5760405162461bcd60e51b8152602060048201526018602482015277115490cdcc8c4e881a5b9d985b1a59081d1bdad95b88125160421b6044820152606401610585565b6008543414610b4f5760405162461bcd60e51b815260206004820152601b60248201527f596f7572206d73672076616c756520697320696e636f727265637400000000006044820152606401610585565b610b5d600b80546001019055565b6000610b68600b5490565b9050600a54811115610bd45760405162461bcd60e51b815260206004820152602f60248201527f546865206e756d626572206f66206d696e746564204e4654206861732072656160448201526e63686564206d617820737570706c7960881b6064820152608401610585565b610bde33826112d5565b610c728160098054610bef90611e8d565b80601f0160208091040260200160405190810160405280929190818152602001828054610c1b90611e8d565b8015610c685780601f10610c3d57610100808354040283529160200191610c68565b820191906000526020600020905b815481529060010190602001808311610c4b57829003601f168201915b50505050506112ef565b50565b600e546001600160a01b03163314610c9f5760405162461bcd60e51b815260040161058590611f15565b600a55565b60006001600160a01b038216610d0e5760405162461bcd60e51b815260206004820152602960248201527f4552433732313a2061646472657373207a65726f206973206e6f7420612076616044820152683634b21037bbb732b960b91b6064820152608401610585565b506001600160a01b031660009081526003602052604090205490565b610d32610fb3565b610d3c6000611382565b565b600e546001600160a01b03163314610d685760405162461bcd60e51b815260040161058590611f15565b600855565b60606001805461067190611e8d565b610d873383836113d4565b5050565b600e546001600160a01b03163314610dec576001610da833610ca4565b1015610dec5760405162461bcd60e51b8152602060048201526013602482015272165bdd48191bc81b9bdd081a185d99481b999d606a1b6044820152606401610585565b610c72816114a2565b610dff33836110da565b610e1b5760405162461bcd60e51b815260040161058590611ec7565b610e278484848461155e565b50505050565b610e35611a84565b6000828152600d602090815260409182902082516060810190935280546001600160a01b031683526001810180549192840191610e7190611e8d565b80601f0160208091040260200160405190810160405280929190818152602001828054610e9d90611e8d565b8015610eea5780601f10610ebf57610100808354040283529160200191610eea565b820191906000526020600020905b815481529060010190602001808311610ecd57829003601f168201915b505050505081526020016002820154815250509050919050565b606061065c82611591565b6001600160a01b03918216600090815260056020908152604080832093909416825291909152205460ff1690565b610f45610fb3565b6001600160a01b038116610faa5760405162461bcd60e51b815260206004820152602660248201527f4f776e61626c653a206e6577206f776e657220697320746865207a65726f206160448201526564647265737360d01b6064820152608401610585565b610c7281611382565b6007546001600160a01b03163314610d3c5760405162461bcd60e51b815260206004820181905260248201527f4f776e61626c653a2063616c6c6572206973206e6f7420746865206f776e65726044820152606401610585565b6000818152600260205260409020546001600160a01b0316610c725760405162461bcd60e51b8152602060048201526018602482015277115490cdcc8c4e881a5b9d985b1a59081d1bdad95b88125160421b6044820152606401610585565b600081815260046020526040902080546001600160a01b0319166001600160a01b03841690811790915581906110a182610a9e565b6001600160a01b03167f8c5be1e5ebec7d5bd14f71427d1e84f3dd0314c0f7b2291e5b200ac8c7c3b92560405160405180910390a45050565b6000806110e683610a9e565b9050806001600160a01b0316846001600160a01b0316148061110d575061110d8185610f0f565b806111315750836001600160a01b0316611126846106f4565b6001600160a01b0316145b949350505050565b826001600160a01b031661114c82610a9e565b6001600160a01b0316146111b05760405162461bcd60e51b815260206004820152602560248201527f4552433732313a207472616e736665722066726f6d20696e636f72726563742060448201526437bbb732b960d91b6064820152608401610585565b6001600160a01b0382166112125760405162461bcd60e51b8152602060048201526024808201527f4552433732313a207472616e7366657220746f20746865207a65726f206164646044820152637265737360e01b6064820152608401610585565b61121d60008261106c565b6001600160a01b0383166000908152600360205260408120805460019290611246908490611fb5565b90915550506001600160a01b0382166000908152600360205260408120805460019290611274908490611f89565b909155505060008181526002602052604080822080546001600160a01b0319166001600160a01b0386811691821790925591518493918716917fddf252ad1be2c89b69c2b068fc378daa952ba7f163c4a11628f55a4df523b3ef91a4505050565b610d87828260405180602001604052806000815250611699565b6000828152600260205260409020546001600160a01b031661136a5760405162461bcd60e51b815260206004820152602e60248201527f45524337323155524953746f726167653a2055524920736574206f66206e6f6e60448201526d32bc34b9ba32b73a103a37b5b2b760911b6064820152608401610585565b600082815260066020526040902061082b8282612016565b600780546001600160a01b038381166001600160a01b0319831681179093556040519116919082907f8be0079c531659141344cd1fd0a4f28419497f9722a3daafe3b4186f6b6457e090600090a35050565b816001600160a01b0316836001600160a01b0316036114355760405162461bcd60e51b815260206004820152601960248201527f4552433732313a20617070726f766520746f2063616c6c6572000000000000006044820152606401610585565b6001600160a01b03838116600081815260056020908152604080832094871680845294825291829020805460ff191686151590811790915591519182527f17307eab39ab6107e8899845ad3d59bd9653f200f220920489ca2b5937696c31910160405180910390a3505050565b6114b0600c80546001019055565b60006114bb600c5490565b60408051606081018252338152602080820186815242838501526000858152600d909252929020815181546001600160a01b0319166001600160a01b0390911617815591519293509160018201906115139082612016565b5060409182015160029091015551339082907f3e1d52f9ee9b009659ccf70171749f40d1a6138fd18c4f4daef9e79fdafc3f1f90611552908690611b79565b60405180910390a35050565b611569848484611139565b611575848484846116cc565b610e275760405162461bcd60e51b8152600401610585906120d6565b606061159c8261100d565b600082815260066020526040812080546115b590611e8d565b80601f01602080910402602001604051908101604052809291908181526020018280546115e190611e8d565b801561162e5780601f106116035761010080835404028352916020019161162e565b820191906000526020600020905b81548152906001019060200180831161161157829003601f168201915b50505050509050600061164c60408051602081019091526000815290565b9050805160000361165e575092915050565b815115611690578082604051602001611678929190612128565b60405160208183030381529060405292505050919050565b611131846117cd565b6116a38383611841565b6116b060008484846116cc565b61082b5760405162461bcd60e51b8152600401610585906120d6565b60006001600160a01b0384163b156117c257604051630a85bd0160e11b81526001600160a01b0385169063150b7a0290611710903390899088908890600401612157565b6020604051808303816000875af192505050801561174b575060408051601f3d908101601f1916820190925261174891810190612194565b60015b6117a8573d808015611779576040519150601f19603f3d011682016040523d82523d6000602084013e61177e565b606091505b5080516000036117a05760405162461bcd60e51b8152600401610585906120d6565b805181602001fd5b6001600160e01b031916630a85bd0160e11b149050611131565b506001949350505050565b60606117d88261100d565b60006117ef60408051602081019091526000815290565b9050600081511161180f576040518060200160405280600081525061183a565b8061181984611983565b60405160200161182a929190612128565b6040516020818303038152906040525b9392505050565b6001600160a01b0382166118975760405162461bcd60e51b815260206004820181905260248201527f4552433732313a206d696e7420746f20746865207a65726f20616464726573736044820152606401610585565b6000818152600260205260409020546001600160a01b0316156118fc5760405162461bcd60e51b815260206004820152601c60248201527f4552433732313a20746f6b656e20616c7265616479206d696e746564000000006044820152606401610585565b6001600160a01b0382166000908152600360205260408120805460019290611925908490611f89565b909155505060008181526002602052604080822080546001600160a01b0319166001600160a01b03861690811790915590518392907fddf252ad1be2c89b69c2b068fc378daa952ba7f163c4a11628f55a4df523b3ef908290a45050565b6060816000036119aa5750506040805180820190915260018152600360fc1b602082015290565b8160005b81156119d457806119be81611f9c565b91506119cd9050600a836121c7565b91506119ae565b60008167ffffffffffffffff8111156119ef576119ef611cff565b6040519080825280601f01601f191660200182016040528015611a19576020820181803683370190505b5090505b841561113157611a2e600183611fb5565b9150611a3b600a866121db565b611a46906030611f89565b60f81b818381518110611a5b57611a5b611f5d565b60200101906001600160f81b031916908160001a905350611a7d600a866121c7565b9450611a1d565b604051806060016040528060006001600160a01b0316815260200160608152602001600081525090565b80356001600160a01b0381168114611ac557600080fd5b919050565b60008060408385031215611add57600080fd5b82359150611aed60208401611aae565b90509250929050565b6001600160e01b031981168114610c7257600080fd5b600060208284031215611b1e57600080fd5b813561183a81611af6565b60005b83811015611b44578181015183820152602001611b2c565b50506000910152565b60008151808452611b65816020860160208601611b29565b601f01601f19169290920160200192915050565b60208152600061183a6020830184611b4d565b600060208284031215611b9e57600080fd5b5035919050565b60008060408385031215611bb857600080fd5b611bc183611aae565b946020939093013593505050565b600080600060608486031215611be457600080fd5b611bed84611aae565b9250611bfb60208501611aae565b9150604084013590509250925092565b600060208284031215611c1d57600080fd5b61183a82611aae565b60018060a01b0381511682526000602082015160606020850152611c4d6060850182611b4d565b604093840151949093019390935250919050565b6000602080830181845280855180835260408601915060408160051b870101925083870160005b82811015611cb657603f19888603018452611ca4858351611c26565b94509285019290850190600101611c88565b5092979650505050505050565b60008060408385031215611cd657600080fd5b611cdf83611aae565b915060208301358015158114611cf457600080fd5b809150509250929050565b634e487b7160e01b600052604160045260246000fd5b600067ffffffffffffffff80841115611d3057611d30611cff565b604051601f8501601f19908116603f01168101908282118183101715611d5857611d58611cff565b81604052809350858152868686011115611d7157600080fd5b858560208301376000602087830101525050509392505050565b600060208284031215611d9d57600080fd5b813567ffffffffffffffff811115611db457600080fd5b8201601f81018413611dc557600080fd5b61113184823560208401611d15565b60008060008060808587031215611dea57600080fd5b611df385611aae565b9350611e0160208601611aae565b925060408501359150606085013567ffffffffffffffff811115611e2457600080fd5b8501601f81018713611e3557600080fd5b611e4487823560208401611d15565b91505092959194509250565b60208152600061183a6020830184611c26565b60008060408385031215611e7657600080fd5b611e7f83611aae565b9150611aed60208401611aae565b600181811c90821680611ea157607f821691505b602082108103611ec157634e487b7160e01b600052602260045260246000fd5b50919050565b6020808252602e908201527f4552433732313a2063616c6c6572206973206e6f7420746f6b656e206f776e6560408201526d1c881b9bdc88185c1c1c9bdd995960921b606082015260800190565b60208082526028908201527f796f7520617265206e6f74207468652063726561746f72206f6620746869732060408201526718dbdb9d1c9858dd60c21b606082015260800190565b634e487b7160e01b600052603260045260246000fd5b634e487b7160e01b600052601160045260246000fd5b8082018082111561065c5761065c611f73565b600060018201611fae57611fae611f73565b5060010190565b8181038181111561065c5761065c611f73565b601f82111561082b57600081815260208120601f850160051c81016020861015611fef5750805b601f850160051c820191505b8181101561200e57828155600101611ffb565b505050505050565b815167ffffffffffffffff81111561203057612030611cff565b6120448161203e8454611e8d565b84611fc8565b602080601f83116001811461207957600084156120615750858301515b600019600386901b1c1916600185901b17855561200e565b600085815260208120601f198616915b828110156120a857888601518255948401946001909101908401612089565b50858210156120c65787850151600019600388901b60f8161c191681555b5050505050600190811b01905550565b60208082526032908201527f4552433732313a207472616e7366657220746f206e6f6e20455243373231526560408201527131b2b4bb32b91034b6b83632b6b2b73a32b960711b606082015260800190565b6000835161213a818460208801611b29565b83519083019061214e818360208801611b29565b01949350505050565b6001600160a01b038581168252841660208201526040810183905260806060820181905260009061218a90830184611b4d565b9695505050505050565b6000602082840312156121a657600080fd5b815161183a81611af6565b634e487b7160e01b600052601260045260246000fd5b6000826121d6576121d66121b1565b500490565b6000826121ea576121ea6121b1565b50069056fea2646970667358221220a79240887d63e8d1ed14f80dfe7ff2c284375e87deb5d95343a086c40d0201fe64736f6c63430008110033a264697066735822122049dc7475c180fd4035a2825fd4e93325e20f4ec39002899f60215e9a51ef3e6064736f6c63430008110033",
  "linkReferences": {},
  "deployedLinkReferences": {}
}